:100000000C9427080C944F080C944F080C944F083C
:100010000C944F080C944F080C944F080C944F0804
:100020000C944F080C944F080C9430120C949F12AF
:100030000C944F080C944F080C944F080C944F08E4
:100040000C944F080C944F080C944F080C944F08D4
:100050000C944F080C944F080C944F080C94D11436
:100060000C944F080C944F080C944F080C944F08B4
:100070000C944F080C944F080C944F080C944F08A4
:100080000C941B150C944F080C944F080C944F08BB
:100090000C944F080C944F080C944F080C944F0884
:1000A0000C944F080C944F080C944F08207D3B0093
:1000B000002C00636F6E73742075696E74385F7402
:1000C00020706963747572655B5D2050524F474DB7
:1000D000454D203D207B00544F4E45535F454E44D7
:1000E000207D3B00002C20002C00636F6E73742079
:1000F00075696E7431365F74207468656D655B5D1B
:100100002050524F474D454D203D207B0003081F96
:10011000051F1F151B1F11111F110E1F15111F0584
:10012000011F111D1F041F001F0010101F1F041BA3
:100130001F10101F061F1F011F1F111F1F05071F64
:10014000311F1F051B17151D011F011F101F0F1049
:100150000F1F0C1F1B041B071C071915130C121E65
:100160001F120C1E12120C121F0C1A14041F052E43
:100170002A1E1F021C001D00201D001F041A011F43
:10018000001E041E1E021E1E121E3E120C0C123EEB
:100190001E020614120A020F121E101E0E100E1E50
:1001A000081E1A041A2E281E1A12161F111F021FCB
:1001B000001D151711151F07041F17151D1F151DED
:1001C00001011F1F151F17151F0017000010000841
:1001D0001C08201800001400080B00020202010095
:1001E000090400000102020000052400100105249A
:1001F000010101042402060524060001070581030C
:1002000010004009040100020A0000000705020274
:1002100040000007058302400000040309041201A6
:100220000002EF0201404123368000010102030178
:1002300041726475696E6F204C4C43004172647565
:10024000696E6F204C656F6E6172646F00D5F08DC2
:1002500014A1C881CFD9F1AF20004578706F7274B6
:1002600020746F2053657269616C0A5265747572EF
:100270006E20746F204D656E750020707800536994
:100280007A6520593A20002070780053697A6520F9
:10029000583A20000C141C2830496E766572742080
:1002A000496D6167650A00436C65617220496D6143
:1002B00067650A000A0A00436C6561722045455073
:1002C000524F4D0A004C6F61642066726F6D20457D
:1002D0004550524F4D0A005361766520746F20459A
:1002E0004550524F4D0A00544F4F4C424F58000555
:1002F000051100000011030307070730003000520A
:10030000616E67652000546F20696E636C7564656B
:10031000206120726573742C0A73656C65637420A8
:10032000616E206578697374696E670A6E6F7465B3
:10033000207468656E20707265737320616E640A44
:10034000686F6C6420746865204120627574746FF6
:100350006E0A746F20746F67676C652E00422B52B3
:100360002020496E736572742061206E6F74650A77
:100370000A00422B4C202044656C657465206E6F2A
:1003800074650A00412B4420204D6F766520646F10
:10039000776E0A00412B5520204D6F7665207570D1
:1003A0000A00412B522020457874656E64206E6FE0
:1003B00074650A00412B4C2020536872696E6B20D3
:1003C0006E6F74650A00436C6561722054756E65CA
:1003D0000A4578706F727420746F2053657269617A
:1003E0006C0A52657475726E20746F204D656E755F
:1003F0000052616E67653A200054656D706F3A2057
:10040000000C142028300A0A00436C6561722045F4
:100410004550524F4D0A004C6F61642066726F6DFB
:1004200020454550524F4D0A005361766520746F48
:1004300020454550524F4D0A00506C61792066723C
:100440006F6D20637572736F720A00506C61792052
:1004500066726F6D2073746172740A00544F4F4C52
:10046000424F580003051F0E040305040E1F3005FC
:100470000E1111110E00000000000000000000002D
:10048000000000000000000000000000000000006C
:10049000000000000000000000000000000000005C
:1004A0000E1111111111111111110E000000000097
:1004B000000000000000000000000000000000003C
:1004C000000000000000000000000000000000002C
:1004D0000E1111111111111111111111111111110F
:1004E0000E000000000000000000000000000000FE
:1004F00000000000000000000000000000000000FC
:100500000E111111111111111111111111111111DE
:100510001111111111110E00000000000000000067
:1005200000000000000000000000000000000000CB
:100530000E111111111111111111111111111111AE
:100540001111111111111111111111110E000000D1
:10055000000000000000000000000000000000009B
:100560000E1111111111111111111111111111117E
:10057000111111111111111111111111111111116B
:1005800011110E000000000000000000000000003B
:100590000E1111111111111111111111111111114E
:1005A000111111111111111111111111111111113B
:1005B00011111111111111110E00000000000000A5
:1005C0000E1111111111111111111111111111111E
:1005D000111111111111111111111111111111110B
:1005E00011111111111111111111111111110E000F
:1005F00030050E1115110E00000000000000000073
:1006000000000000000000000000000000000000EA
:1006100000000000000000000000000000000000DA
:1006200000000E1115151515151515110E000000F9
:1006300000000000000000000000000000000000BA
:1006400000000000000000000000000000000000AA
:1006500000000E111515151515151515151515157F
:1006600015110E0000000000000000000000000056
:10067000000000000000000000000000000000007A
:1006800000000E111515151515151515151515154F
:1006900015151515151515110E00000000000000A8
:1006A000000000000000000000000000000000004A
:1006B00000000E111515151515151515151515151F
:1006C00015151515151515151515151515110E00FA
:1006D000000000000000000000000000000000001A
:1006E00000000E11151515151515151515151515EF
:1006F00015151515151515151515151515151515AA
:10070000151515110E00000000000000000000008B
:1007100000000E11151515151515151515151515BE
:100720001515151515151515151515151515151579
:10073000151515151515151515110E0000000000DD
:1007400000000E111515151515151515151515158E
:100750001515151515151515151515151515151549
:10076000151515151515151515151515151515113D
:100770000E000E1F1F1F0E000000000000000000F2
:100780000000000000000000000000000000000069
:100790000000000000000000000000000000000059
:1007A00000000E1F1F1F1F1F1F1F1F1F0E00000016
:1007B0000000000000000000000000000000000039
:1007C0000000000000000000000000000000000029
:1007D00000000E1F1F1F1F1F1F1F1F1F1F1F1F1F78
:1007E0001F1F0E00000000000000000000000000BD
:1007F00000000000000000000000000000000000F9
:1008000000000E1F1F1F1F1F1F1F1F1F1F1F1F1F47
:100810001F1F1F1F1F1F1F1F0E00000000000000D2
:1008200000000000000000000000000000000000C8
:1008300000000E1F1F1F1F1F1F1F1F1F1F1F1F1F17
:100840001F1F1F1F1F1F1F1F1F1F1F1F1F1F0E00E8
:100850000000000000000000000000000000000098
:1008600000000E1F1F1F1F1F1F1F1F1F1F1F1F1FE7
:100870001F1F1F1F1F1F1F1F1F1F1F1F1F1F1F1F88
:100880001F1F1F1F0E0000000000000000000000DE
:1008900000000E1F1F1F1F1F1F1F1F1F1F1F1F1FB7
:1008A0001F1F1F1F1F1F1F1F1F1F1F1F1F1F1F1F58
:1008B0001F1F1F1F1F1F1F1F1F1F0E0000000000F4
:1008C00000000E1F1F1F1F1F1F1F1F1F1F1F1F1F87
:1008D0001F1F1F1F1F1F1F1F1F1F1F1F1F1F1F1F28
:1008E0001F1F1F1F1F1F1F1F1F1F1F1F1F1F1F1F18
:1008F0000E0030050E1F1F1F0E000000000000003C
:1009000000000000000000000000000000000000E7
:1009100000000000000000000000000000000000D7
:10092000000000000E1F1F1F1F1F1F1F1F1F0E0094
:1009300000000000000000000000000000000000B7
:1009400000000000000000000000000000000000A7
:10095000000000000E1F1F1F1F1F1F1F1F1F1F1F34
:100960001F1F1F1F0E0000000000000000000000FD
:100970000000000000000000000000000000000077
:10098000000000000E1F1F1F1F1F1F1F1F1F1F1F04
:100990001F1F1F1F1F1F1F1F1F1F0E000000000013
:1009A0000000000000000000000000000000000047
:1009B000000000000E1F1F1F1F1F1F1F1F1F1F1FD4
:1009C0001F1F1F1F1F1F1F1F1F1F1F1F1F1F1F1F37
:1009D0000E00000000000000000000000000000009
:1009E000000000000E1F1F1F1F1F1F1F1F1F1F1FA4
:1009F0001F1F1F1F1F1F1F1F1F1F1F1F1F1F1F1F07
:100A00001F1F1F1F1F1F0E0000000000000000001E
:100A1000000000000E1F1F1F1F1F1F1F1F1F1F1F73
:100A20001F1F1F1F1F1F1F1F1F1F1F1F1F1F1F1FD6
:100A30001F1F1F1F1F1F1F1F1F1F1F1F0E00000034
:100A4000000000000E1F1F1F1F1F1F1F1F1F1F1F43
:100A50001F1F1F1F1F1F1F1F1F1F1F1F1F1F1F1FA6
:100A60001F1F1F1F1F1F1F1F1F1F1F1F1F1F1F1F96
:100A70001F1F0E00FA00C800AF0096007D00640042
:100A80004B0032001F002100250029002C003100FE
:100A900037003E00410049005200570062006E00DE
:100AA0007B003E00410049005200570062006E008A
:100AB0007B0083009300A500AF00C400DC00F700BA
:100AC0007B0083009300A500AF00C400DC00F700AA
:100AD000060126014A015D018801B801EE01F70017
:100AE000060126014A015D018801B801EE010B02F1
:100AF0004B029302BA0210037003DC03EE010B02F7
:100B00004B029302BA0210037003DC03170497042C
:100B1000270575052006E006B807DC0317049704CF
:100B2000270575052006E006B8072D082D094D0A92
:100B3000EA0A400CC00D6F0FB8072D082D094D0AA9
:100B4000EA0A400CC00D6F0F5A105B129A14D415AC
:100B50008018801BDE1E6F0F5A105B129A14D4157A
:100B60008018801BDE1EB420B5243429A72B003149
:100B70000037BC3D804000000000F00884848C8871
:100B8000C870200000F808080888D0700000000035
:100B900000E0301030206040C0800000E0301010D5
:100BA00010080000FE02E2A21C0000000000C03895
:100BB000889860C0000000F0101070301030E00025
:100BC0007F83060C1804047C800000808080808075
:100BD00040404080C0C000000000F018000080804D
:100BE0008080808080000000000000000000000085
:100BF00000000000000000000000013E00000000B6
:100C000000000000000F18000001010206040C089B
:100C1000000102040818101010190E00000302034E
:100C2000030CF000071C6000010306083060070099
:100C300001000001030007000000000000000300A5
:100C400000070000000000003F00041F24242020B3
:100C50002000003F06070C081811010808080B12B5
:100C600012141C180000000000000000000000002A
:100C700000000000000000000000008080808080F4
:100C8000808040C040404040202020000000000004
:100C90000000000000000000000000000000000054
:100CA000C0000F000000C0000000000000000000B5
:100CB0000000000000000000000000000000000034
:100CC0000000000000000000000000000000000024
:100CD0000000000000000000000000000000000014
:100CE0000000000000000000000000000000000004
:100CF00000000000000000000000000000000000F4
:100D0000000000073C000000000000001F1111114E
:100D10002222223E0000003E22222322263C000006
:100D2000003F000000101F121211171C0000001ECF
:100D3000131111131E804042340C0C0A08181000C5
:100D400000000000000000000000000000000000A3
:100D50000000000000000000000000000000000093
:100D60000000000000000000000000000000000083
:100D70000000000000000000000000000000000073
:100D800000000000000000000000000000800000E3
:100D90000000000000000000000000000000000053
:100DA00000808080808080800000000080000080C3
:100DB000000000C041410000008000000000808071
:100DC00080000000000000000000000000000000A3
:100DD0000000000000000000000000000000000013
:100DE0000000000000000000000000000000000003
:100DF00000000000000000000000000000000000F3
:100E00000000000000000000000040780F090B0EF9
:100E10001878000000000808080800000000000022
:100E20003E030000010100001F000000070404074A
:100E3000000000040505060200010E000000070C7A
:100E40000808000000000000000000000000000092
:100E50000000000000000000000000000000000092
:100E60000000000000000000000000000000000082
:100E70000000000000000000000000000000000072
:100E800000000000000000000000E01058C8A8A802
:100E9000980000000080808080000000000000E0DA
:100EA000901008040404040400C02020A0E0000006
:100EB0000000008040404080800000008060A090E2
:100EC0009090D0300000E0000000F000000000E052
:100ED00000C06020202000C0C0A0A0A02000000012
:100EE0000000000000000000000000000000000002
:100EF00000000000000000000000000000000000F2
:100F00000000000000000000001817101010101062
:100F100010110D060000000000000000000000009D
:100F200000010101010107000001060001020206A3
:100F30000000030E02020202010600000700010188
:100F40000000000000000F010103001F0000001F4F
:100F50000001030604060008080808090B0A0E042D
:100F60000000000000000000000000000000000081
:100F700000000000000021080F0F08080006090B00
:100F800006000E03030E000F090F06000F0F000FDF
:100F900002030F000E0F090D000E10BEBDBEBDBE38
:100FA000BDBEBDBEBDBEBDBE000004000400040049
:100FB000040004000400004E080F0D0702000F0596
:100FC0000F0A000F0D0900020B0D00020B0D0000AF
:100FD0000000000F0D0702000F0F0808000E0303AA
:100FE0000E00030E0E0300000006090B06000F02A0
:100FF000030F00000000010F0F010E03030E000F8E
:101000000D0702000F0D090E10A7C7A7C7A7C7A796
:10101000C7A7C7A7C7A70007070707070707070747
:10102000070707070024080E1F1F1F0E00000000FF
:10103000000000000000001F0E040000000000007F
:10104000000000040E1F00040E1F0000AF15112445
:101050001FBECFEFDAE0DEBFCDBF11E0A0E0B1E010
:10106000E4E6F0E502C005900D92AC35B107D9F782
:1010700028E0ACE5B1E001C01D92AA38B207E1F763
:1010800018E0C7E2D8E004C02197FE010E942A2898
:10109000C632D107C9F70E9416160C9430280C945A
:1010A0000000809172010895480F592F511D1416A8
:1010B000150684F5803891056CF597FF02C090E025
:1010C00080E04138510514F040E850E0481BFB0136
:1010D000E770FF2721E001C0220FEA95EAF777FFCA
:1010E00002C0695F7F4FFB0133E0F595E7953A95C4
:1010F000E1F7F695FE2FEE27F795E795E80FF91F34
:10110000E857FE4F415030F08191DF011197822B5B
:101110008C93F8CF089590918508982329F49091A5
:101120008408982381E009F480E00895FC0180910F
:101130008701882311F13FB7F89482E08093E9009A
:101140002091F200822F90E01816190614F481E025
:1011500090E0882339F0289844E640938601409136
:10116000F1004083222339F02091F200211103C0C5
:101170002BE62093E8003FBF08958FEF9FEF08957F
:101180002FB7F89483E08093E9009091E800892FCD
:10119000807295FF04C09091F20080E4891B2FBFFC
:1011A000089580917E0181110DC082E080937A01C3
:1011B00084E080937B0110927D0110927C0181E09C
:1011C00080937E018AE791E0089540916C015091EF
:1011D0006D0120916A0130916B0142175307B4F4FD
:1011E0009091E8009570E1F39091E80092FD19C0AC
:1011F0008093F10080916C0190916D0101968F7345
:101200009927892B19F48EEF8093E80080916C0167
:1012100090916D01019690936D0180936C0181E036
:10122000089580E00895DF92EF92FF920F931F934D
:10123000CF93DF93D82E8A01EB017B01E40EF51EDC
:10124000CE15DF0559F0D7FE12C0FE0184910E9431
:10125000E50821968111F4CF0FEF1FEFC801DF9150
:10126000CF911F910F91FF90EF90DF9008958881AB
:10127000EECF0F931F93CF93DF931F92CDB7DEB7BF
:1012800082E0898342E450E068ED71E080E80E94EA
:1012900013090E94D108DC0112960D911C910115D1
:1012A000110589F0D801ED91FC910280F381E02DC8
:1012B000BE016F5F7F4FC801099597FD04C0F8011B
:1012C00000851185ECCF89810F90DF91CF911F911F
:1012D0000F910895615030F02091F100FC012083BE
:1012E0000196F8CF289884E6809386010895EF92BE
:1012F000FF920F931F93CF93DF938C017B01D0E07C
:10130000C0E0F701EC0FFD1F6491662361F0D80186
:10131000ED91FC910190F081E02DC8010995892B98
:1013200011F02196EECFCE01DF91CF911F910F9159
:10133000FF90EF900895AF92BF92CF92DF92EF921D
:10134000FF920F931F93CF93DF936C017B018B016F
:10135000040F151FEB015E01AE18BF08C017D107BF
:1013600059F06991D601ED91FC910190F081E02D49
:10137000C6010995892B79F7C501DF91CF911F919E
:101380000F91FF90EF90DF90CF90BF90AF900895B6
:10139000CF93DF931F92CDB7DEB76983DC01ED9168
:1013A000FC910280F381E02D41E050E0BE016F5FCF
:1013B0007F4F09950F90DF91CF91089583E080933F
:1013C000E9008091F200882319F08AE38093E80015
:1013D00008950E94C00890E00895CF93DF931F9274
:1013E000CDB7DEB7FC018485958597FD08C02FEF4A
:1013F0003FEF358724870F90DF91CF910895CE017D
:1014000001960E949608019719F4898190E0F3CF24
:101410008FEF9FEFF0CF0F931F93CF93DF931F9228
:10142000CDB7DEB78C01FC018485958597FF0BC095
:10143000CE0101960E949608019771F4898190E08F
:10144000F80195878487F801848595850F90DF9151
:10145000CF911F910F9108958FEF9FEFF1CFFC0176
:101460008485958597FD0BC09FB7F89482E08093A3
:10147000E9008091F2009FBF90E0019608959FB728
:10148000F89482E08093E9008091F2009FBF90E0A1
:1014900008953FB7F8948091660190916701A091FB
:1014A0006801B091690126B5A89B05C02F3F19F0CE
:1014B0000196A11DB11D3FBFBA2FA92F982F8827D4
:1014C000BC01CD01620F711D811D911D42E0660FAF
:1014D000771F881F991F4A95D1F708958F929F9281
:1014E000AF92BF92CF92DF92EF92FF926B017C019D
:1014F0000E94490A4B015C01C114D104E104F104CA
:10150000B9F00E94490A681979098A099B09683E5D
:1015100073408105910580F321E0C21AD108E108EA
:10152000F10888EE880E83E0981EA11CB11CE4CF60
:10153000FF90EF90DF90CF90BF90AF909F908F90F3
:10154000089565E070E080E090E00C946E0A8F9260
:101550009F92AF92BF92CF92DF92EF92FF920F9342
:101560001F93CF93DF936C017B018A0180910B0164
:10157000882309F45CC080918701882309F457C04F
:101580008091700180FF05C08091E00082608093AF
:10159000E000E801B12C8AEFA82E93E0892E2AE31F
:1015A000922E209711F4BB20D9F10E94C00881111E
:1015B0000AC0AA94AA20D9F161E070E080E090E02E
:1015C0000E946E0AEECF8C171D0611F00CF08C2FC6
:1015D0009FB7F8948092E9002091E80025FD02C0B1
:1015E0009FBFDFCF282F30E0C21BD30BF701815004
:1015F00020F041914093F100FACFE20EF31EBB20A0
:1016000021F09092E800B12CEBCF8091E80085FDAD
:10161000E7CF9092E800BB24B394209709F3F3CF6F
:101620005D9884E680936F01101611063CF081E00E
:1016300090E0F6019383828310E000E0C801DF911F
:10164000CF911F910F91FF90EF90DF90CF90BF90BF
:10165000AF909F908F9008956F927F928F929F92FC
:10166000AF92BF92CF92DF92EF92FF920F931F93B0
:10167000CF93DF934C01CB013A017C2DFA016491A9
:1016800031965491F2E06F0E711CC62FD0E02111FB
:1016900002C0EE2009F1E1E0F0E0352F377011F4DF
:1016A000F0E0E0E0A52FA695A695A695AE0FBF2F7A
:1016B000B11DAC9FF001AD9FF00DBC9FF00D11244A
:1016C000733009F08BC0EE0FFF1F2E9FD0012F9FAC
:1016D000B00D11246A0E7B1ED401AC0FBD1F1A166B
:1016E0001B060CF06CC020E8821691040CF067C059
:1016F0009C01250F311D121613060CF060C08034BA
:1017000091050CF05CC06114710409F458C0382FC5
:101710003770FC0197FD379623E0F595E7952A95FC
:10172000E1F72E2F97FF04C0332311F02FEF2E0F78
:10173000EE27FF27E819F90997FC02C0F0E0E0E086
:1017400090E89819A038B1050CF4962F9E1BA22F93
:10175000022E000CBB0B4A2F40952F3F0CF040E0AF
:10176000DD24D394852F877009F4D12C5695569596
:101770005695D50EAD0DB11D19971CF058E0D52E1C
:10178000D21AD41A240F50E82503D0011124A80D31
:10179000B91DAE0FBF1F649FE00DF11D11246E0E29
:1017A0007F1EE32E032E000CFF08733009F423C1C3
:1017B00008F5713009F4D6C0723009F484C0DF91A5
:1017C000CF911F910F91FF90EF90DF90CF90BF903E
:1017D000AF909F908F907F906F90089501151105A5
:1017E00009F473CFEE9ED001EF9EB00D11240A0FC5
:1017F0001B1F6BCF7A3FB1F10D2D020F7B3FF9F626
:101800002017E9F2BD0168577E4FD12CC12CC916B3
:1018100008F0A2C0F301EC0DFD1DE491F0E0AF0172
:101820000E2C02C0440F551F0A94E2F727FD06C094
:10183000FB018081142F109581238083332361F075
:10184000273054F45B01F0E8AF0EB11C452F4095F2
:10185000F501808184238083FFEFCF1ADF0A6F5F59
:101860007F4FD5CF0D2D020F201709F4A8CFBD0152
:1018700068577E4FD12CC12CC91608F067C0F30100
:10188000EC0DFD1DE491F0E0AF010E2C02C0440F01
:10189000551F0A94E2F727FD04C0FB018081842BC9
:1018A0008083332351F0273044F45B01F0E8AF0E1E
:1018B000B11CF5018081852B8083FFEFCF1ADF0AF1
:1018C0006F5F7F4FD9CF6FEF70E0032E02C0660FBE
:1018D000771F0A94E2F760957095972E8D2C820EF3
:1018E000281509F46CCF8D0108571E4FD12CC12C3F
:1018F000C91630F5F301EC0DFD1DE491F0E0AF01E8
:101900000E2C02C0440F551F0A94E2F727FD05C0B4
:10191000F80180818623842B8083332359F027307C
:101920004CF45801F0E8AF0EB11CF501808189211B
:10193000852B8083FFEFCF1ADF0A0F5F1F4FD8CFB1
:101940002F5F6C0E7D1EA058BF4FCACF2F5F6C0E4D
:101950007D1EA058BF4F88CF2F5F6C0E7D1EA058F4
:10196000BF4F4ECF0E0F1F1F8D2D820F281709F46A
:1019700026CFBD0168577E4FD12CC12CC91698F5D2
:10198000F801EC0DFD1DA490B12C0E2C02C0AA0C88
:10199000BB1C0A94E2F7A094B094F301EC0DFD1D7A
:1019A0008490912C0E2C02C0880C991C0A94E2F7AA
:1019B00027FD08C0FB014081E42FEA214E2F482972
:1019C000FB014083332349F027303CF4FB01E0580E
:1019D000FF4FA080BA20B928B082FFEFCF1ADF0AEC
:1019E0006F5F7F4FCBCF2F5F6C0E7D1E0C0F1D1FC7
:1019F000A058BF4FBBCFE92EF12CE60DF71DA8571D
:101A0000BE4F60E870E06E197F09CE19DF09AE01A4
:101A1000440F551FC1E0D0E07E01032E01C0EE0C43
:101A20000A94EAF7192F0D2D892E932ECF93DF9369
:101A3000ED01EF96EF962296A590C590992059F06A
:101A4000AE9C5001CE9C600127302CF4F880D094DD
:101A5000FD20FB28F99222233AF0FC90C094FC2050
:101A6000FA28FD920C94350D11961A9529F70A95CE
:101A700051F0182D23951124E40FF11DA60FB11D6F
:101A8000C60FD11DD9CFDF91CF91112498CECF921F
:101A9000EF920F931F9322E0C22EE12C10E000E0A2
:101AA00020E00E942C0B1F910F91EF90CF90089592
:101AB000CF92EF920F931F933BEFC32EE12C10E0D8
:101AC00000E00E942C0B1F910F91EF90CF90089592
:101AD0008FB18095807F669B88601C9B8460089591
:101AE00020E191E061FD94E060FD990F62FD929527
:101AF000687F269FD0011124A80FA857BE4F8C9154
:101B000040FF03C0892B8C93089590958923FBCFC8
:101B10008038910528F46034710510F40C94700D30
:101B20000895DF92EF92FF920F931F93CF93DF936D
:101B30007C01D22E8B01040F111DEB0177FF02C037
:101B4000D0E0C0E0C8010134110514F080E490E059
:101B5000C817D9073CF44D2DBE01C7010E94880D5E
:101B60002196F0CFDF91CF911F910F91FF90EF90D1
:101B7000DF900895CF92DF92EF92FF920F931F9321
:101B8000CF93DF936B01122FEC017C01E40EF11C6B
:101B9000CE15DF0544F4202F412FB601CE010E945F
:101BA000910D2196F5CFDF91CF911F910F91FF906D
:101BB000EF90DF90CF900895EF92FF920F931F93D5
:101BC000CF93DF937C018B01C42FD22F603471053A
:101BD00010F40E945408B8016D0F711D6150710915
:101BE0006034710520F44C2FC7010E94540821E095
:101BF0004D2FB801C7010E94910DC7018C0F911D97
:101C000021E04D2FB8010197DF91CF911F910F91E6
:101C1000FF90EF900C94910D0895CF92EF920F9357
:101C20001F93CF93DF93EC016A3079F48D818C831D
:101C30008E819985890F8E8381E090E0DF91CF912D
:101C40001F910F91EF90CF9008959C81603219F40D
:101C50009E5F9C83F1CF6E3711F49F5FFACF262FE2
:101C60006E816F5F2A3398F4203398F52B3299F107
:101C700040F4213291F198859D5F8C81890F8C838E
:101C8000DBCF2C3261F12E32B1F72FE30DC02B35B3
:101C900030F42134E0F42A3371F722E405C08FE9EF
:101CA000820F27548A3138F7062E000C770B892FC4
:101CB000990F990B3F813130A1F43AEFC32EE12CFB
:101CC00010E000E04DE051E00E942C0BD4CF2154F5
:101CD000EBCF2C5FE9CF20E4E7CF2EE3E5CF21E483
:101CE000E3CF4DE051E00E94580DC5CF089590E03C
:101CF00080E0089520918C05E0918A05F0918B0594
:101D0000CF01029690938B0580938A05222319F0C8
:101D1000859194910895808191810895CF92DF9269
:101D2000EF92FF92CF93DF930E947A0E811520E805
:101D3000920791F4809171008D7F809371001092D1
:101D400091004698479810925E01DF91CF91FF90E5
:101D5000EF90DF90CF90089521E020935E018130D5
:101D600020E8920751F4809188059091890590931D
:101D70008B0580938A050E947A0E97FD05C02091FD
:101D80005D01222309F45AC020915C01211156C043
:101D900021E020935F01813020E8920710F090E06D
:101DA00080E0EC01DF77209709F04BC081E0809361
:101DB000600146983FE9C32E3FE0D32EE12CF12C81
:101DC000CAEFD0E0E091EB05F091EC0509958111A7
:101DD00003C081E08093600180915F01882329F036
:101DE00080916001882309F43FC047980E947A0ED1
:101DF0000097F1F19C01DE010E94FB27DC01CB0181
:101E000029E0B595A795979587952A95D1F71092D2
:101E100090002AE020939100D0929900C0929800FF
:101E20008093610190936201A0936301B093640178
:101E30008091710082608093710087CF10925F0162
:101E4000AACF9E0150E040E060E472E48FE090E0B1
:101E50000E94A72769017A0181E0C81AD108E10828
:101E6000F10810926001AECF4699BFCF479ABECF1E
:101E70008FEF9FEFDC01CBCF9C01E1E7F0E0908199
:101E80009D7F908310928C05EDEDF5E0F0938B052E
:101E9000E0938A05F0938905E093880531832083D8
:101EA0008BE490E09383828380E090E89583848341
:101EB0000C948E0EFC0180916E0890916F08208129
:101EC0003181211540E8340781F4A0916D0844E088
:101ED000A49FD0011124A85EB94F12963C932E9373
:101EE0001197918380830C943C0F9183808382812E
:101EF0009381892B31F480917208909173089383B8
:101F000082830895809179018230A9F0EEEEF5E0A8
:101F1000119225E0EE3FF207D9F7EEEFF5E01192CE
:101F200086E0EE30F807D9F71092100610920F06EF
:101F300010920E0608958091720890917308E4E162
:101F4000F6E01282118294838383349628E0EC3683
:101F5000F207B9F783E08093740880E090E89093EB
:101F6000160680931506ECEEFAE085919491909315
:101F70006F0880936E0810926D0808957F779FE038
:101F8000899FA001112430E020E0FA01E20FF31F45
:101F9000EE0FFF1FEC57F54FA591B4916A177B0721
:101FA00091F4211109C09EE1899FF0011124EC57A1
:101FB000F54F859194910895F9013197E40FF51F3C
:101FC000EE0FFF1FF4CF2F5F3F4F2F303105E9F6A3
:101FD00080E090E008957F779FE0899FA001112421
:101FE00030E020E0FA01E20FF31FEE0FFF1FEC5785
:101FF000F54FA591B4916A177B07A1F42E3049F4EF
:102000009EE1899FF0011124E056F54F859194914E
:102010000895F9013196E40FF51FEE0FFF1FEC57FD
:10202000F54FF4CF2F5F3F4F2F303105D9F680E0C9
:1020300090E008957F779FE0899FA001112430E010
:1020400020E0822FFA01E20FF31FEE0FFF1FEC5783
:10205000F54FA591B4916A177B0741F4223010F433
:10206000835008952C3038F08B5008952F5F3F4FE8
:102070002F30310531F780E008957F779FE0899F09
:10208000A001112430E020E0922FFA01E20FF31FAB
:10209000EE0FFF1FEC57F54FA591B4916A177B0720
:1020A00029F4990F990F8AE3891B08952F5F3F4FF9
:1020B0002F30310549F780E0089540910F06509187
:1020C00010069A0193E0369527959A95E1F7E091ED
:1020D0000E0664E0220F331F6A95E1F723513A4F51
:1020E000E20FF32FF11D91814770552721E030E079
:1020F00001C0220F4A95EAF7811104C020952923D7
:1021000021830895292BFCCFCF93DF93EB010E940D
:1021100091278883CE01DF91CF910895FB01019033
:102120000020E9F73197AF01461B570BDC01ED9119
:10213000FC910280F381E02D0994CF93DF93BC01E1
:102140008DE895E00E947709EC016BE471E08DE881
:1021500095E00E948E108C0F9D1FDF91CF91089506
:102160008F929F92AF92BF92EF92FF920F931F9325
:10217000CF93DF93CDB7DEB7A1970FB6F894DEBF4C
:102180000FBECDBF7C01FA01CB0119A2223008F4A9
:102190002AE08E010F5D1F4F822E912CB12CA12CB5
:1021A000BF01A50194010E94D927F901CA016A3033
:1021B0000CF5605DD8016E938D01232B242B252B0C
:1021C00079F790E080E0109721F0BD01C7010E94EF
:1021D0008E10A1960FB6F894DEBF0FBECDBFDF9173
:1021E000CF911F910F91FF90EF90BF90AF909F9074
:1021F0008F900895695CDECF462F50E070E060E07C
:102200002AE00C94B010AB0170E060E02AE00C947E
:10221000B010AB01770F660B770B2AE00C94B0106F
:102220009F92AF92BF92CF92DF92EF92FF920F9365
:102230001F93CF93DF93CDB7DEB728970FB6F894EF
:10224000DEBF0FBECDBF809179018230A9F083300F
:1022500009F465C028960FB6F894DEBF0FBECDBF57
:10226000DF91CF911F910F91FF90EF90DF90CF9072
:10227000BF90AF909F9008958AEE90E00E949D10CD
:1022800004E116E0F12CE12CF80161817281C38038
:10229000D4806115F0E87F0769F110F070E060E02C
:1022A0008DE895E00E94031168EE70E08DE895E0FE
:1022B0000E947709B6018DE895E00E94031165EE52
:1022C00070E08DE895E00E947709E114F10449F08F
:1022D000C70187709927892B21F484EE90E00E9432
:1022E0009D103FEFE31AF30A0C5F1F4F86E9E816D3
:1022F000F10451F687ED90E028960FB6F894DEBF12
:102300000FBECDBFDF91CF911F910F91FF90EF9046
:10231000DF90CF90BF90AF909F900C949D1088E07D
:10232000E8E1F1E0DE01119601900D928A95E1F766
:1023300010911206812F8770682F70E01695169500
:10234000169581111F5F8DE895E00E9409116EE4DA
:1023500071E08DE895E00E948E10E0911206E77022
:1023600021E030E02C0F3D1F2E0F311DF90160815F
:102370008DE895E00E94FC106BE471E08DE895E03B
:102380000E948E10E0911206E7700FEF41F081E09D
:1023900090E08C0F9D1F8E0F911DFC01008183EB3F
:1023A00090E00E949D10F12CE12CE12FE150FF0BF9
:1023B0005F01E116C8F5912CC70124E0880F991F31
:1023C0002A95E1F79C0123513A4F6901809111064A
:1023D0009816D0F4F601E90DF11D6181EA14FB04B1
:1023E00064F48DE895E00E94FC1061EB70E08DE8EC
:1023F00095E00E9477099394E9CF602370E08DE81F
:1024000095E00E940911F1CF8091120686958150C6
:10241000990BE816F90624F480EB90E00E949D10D9
:102420003FEFE31AF30AC5CF8CEA90E065CFFF9245
:102430000F931F93CF93DF93EC01F62E0881198140
:10244000C8010E949127F81621F06F2DC8010E9443
:102450009927CE01DF91CF911F910F91FF900895A1
:102460001F920F920FB60F9211248F939F9380911A
:10247000E1009091E100937F9093E10083FF0FC012
:102480001092E90091E09093EB001092EC0092E33F
:102490009093ED001092870198E09093F00082FFF6
:1024A00022C093E09093E9009091F200992319F0F3
:1024B0009AE39093E80090916F01992341F09091F5
:1024C0006F01915090936F01911101C05D9A9091AD
:1024D0008601992341F09091860191509093860155
:1024E000911101C0289A84FF18C08091E2008E7E6D
:1024F00081608093E2008091E1008F7E8093E10013
:10250000809170018E7E8061809370019F918F9188
:102510000F900FBE0F901F90189580FFF7CF8091FE
:10252000E2008E7E80618093E2008091E1008E7EE9
:102530008093E100809170018E7E8160E5CF1F92D3
:102540000F920FB60F921124CF92DF92EF92FF926B
:102550000F931F932F933F934F935F936F937F93AB
:102560008F939F93AF93BF93EF93FF93CF93DF939B
:10257000CDB7DEB76C97DEBFCDBF1092E90080917A
:10258000E80083FF25C068E0CE0145960E946A09F5
:1025900082EF8093E8008D8987FF39C09091E80031
:1025A00090FFFCCF982F907609F034C19E894F8917
:1025B000588D2F89F88C911131C0803861F5809148
:1025C00071018093F1001092F1008EEF8093E8008A
:1025D0006C960FB6F894DEBF0FBECDBFDF91CF91E2
:1025E000FF91EF91BF91AF919F918F917F916F91EB
:1025F0005F914F913F912F911F910F91FF90EF901D
:10260000DF90CF900F900FBE0F901F9018959EEF08
:102610009093E800C7CF1092F100D5CF913059F4D4
:102620008111D3CF4130510581F6809171018D7FA9
:1026300080937101CACF933049F48111C6CF4130E4
:10264000510519F6809171018260F2CF953041F405
:102650008091E80080FFFCCF20682093E300B5CF95
:10266000963009F0A9C00B8D1C8D22E01092E90074
:1026700010926D0110926C01F2122EC010926B013B
:1026800010926A010E9439091F8299E09983FA82A7
:1026900091E09E8390EA98879AEF998720916C0148
:1026A00030916D01275F3F4F3C832B838D831092C8
:1026B000E90010926D0110926C0110936B01009370
:1026C0006A0149E050E0BE016F5F7F4F80E00E94E9
:1026D00013090E94390979CF10936B0100936A01A5
:1026E0000E94D108DC0112960D911C910115110573
:1026F00009F451C1D801ED91FC910480F581E02DE0
:10270000BE016B5E7F4FC8010995009709F03EC17D
:10271000F80100851185EACFF3E0FF120EC08F8922
:10272000882309F440C0823061F440E860E18CE322
:1027300092E00E947C15811148CF81E28093EB00EA
:1027400047CF813029F440E86BE080E392E0F1CF9D
:10275000833099F70E94D108DC011296ED90FC902D
:102760008E010F5F1F4F6801E114F10479F0D7016A
:10277000ED91FC910680F781E02DB801C701099524
:10278000080F111DF701E084F184EECFD8011C92EF
:10279000F60101900020E9F73197BF016C197D091E
:1027A00040E0C601C6CF6AE172E0FB01449150E00F
:1027B00080E80E94130909CF973009F4BECF983002
:1027C00021F481E08093F10000CF993009F0FDCE33
:1027D000837009F0B2CFE1E2F1E081E031E096E30D
:1027E0002191222371F08093E9003093EB00DF0107
:1027F00011972C912093EC009093ED008F5F873020
:1028000079F78EE78093EA001092EA008F8980932F
:102810008701DBCE8B8D9C8D1092E90010926D01AB
:1028200010926C0190936B0180936A01898D8111E4
:1028300092C08E899D89913A49F4813209F07DCF09
:1028400047E050E064E071E080E0B3CF913209F0FE
:1028500074CF833269F48F89988DB0E0A0E08093C3
:10286000000190930101A0930201B0930301ADCE4A
:10287000803269F48091E80082FFFCCF67E084E059
:1028800091E00E946A098BEF8093E8009ECE82322D
:1028900009F09BCE8F8980930B01EEEFFFE78591C6
:1028A00094918B3F9C4D51F1E0E0F8E08091040160
:1028B00090910501A0910601B0910701803B9440E1
:1028C000A105B105F1F480910B0180FD1AC0EE3F26
:1028D0008AE0F80789F587E797E7918380838091FD
:1028E000600080936E0188E19BE00FB6F894A89594
:1028F000809360000FBE9093600067CEEEEFFAE029
:10290000D5CF808191818737974709F05ECEA89512
:102910008091600088618093600080916E01809357
:102920006000EE3F2AE0F20789F08091FE0A909164
:10293000FF0A9183808349CE8081918187379807F0
:1029400051F29093FF0A8093FE0AC5CF1092FF0ABE
:102950001092FE0A3ACE0E94D108DC0112960D9127
:102960001C910115110509F4E8CED801ED91FC91F7
:102970000190F081E02DBE016B5E7F4FC80109958B
:10298000811123CEF80100851185EBCF18161906A9
:102990000CF41BCED2CEF1E0FF12BECE6EE172E09F
:1029A00004CF1F920F920FB60F9211242F933F93D3
:1029B0008F939F93AF93BF93809173019091740114
:1029C000A0917501B09176013091650123E0230F4C
:1029D0002D3758F50196A11DB11D209365018093F7
:1029E000730190937401A0937501B0937601809167
:1029F000660190916701A0916801B091690101960B
:102A0000A11DB11D8093660190936701A093680199
:102A1000B0936901BF91AF919F918F913F912F9199
:102A20000F900FBE0F901F90189526E8230F029667
:102A3000A11DB11DD2CF1F920F920FB60F9211247C
:102A40002F933F934F935F936F937F938F939F93B6
:102A5000AF93BF93EF93FF938091610190916201D7
:102A6000A0916301B0916401892B8A2B8B2B09F40F
:102A700040C08091600181110BC088B190E489272A
:102A800088B980915F01882319F088B1805888B98E
:102A90008091610190916201A0916301B091640104
:102AA000181619061A061B069CF480916101909174
:102AB0006201A0916301B09164010197A109B1097C
:102AC0008093610190936201A0936301B0936401CC
:102AD000FF91EF91BF91AF919F918F917F916F91F6
:102AE0005F914F913F912F910F900FBE0F901F90CC
:102AF00018950E948E0EECCFEF92FF920F931F93CA
:102B0000CF93DF93F82E192FE62E042F81E0860F46
:102B1000880F0E94E50883E00E94E508CF2DD12FA1
:102B2000EC0EFD2EF11CCE15DF05B9F007FF13C02A
:102B3000FE0184910E94E508182F80E00E94E508BC
:102B4000812321968111EFCFDF91CF911F910F91BA
:102B5000FF90EF9008958881EDCF81E0F5CFEDE80B
:102B6000F5E01382128288EE93E0A0E0B0E0848367
:102B70009583A683B7838BE291E0918380838FEF67
:102B80009FEF95878487EFE7F8E01582168280E152
:102B9000878314821382118629E431E031832083F4
:102BA00021E538E03093EC052093EB0520E030E898
:102BB0003093EA052093E90546983E9A47983F9A54
:102BC000E5E7F8E0138212822DE331E031832083C0
:102BD00098E0918791E090871582168214829783FE
:102BE000E5E1F6E028E532E0DF01A9011D92415060
:102BF0005040E1F710926D0810926F0810926E0825
:102C000010927008109271082DE730E0309373082D
:102C10002093720893E090937408EDEEF5E011A212
:102C200013A212A284A385A316A20895CF93DF93C3
:102C300000D000D000D0CDB7DEB7789484B58260E4
:102C400084BD84B5816084BD85B5826085BD85B550
:102C5000816085BD80916E00816080936E001092CE
:102C60008100809181008260809381008091810049
:102C700081608093810080918000816080938000DA
:102C80008091910082608093910080919100816099
:102C9000809391008091900081608093900080915A
:102CA000C10084608093C1008091C10082608093E4
:102CB000C1008091C10081608093C1008091C300F8
:102CC00081608093C3008091C00082608093C000C7
:102CD0008091C20081608093C20080917A008460FC
:102CE00080937A0080917A00826080937A0080914C
:102CF0007A00816080937A0080917A008068809366
:102D00007A001092870110927101109270018091E7
:102D1000D70081608093D70080EA8093D80089B57E
:102D2000806189BD89B5826089BD09B400FEFDCF8F
:102D300061E070E080E090E00E946E0A8091D8002F
:102D40008F7C80618093D8008091E000807F8093A9
:102D5000E0008091E1008E7E8093E1008DE0809321
:102D6000E200559A209A81EC80937C0085B1806FB7
:102D700085B984B1877E84B984B1876E84B95E9A3F
:102D80005F988AB1806D8AB9769A6E9881B3806FA8
:102D900081BB899880B38D7080BB80E58CBD81E05C
:102DA0008DBD0E94A10A5F9A0E94A10A5E985C985C
:102DB000EDE4F2E08AE592E024912EBD00000DB42E
:102DC00007FEFDCF31968E179F07B1F75C9A81E819
:102DD00080936400809165008160809365000E940B
:102DE000680D87FF15C05C9885EA8EBD00000DB4A4
:102DF00007FEFDCF5C9A2E982F982D988091640045
:102E000080628093640081E083BF889513BEFCCF0D
:102E1000809164008E7F8093640080917A0080644A
:102E200080937A0080917A0086FDFCCF0091780033
:102E3000109179000E94490AAB01BC01C801B0E0C1
:102E4000A0E0DC01992788278C019D01040F151F44
:102E5000261F371FC901B80120916400216020930B
:102E60006400611571058105910511F00E948827A4
:102E70003E9A3F9A81E0809372010E94820F8FB741
:102E8000F8944091730150917401609175017091B3
:102E900076018FBF80918708942F981B80918808B6
:102EA000882359F0909389081092880880E090E078
:102EB000892B29F30E940000E2CF20918608921707
:102EC00040F49F5F921790F781E083BF889513BE0F
:102ED000EDCFEE24E394E092880840938708209198
:102EE0008208309183082F5F3F4F309383082093EF
:102EF0008208E8E8F1E081118FEF0024819381934B
:102F0000819381930394D1F78091840880938508FD
:102F10000E94680D8093840890917901913009F4A2
:102F20008AC0B8F0923009F4A1C0933011F40C9427
:102F3000B121E8E8F1E081E0A0E0B8E000800EBC5B
:102F40008111012C1197A0FDFDCF0192B9F70DB4AD
:102F5000ADCF909185089095892371F0809178018B
:102F6000882319F08CE78093780180917801811192
:102F700007C081E08093780180917801882341F037
:102F80008F5F809378018D3719F481E08093790108
:102F900045E250E161E170E08FE290E00E94470D70
:102FA00047E050E16AE170E08BE290E00E94470D5B
:102FB00047E050E16AE170E089E490E00E94470D4B
:102FC00010917801111111C047E050E16AE170E001
:102FD0008AE390E00E94470D47EB5FE06EE270E00D
:102FE0008AE190E00E94470DA4CF49E95FE06AE1E1
:102FF00070E08AE390E00E94470D46E75FE06EE2F2
:1030000070E08CE290E00E94470D812F6FE00E94FB
:103010000A288370E82E0FE410E0F12CEF1409F475
:1030200088CF41E061E370E0C8010E94880DF3940D
:103030000E5F1F4FF3CF88E00E948B08882329F092
:1030400082E0809379010E94820F84E00E948B08C5
:10305000882329F083E0809379010E94820F44E75E
:103060005BE070E060E090E080E0BCCFF0906D0845
:1030700080917008823308F061C30F2D10E088E062
:103080000E948B088823D1F0C801880F991F880FF0
:10309000991F8B5E994F0E945A0FE09271080E940F
:1030A000680D83FF1092710884E00E948B088823CA
:1030B00009F4C8C081E080937008FEC00E94680DCA
:1030C00083FFEDCF80917108882319F08F5F809383
:1030D000710880E20E948B088823B9F01092710871
:1030E000000F111F000F111FF801EC5EF94F8381D3
:1030F000948120917208309173082817390778F667
:10310000821B930B94838383CACF80E40E948B0835
:103110008823E1F010927108000F111F000F111F9A
:10312000F801EC5EF94F838194812091720830910F
:103130007308A90163E0440F551F6A95E1F78417EE
:10314000950708F0ACCF820F931FDCCF80E80E9478
:103150008B08882369F180916E0890916F08892B04
:1031600009F49DCF000F111F000F111F0C5E194FA6
:10317000D80111966D917C91809174080E94EB0F9B
:10318000F8019283818360916E0870916F0880913D
:1031900074080E94EB0F90936F0880936E08109252
:1031A0007108D80111968D919C910E943C0F77CFA8
:1031B00080E10E948B08882359F180916E089091DC
:1031C0006F08892B09F46BCF000F111F000F111F1F
:1031D0000C5E194FF80161817281809174080E9420
:1031E000BE0FD80112969C938E93119760916E0832
:1031F00070916F08809174080E94BE0F90936F08C1
:1032000080936E0810927108F80181819281CDCF70
:10321000809171088A3108F442CF000F111F000F0E
:10322000111FF801EC5EF94F81819281813000E835
:10323000900730F09F7792838183109271082FCF8F
:103240009068F9CF0E94680D82FF36C080E40E942A
:103250008B08882309F4EBC010927008E5E6F8E0CB
:1032600024E930E080916D0890E02817390760F07C
:1032700080819181A281B38184839583A683B78362
:10328000215031093497EECFFC01EE0FFF1FEE0FF6
:10329000FF1FE85EF94F21813281880F991F880F47
:1032A000991FFC01EC5EF94F3283218380917208F3
:1032B00090917308948383830E94680D82FF10921B
:1032C00070080E94680D83FD67C10E94680D82FD31
:1032D00063C180E20E948B088823C1F0E0916D08F1
:1032E000EE23A1F0E150E0936D0824E0E29FF001AD
:1032F0001124EC5EF94F349785819681811530E871
:103300009307C9F390936F0880936E0880E40E943E
:103310008B08882309F44AC020916D08211107C049
:1033200080911506909116068115904821F48FEF33
:10333000820F833938F52F5F20936D0830E0C90183
:10334000880F991F880F991FFC01EC5EF94F349785
:1033500045815681411560E85607C9F350936F08BF
:1033600040936E08220F331F220F331FF901EC5ECA
:10337000F94F218132812115304821F48B5E994F1C
:103380000E945A0F80916E0890916F08892B71F4FA
:10339000E09174088EE1E89FF0011124EE56F54F9C
:1033A0008591949190936F0880936E0880E80E94B5
:1033B0008B08882309F49AC0E0916D08E1117FC061
:1033C00080911506909116068115904869F4F4E0F5
:1033D000EF9FD0011124A85EB94F11968D919C9159
:1033E0008115904809F06EC0EF5FE0936D0814E01E
:1033F000E19FF0011124EC5EF94F349765817681ED
:10340000611520E87207C9F3809174080E94EB0FE0
:1034100090936F0880936E0880916D0834E0839FCD
:10342000C00111248B5E994F0E945A0F4BC080E25D
:103430000E948B088823F1F0E0916D08EE23D1F013
:10344000109270088E2F90E0DC01AA0FBB1FAA0F0C
:10345000BB1FAB5EB94F85399105C8F40196149630
:103460004D915D916D917C9117974D935D936D9307
:103470007D93F1CF80917008823308F01DCF0E94B8
:10348000680D82FF19CF809170088F5F14CE8091F4
:103490007208909173089093700880936F08E150C0
:1034A000E0936D0814E0E19FF0011124EC5EF94F08
:1034B0008181928190936F0880936E08FDCEE439EC
:1034C00008F485CF80916E0890916F08892B71F474
:1034D000E09174084EE1E49FF0011124EE56F54F9F
:1034E0008591949190936F0880936E0880E10E947B
:1034F0008B08882309F450C0E0916D08E11136C0B3
:1035000080911506909116068115904861F464E04B
:10351000E69FD0011124A85EB94F11968D919C9120
:103520008115904829F5EF5FE0936D0884E0E89FEE
:10353000F0011124EC5EF94F3497658176816115B5
:1035400090E87907C9F3809174080E94BE0F9093A8
:103550006F0880936E0880916D08A4E08A9FC00177
:1035600011248B5E994F0E945A0F02C0E43978F201
:1035700080916E0890916F08892B71F4E091740826
:10358000BEE1EB9FF0011124EE56F54F8591949129
:1035900090936F0880936E0840E860E170E090E0DF
:1035A00080E00E94540840E868E170E090E080E02C
:1035B0000E94540840E860E270E090E080E00E94E1
:1035C000540840E868E270E090E080E00E9454080F
:1035D00040E860E370E090E080E00E945408809151
:1035E00082089091830860E370E00E941628D82E2C
:1035F000A0906D08B12CC501880F991F880F991FE5
:10360000BC016C5E794F7C836B83A2E48A2E912C83
:1036100080916D0890E09C01245F3F4FA216B30695
:10362000F8F4AB81BC8111966D907C901297139643
:103630004D905C90A816B90639F46114710421F418
:1036400060906E0870906F086114B0E87B0609F016
:1036500029C325E243E06EE070E0C4010E94DC0D66
:1036600020916D0830E03901B1E06B1A7108C90191
:10367000880F991F880F991FFC01EC5EF94F1F01FD
:103680004CEF42038001439F100D11241C830B83D8
:1036900062E4A62EB12C9C01235031093E832D8378
:1036A00080916D088751990B681679060CF475C4E2
:1036B000EB81FC81E20DF31D4D815E81E40FF51F6E
:1036C00040805180F101319780809180B2018091DA
:1036D00074080E941A1018160CF0D5C310E0E82EDA
:1036E000880FFF08212F30E06091720870917308F5
:1036F000C4010E941628E216F3060CF4F5C384E018
:1037000090E0821B930B9C01220F331F220F331F6B
:103710002034310588F48FEF860F482F440F480F6F
:10372000440F475F0AEF0603C00111248A0D9B1D59
:10373000B90102970E9454081E5FD4CF80910C01FA
:10374000813009F4DEC0B8F0823009F492C28330CF
:1037500009F022CF80E20E948B08882319F082E0D2
:1037600080930C0180E40E948B08882309F491C2A5
:1037700010920C018EC280E20E948B08882319F0FF
:1037800083E080930C0180E40E948B08882319F069
:1037900081E080930C0180E80E948B08882339F037
:1037A00080910D01882319F0815080930D0180E1F3
:1037B0000E948B08882399F080910D01843078F461
:1037C0008230E1F5BE016F5F7F4F82E390E00E949F
:1037D00084108981833619F483E080930D0184E09D
:1037E0000E948B0881111092700888E00E948B085B
:1037F000882309F4D1CE80910D01823009F44AC0AA
:10380000F8F4882399F1813009F0C6CE80916D08D3
:10381000F4E08F9FC00111248B5E994F20917100BD
:103820002D7F2093710010928C0590938B058093CF
:103830008A05909389058093880529C08F5FCDCF35
:10384000833009F440C0843009F0A6CE82E390E0D2
:103850009A83898364E6CE0101960E94171280E262
:103860008093140682E080930D0196CE80917100C2
:103870008D7F8093710010928C05E5E1F6E0F09366
:103880008B05E0938A05F0938905E09388050E94F3
:103890008E0E82CE83E68093140634E1E32E36E06A
:1038A000F32E02E310E01A830983D7016D917D01A5
:1038B000CE0101960E9417120F5F1F4F0339B2E02D
:1038C0001B0789F769CEBE016F5F7F4F82E390E0EF
:1038D0000E9484108981833609F05ECE24E1E22EB5
:1038E00026E0F22E02E310E0C8010E949127F701C2
:1038F00081937F010F5F1F4F0339F2E01F07A1F78C
:103900004BCE80E20E948B0810910F01882321F09A
:10391000143011F410920C0180E40E948B0888236B
:1039200029F0143019F482E080930C0180E80E94A1
:103930008B08882349F080910E01882329F01430E8
:1039400019F4815080930E0180E10E948B08882336
:1039500059F180910E01843038F5143039F58F5FBC
:1039600080930E0188E00E948B08882389F084E010
:10397000143009F07BC180910E01823009F462C1DC
:1039800008F474C1833009F460C1843009F460C163
:1039900084E00E948B08882309F4FECD1092700801
:1039A00084E080930F01F8CD1430E1F280E20E94B0
:1039B0008B08882341F080910E01882309F466C0AA
:1039C000813009F4A4C080E40E948B08882351F25E
:1039D00080910E01882309F4F7C0813019F62091F7
:1039E0007408273008F0BECF81E0820F80937408FE
:1039F0005FE0259F9001112459016FE0A60EB11CD4
:103A0000A4E1B6E074E0F79EC00111248C5E994FEA
:103A100011966D917C9112977F776115710571F107
:103A200050E040E0042FF901E40FF51FEE0FFF1FF7
:103A3000EC57F54FE590F490E616F70631F04F5F3E
:103A40005F4F4F30510571F700E0F501E00FF11DB8
:103A5000EE0FFF1FEC57F54F4591549112965C9372
:103A60004E931197FC01349745815681411500E82A
:103A70005007C9F350936F0840936E0814964CE6B4
:103A800058E04A175B0709F0C3CF6CCF209172084A
:103A900030917308E4E7FAE090E080E05491521727
:103AA000130679F5863029F0FC01EE0FFF1FEA5866
:103AB000F54FE491F0E02E173F0709F484CFF0931F
:103AC0007308E093720884E1A82E86E0B82ED50131
:103AD00013968D919C91B9010E9416286E9FC0018A
:103AE0006F9F900D1124D50114969C938E9313977C
:103AF000B4E0AB0EB11C4CE658E04A155B0539F753
:103B000062CF019632968730910541F65CCF809165
:103B10007408282F30E02115310509F454CF9FEFA8
:103B2000980F909374084FE0849FC0011124215096
:103B30003109429F5001439FB00C1124A4E1B6E02B
:103B400054E0F59EB00111246C5E794F11964D91B1
:103B50005C9112975F774115510571F130E020E0DB
:103B6000022FF901E80FF91FEE0FFF1FEC57F54F79
:103B7000859094908416950631F02F5F3F4F2F303B
:103B8000310571F700E0F501E00FF11DEE0FFF1FA9
:103B9000EC57F54F2591349112963C932E93119743
:103BA000FB01349725813681211500E83007C9F3E0
:103BB00030936F0820936E0814962CE638E02A178D
:103BC0003B0709F0C3CFFFCEE0907208F090730876
:103BD000E4E7FAE090E080E034913E151F0461F5DF
:103BE000882329F0FC01EE0FFF1FEE58F54FE491FA
:103BF000F0E0EE16FF0609F4B5CEF0937308E093FB
:103C0000720824E136E0D90113968D919C91B70199
:103C10000E9416286E9FC0016F9F900D1124D9013C
:103C200014969C938E9313972C5F3F4F4CE658E06D
:103C30004217530741F796CE019632968730910589
:103C400059F690CE0E94820FA3CE0E941011A0CEF2
:103C500010930F0110920C0110920D0110920E01A1
:103C60001092700881E08093790192CE80930F01C9
:103C70008FCE80E20E948B08882319F081E0809328
:103C80000C0180E40E948B08882319F083E0809364
:103C90000C0184E00E948B08882309F47DCC1092EB
:103CA00070087ACCB301809174080E941A1018161B
:103CB00064F510E0E82E880FFF081401E2E02E1AE8
:103CC0003108812F90E0E816F9060CF44CC024E08E
:103CD00030E0281B390B220F331F220F331F2034F3
:103CE000310588F46091720870917308C2010E94D6
:103CF00016286150462F440F460F440F475FB90105
:103D0000C1010E9454081E5FDCCF882361F110E0DE
:103D1000282F332721950CF430951901740132E0D6
:103D2000E31AF108212F30E022163306E4F0245F75
:103D30003F4F220F331F220F331F203431058CF4E5
:103D40006091720870917308C2010E941628615038
:103D5000462F440F460F440F475FB901C7010E9429
:103D600054081E5FDFCF4114510491F180916D081A
:103D700090E0A816B90611F548E14D1510F16091D3
:103D8000720870917308C2010E941628FF24FA94E9
:103D9000F60E80917408B30177FC51C00E943D106B
:103DA000682F70E0CC24C394EF2C02E717E02F2D8E
:103DB00042EF58E0C4010E942C0B0AC08A159B05F3
:103DC000F0F280916E0890916F0868167906B9F646
:103DD00080916D088A151B04E9F458E15D15D0F453
:103DE000E0916E08F0916F0820917408411451041D
:103DF00099F5BF01822F0E943D10682F70E0CC24FE
:103E0000C394E12C02E717E020E04EE654E0C40141
:103E10000E942C0B6091720870917308C2010E947D
:103E2000162876E0679F800C911C11248FEFA81A4A
:103E3000B80AAB81BC811496BC83AB83E9CB0E94EA
:103E40003D10682F70E0CC24C394EF2C02E717E0FC
:103E50002F2D40EF55E0AECF60917208709173083E
:103E6000C2010E941628FF24FA94F60EBF01822F89
:103E70000E943D10682F70E0CC24C394EF2C02E721
:103E800017E02F2DC2CF882379F110E0282F332798
:103E900021950CF430957901212F30E06091720862
:103EA00070917308C4010E941628E216F306E4F02C
:103EB000245F3F4F220F331F220F331F2034310561
:103EC0008CF48FEF860F482F440F480F440F475F45
:103ED0005AEF5603C00111248A0D9B1DB9010297A8
:103EE0000E9454081E5FD8CF77FC2BC060917208E7
:103EF00070917308C4010E941628FF24FA94F60EEC
:103F000080917408B20157FC30C00E943D10E82F28
:103F1000F0E06091720870917308C4010E94162845
:103F20007AEF7603C0011124CC24C394EF2C02E76E
:103F300017E02F2D42EF58E0BF018A0D9B1D0E9414
:103F40002C0B6091720870917308C4010E941628AE
:103F50001AEF1603B0011124A60EB71E21E0621A53
:103F6000710834E0231A31089BCB0E943D10E82FE2
:103F7000F0E06091720870917308C4010E941628E5
:103F80000AEF0603C0011124CC24C394EF2C02E7EE
:103F900017E02F2D40EF55E0CFCF8091700882338E
:103FA00009F053C000E020E44DE470E060E083E3FA
:103FB00090E00E94BA0D01E028E04CE470E060E07F
:103FC00084E390E00E94BA0D20E44CE470E060E0ED
:103FD00084E390E00E94DC0D20E049E654E062E0DA
:103FE00070E085E790E00E94580D20E044E654E040
:103FF00062E070E089E790E00E94580D86E38093CC
:104000007A088093790800937B0810927C086CE50D
:1040100074E085E798E00E9477091AE310937A0824
:10402000109379088BE0F82EF0927B0800937C08BF
:1040300080910C01813009F4C0C008F47FC0823047
:1040400009F45DC1833009F484C100E028E04EE149
:104050006FEF7FEF8FEF9FEF0E94BA0D01E027E037
:104060004CE170E060E090E080E00E94BA0D11E069
:1040700010937A081093790810927B0810927C08AC
:104080006FEF72E085E798E00E947709609174080D
:1040900070E06F5F7F4F85E798E00E94091100E0B4
:1040A00028E04EE168E370E08FEF9FEF0E94BA0DC9
:1040B00001E027E04CE169E370E090E080E00E94DD
:1040C000BA0D10937A081093790889E380937B08DE
:1040D00010927C0880916D08893030F46DEF72E0A9
:1040E00085E798E00E94770980916D08833630F467
:1040F0006BEF72E085E798E00E94770960916D08A8
:1041000070E06F5F7F4F85E798E00E94091180E1C2
:1041100080937A088093790889E380937B0866E925
:1041200070E085E798E00E94091140E06CE370E0E0
:104130008EE090E00E94700D0C9499176BE474E08F
:1041400085E798E00E94770969E374E085E798E0E5
:104150000E94770910937A08109379088FE1809371
:104160007B0869E274E085E798E00E947709BE0168
:104170006F5F7F4F82E390E00E948410898166E048
:1041800074E0833641F467E174E085E798E00E94CB
:10419000770969E074E085E798E00E947709E0918B
:1041A0000D01F0E0EF5FFB4F649170E021E045E02E
:1041B00087E390E00E94910D48CF69EF73E085E7B7
:1041C00098E00E94770980910F0181117FC049E634
:1041D00054E06CE070E085E590E00E94470D44E615
:1041E00054E06CE070E080E790E00E94470D01E051
:1041F00027E044E16BE070E08AE590E00E94BA0DB0
:104200008EE580937A0880937908F0927B0810926B
:104210007C08609172087091730885E798E00E94AD
:10422000031181E080937C088AE380937A0880936D
:10423000790813E1F12EF0927B0861EF73E085E7D6
:1042400098E00E94770910910F01113009F04DC0DC
:1042500049E654E064E170E085E590E00E94470D96
:1042600044E654E064E170E087E690E00E94470D88
:1042700001E027E04BE063E170E08AE590E00E9416
:10428000BA0D8EE580937A0880937908F0927B08C6
:1042900010927C086091740870E06F5F7F4F85E733
:1042A00098E00E94091110937C088AE380937A08B1
:1042B000809379088FE180937B0866EC73E085E753
:1042C00098E00E947709E0910E016BCF609172082F
:1042D0007091730885E798E00E94031160E571E032
:1042E00085E798E00E948E109CCF6091740870E082
:1042F0006F5F7F4F85E798E00E940911D6CF88E372
:1043000080937A088093790864EB73E085E798E0FE
:104310000E94770962EA73E085E798E00E947709D6
:1043200064E973E085E798E00E94770964E873E048
:1043300085E798E00E94770962E773E085E798E0F7
:104340000E9477096DE573E085E798E00E947709A0
:104350007CCE88E380937A088093790866E073E0E6
:10436000F3CF80911306823308F014C188E00E94D5
:104370008B08882361F180910F0690911006FC0153
:10438000A3E0F695E795AA95E1F720910E06B4E033
:10439000EE0FFF1FBA95E1F7E351FA4FE20FF11D5F
:1043A00021818770992741E050E002C0440F551FDA
:1043B0008A95E2F7CA01422F50E048235923452B42
:1043C00009F49EC0809582238183109277010E9418
:1043D000680D83FF9AC080E80E948B08882379F0DB
:1043E00080910F0690911006009749F001979093E5
:1043F000100680930F06809177010E945D1080E186
:104400000E948B088823A1F080910F0690911006DE
:10441000209112062150330B8217930748F401961E
:104420009093100680930F06809177010E945D1093
:1044300080E20E948B08882359F080910E06882321
:1044400039F0815080930E06809177010E945D10B3
:1044500080E40E948B08882381F080910E062091D1
:1044600011062150330B821713063CF48F5F8093A3
:104470000E06809177010E945D1084E00E948B08F7
:10448000882319F081E0809313068091130682330C
:1044900048F40E94680D82FF05C0809113068F5F6B
:1044A000809313060E94680D82FF1092130600E0AD
:1044B00028E043E26FEF7FEF8FEF9FEF0E94BA0D8E
:1044C00001E027E041E270E060E090E080E00E94DF
:1044D000BA0D21E040E470E060E082E290E00E94EA
:1044E000910D20910E0680910F06909110062A30B2
:1044F00008F0E4C10A9708F0E4C195E080E0E3C168
:10450000822B8183E092770162CF80E80E948B0842
:10451000882359F080910F0690911006009729F09A
:1045200001979093100680930F0680E10E948B08FC
:10453000882381F080910F06909110062091120639
:104540002150330B8217930728F40196909310069D
:1045500080930F0680E20E948B08882339F08091B7
:104560000E06882319F0815080930E0680E40E9485
:104570008B08882309F481CF80910E0620911106C3
:104580002150330B821713060CF077CF8F5F809387
:104590000E0673CF80911001882309F455C0813035
:1045A00009F085CF80E20E948B08109113018823C7
:1045B00021F0143011F41092100180E40E948B0855
:1045C000882321F0143011F41092100180E80E9429
:1045D0008B08882349F080911201882329F0143038
:1045E00019F481508093120180E10E948B08882386
:1045F00009F4FDC080911201833008F0F8C0143036
:1046000009F0F8C08F5F8093120188E00E948B0848
:10461000882371F084E0143009F03EC180911201CA
:10462000823009F43CC108F436C1833009F43AC140
:1046300084E00E948B08882309F439CF1092130676
:1046400084E08093130133CF80E20E948B088111B4
:10465000E092100180E40E948B08882319F081E029
:104660008093100180E80E948B088823B9F0809124
:104670001101882399F0833009F05EC0BE016F5F9D
:104680007F4F82E593E00E9484108981833621F474
:1046900082E08093110102C01092110180E10E941A
:1046A0008B08882399F080911101843078F481116E
:1046B00047C0BE016F5F7F4F82E593E00E94841088
:1046C00089818336D9F581E08093110184E00E94CD
:1046D0008B0881111092130688E00E948B088823B2
:1046E00009F4E5CE80911101823009F471C050F5D2
:1046F000882309F454C0813009F0D9CEBE016F5F20
:104700007F4F82E593E00E9484108981833609F00F
:10471000CECE6DEEE62E65E0F62E02E513E0C80182
:104720000E949127F70181937F010F5F1F4F093787
:10473000F3E01F07A1F7BBCE8150ABCF83E0C4CF1E
:104740008F5FC2CF8330D1F0843009F0B0CEADEEB0
:10475000B5E0FD01818180958183319655E0ED3F83
:10476000F507C1F751968C915197809551968C938E
:1047700051971196EA17FB07A9F799CEEEEEF5E0EF
:104780008EEF95E011928E179F07E1F7EEEFF5E0BF
:104790008EE096E011928E179F07E1F788CE83E6B0
:1047A0008093ED057DEEE72E75E0F72E02E513E030
:1047B0001A830983D7016D917D01CE0101960E9474
:1047C00017120F5F1F4F0937B3E01B0789F76FCE32
:1047D00082E593E09A83898364E6CE0101960E9484
:1047E000171280E28093ED051092110160CE143013
:1047F00009F40BCF80E20E948B08882331F080916E
:1048000012018823C1F0813039F180E40E948B08C5
:10481000882309F4FACE80911201882399F181301E
:1048200009F0F3CE80911206803108F0EECE8F5F52
:1048300080931206EACE80911106823018F08150E2
:104840008093110680910E06909111068913DDCF99
:10485000815080930E06D9CF80911206823018F0D5
:1048600081508093120680910F069091100620913E
:1048700012062817190649F601979093100680939F
:104880000F06C3CF80911106803108F0BECE8F5F36
:1048900080931106BACE8E5F80931301C9CE0E9419
:1048A0001011C6CE10931301109210011092120134
:1048B0001092130681E080937901BACE0A9708F02E
:1048C00096C092E082E0890F80937A0880937908FD
:1048D00010927B0810927C0864E571E085E798E00F
:1048E0000E948E1060910E0685E798E00E94FC10F1
:1048F00067E571E085E798E00E948E1060910F06F1
:104900007091100685E798E00E940311209112062D
:104910002C5F409111064C5F6AE270E082E090E00B
:104920000E94DC0DF12C80911206F81608F063C08D
:104930008F2C912C2401440C551C440C551C320125
:1049400003E0600E711C41E0B30184E290E00E943C
:10495000880D8F2D877022242394312C02C0220CC5
:10496000331C8A95E2F7D12C8F2D869586958695F6
:1049700010E1819FC00111249C0123513A4F3C83D7
:104980002B833CE2830E911C80911106D81688F58A
:10499000AD2CB12CEB81FC81EA0DFB1D818190E0F7
:1049A00082219321892BB9F0BAEFCB2EE12C10E0B4
:1049B00000E020E046EF52E0B201C501880F991FE8
:1049C000880F991F85960E942C0B41E0B401C50108
:1049D00004960E94880DC5010A9641E0B301880F34
:1049E000991F880F991F0E94880DD394CDCF92E014
:1049F00085CDF39498CF00910F06000F000F015062
:104A0000E0901106EE0CEE0CF12C10E08F2D90E0F2
:104A100041E0B80184960E94880DF394F394EF145A
:104A2000A8F700910F06000F000F0D5FE090110630
:104A3000EE0CEE0CF12C10E08F2D90E041E0B8016F
:104A400084960E94880DF394F394EF14A8F70091D4
:104A50000E06075F000F000FF0901206FF0CFF0C10
:104A6000FA94E12C10E06E2D70E06F5F7F4F41E013
:104A7000C8010E94880DE394E394FE14A0F700910E
:104A80000E06065F000F000FF0901206FF0CFF0CE1
:104A9000FA94E12C10E06E2D70E06F5F7F4F41E0E3
:104AA000C8010E94880DE394E394FE14A0F760917E
:104AB0000F0670911006660F771F660F771F21E0B3
:104AC00043E084E290E00E94910D60910F067091A6
:104AD0001006660F771F660F771F8091110690E012
:104AE000099621E043E0880F991F880F991F0E94C3
:104AF000910D6091120644E0649FB001112460346E
:104B0000710554F480910E0654E0859FC001112474
:104B100043E085960E94540860910F06709110063C
:104B2000660F771F660F771F6150710980910E061F
:104B300090E00996880F991F880F991F209182088D
:104B4000309183082F733327213208F4E0C025E029
:104B500045E00E94DC0D80911306823311F00C9425
:104B6000991700E020E44BE470E060E085E390E01A
:104B70000E94BA0D01E028E04AE470E060E086E3BC
:104B800090E00E94BA0D20E44AE470E060E086E321
:104B900090E00E94DC0D20E049E654E062E070E025
:104BA00085E790E00E94580D20E044E654E062E082
:104BB00070E089E790E00E94580D88E380937A08BE
:104BC0008093790800937B0810927C0867EE72E06E
:104BD00085E798E00E9477098CE380937A088093B8
:104BE00079081BE010937B0800937C0880911001EA
:104BF000882309F497C0813011F00C9499176BE861
:104C000072E085E798E00E94770980911301823075
:104C100009F0C9C049E654E06CE070E087E590E037
:104C20000E94470D44E654E06CE070E082E790E0BB
:104C30000E94470D01E027E044E16BE070E08CE565
:104C400090E00E94BA0D80E680937A0880937908FC
:104C500010937B0810927C086091110685E798E01C
:104C60000E94FC1081E080937C088CE380937A089A
:104C70008093790813E110937B086EE772E085E773
:104C800098E00E94770980911301833009F098C061
:104C900049E654E064E170E087E590E00E94470D4A
:104CA00044E654E064E170E082E790E00E94470D42
:104CB00001E027E044E163E170E08CE590E00E94D0
:104CC000BA0D80E680937A088093790810937B0868
:104CD00010927C086091120685E798E00E94FC1013
:104CE00081E080937C088CE380937A088093790834
:104CF0008FE180937B086AE572E085E798E00E9487
:104D00007709E0911201F0E0EF5FFB4F42C02AEF1C
:104D1000C22EE12C10E000E020E04FEE52E00E94B5
:104D20002C0B19CF67ED72E085E798E00E947709B8
:104D3000BE016F5F7F4F82E593E00E9484108981FE
:104D400064EB72E0833641F465EC72E085E798E04D
:104D50000E94770967EB72E085E798E00E94770987
:104D60008CE380937A088093790887E280937B08AC
:104D700067EA72E085E798E00E94770969E972E0E6
:104D800085E798E00E947709E0911101F0E0EC5688
:104D9000FD4F649170E021E045E089E390E00E94DE
:104DA000910D0C9499176091110685E798E00E9487
:104DB000FC1067E872E085E798E00E94770952CF1F
:104DC0006091120685E798E00E94FC106AE772E0A5
:104DD00085E798E00E94770983CF8F929F92AF92E8
:104DE000BF92CF92DF92EF92FF92CF93DF93EC01CD
:104DF000688179818A819B816115710581059105A1
:104E000021F464E279ED8BE597E02DE133EF41E0A9
:104E100050E00E94A72749015A019B01AC01A7EA73
:104E2000B1E40E94C6276B017C01ACEEB4EFA50192
:104E300094010E94D427C60ED71EE81EF91EF7FE65
:104E400006C081E0C81AD108E10880E8F80AC882E3
:104E5000D982EA82FB82C701B6019F77DF91CF91A9
:104E6000FF90EF90DF90CF90BF90AF909F908F908A
:104E700008958F929F92AF92BF92CF92DF92EF925E
:104E8000FF9260911401709115018091160190912B
:104E90001701611571058105910521F464E279ED31
:104EA0008BE597E02DE133EF41E050E00E94A7272A
:104EB00049015A019B01AC01A7EAB1E40E94C6274F
:104EC0006B017C01ACEEB4EFA50194010E94D427E4
:104ED000C60ED71EE81EF91EF7FE06C081E0C81AEE
:104EE000D108E10880E8F80AC0921401D0921501B7
:104EF000E0921601F0921701C701B6019F77FF906B
:104F0000EF90DF90CF90BF90AF909F908F900895DB
:104F1000609314017093150180931601909317010B
:104F20000895F999FECF92BD81BDF89A992780B571
:104F30000895262FF999FECF1FBA92BD81BD20BDDD
:104F40000FB6F894FA9AF99A0FBE01960895052EB5
:104F500097FB1EF400940E94BE2757FD07D00E94C5
:104F6000D92707FC03D04EF40C94BE2750954095EA
:104F7000309521953F4F4F4F5F4F08959095809505
:104F8000709561957F4F8F4F9F4F08950E94FB272B
:104F9000A59F900DB49F900DA49F800D911D11248D
:104FA0000895B7FF0C94C6270E94C627821B930B57
:104FB0000895A1E21A2EAA1BBB1BFD010DC0AA1F5A
:104FC000BB1FEE1FFF1FA217B307E407F50720F072
:104FD000A21BB30BE40BF50B661F771F881F991FED
:104FE0001A9469F760957095809590959B01AC0136
:104FF000BD01CF010895A29FB001B39FC001A39F3F
:10500000700D811D1124911DB29F700D811D112401
:10501000911D0895991B79E004C0991F961708F017
:10502000961B881F7A95C9F780950895AA1BBB1B0C
:1050300051E107C0AA1FBB1FA617B70710F0A61B98
:10504000B70B881F991F5A95A9F780959095BC01B9
:10505000CD010895EE0FFF1F0590F491E02D099406
:04506000F894FFCFF2
:10506400FFFFFFFF00E1000000000000000000045B
:105074000000000401000000000103070F1F3F7F30
:1050840000C1808100000000000000C809A70AE9EF
:1050940009DE092F0AED090B0A000000000D0E9B22
:1050A40009770E760E000000000C0E0D0A00200099
:0C50B400206D7300587E003A597E000009
:00000001FF
