:100000000C94DB070C9403080C9403080C9403086D
:100010000C9403080C9403080C9403080C94030834
:100020000C9403080C9403080C9478160C94E716AF
:100030000C9403080C9403080C9403080C94030814
:100040000C9403080C9403080C9403080C94030804
:100050000C9403080C9403080C9403080C941919CD
:100060000C9403080C9403080C9403080C940308E4
:100070000C9403080C9403080C9403080C940308D4
:100080000C9463190C9403080C9403080C94030853
:100090000C9403080C9403080C9403080C940308B4
:1000A0000C9403080C9403080C9403080705040E31
:1000B0001F001F0E0405071436773614422B20202C
:1000C00020202020496D61676520646F776E0A00EB
:1000D000422B202020202020496D6167652075700B
:1000E0000A00412B202020202020546F67676C6578
:1000F000202B206D6F76650A00412B2020202020C8
:1001000020546F67676C65202B206D6F76650A0041
:10011000412020202020202020546F67676C65201C
:10012000706978656C0A000C1420283038746F00F0
:10013000436F707920496D6167650A436C65617230
:1001400020496D6167650A436C65617220416C6C82
:1001500020496D616765730A496E7665727420493E
:100160006D6167650A002070780053697A652059CF
:100170003A20002070780053697A6520583A2000B0
:100180000C141C2830384578706F727420746F20FE
:1001900053657269616C0A52657475726E20746F72
:1001A000204D656E75000A0A00436C65617220453A
:1001B0004550524F4D0A004C6F61642066726F6D5E
:1001C00020454550524F4D0A005361766520746FAB
:1001D00020454550524F4D0A00544F4F4C424F5806
:1001E000000505110000001103030707071A051F8A
:1001F0000906001F051A001F1511000F100F001F20
:10020000001F1511000F181C0F11073E7F41554BA1
:100210007F3E00081C08001436773614207D3B0A08
:1002200000002C005B5D2050524F474D454D203D56
:10023000207B00636F6E73742075696E74385F7411
:10024000207069637475726500544F4E45535F4565
:100250004E44207D3B00002C20002C00636F6E7309
:10026000742075696E7431365F74207468656D65CD
:100270005B5D2050524F474D454D203D207B000394
:10028000081F051F1F151B1F11111F110E1F151110
:100290001F05011F111D1F041F001F0010101F1F2D
:1002A000041B1F10101F061F1F011F1F111F1F05FA
:1002B000071F311F1F051B17151D011F011F101FD1
:1002C0000F100F1F0C1F1B041B071C071915130C05
:1002D000121E1F120C1E12120C121F0C1A14041FD5
:1002E000052E2A1E1F021C001D00201D001F041ABF
:1002F000011F001E041E1E021E1E121E3E120C0CAA
:10030000123E1E020614120A020F121E101E0E10BA
:100310000E1E081E1A041A2E281E1A12161F111F4E
:10032000021F001D151711151F07041F17151D1F8C
:10033000151D01011F1F151F17151F0017000010A5
:1003400000081C08201800001400080B000202021C
:100350000100090400000102020000052400100150
:1003600005240101010424020605240600010705F5
:10037000810310004009040100020A000000070583
:100380000202400000070583024000000403090444
:1003900012010002EF0201404123368000010102F8
:1003A000030141726475696E6F204C4C43004172C9
:1003B0006475696E6F204C656F6E6172646F00D5F5
:1003C000F08D14A1C881CFD9F1AF20001A0D000023
:1003D0003E083E00182418003E0018283E00003E4B
:1003E0007F41554B7F3E00001F05010C120C001E83
:1003F0000400001F061F000C1A14001E061C001E1D
:10040000101E3000300052616E67652000546F206E
:10041000696E636C756465206120726573742C0A63
:1004200073656C65637420616E20657869737469A7
:100430006E670A6E6F7465207468656E20707265F1
:10044000737320616E640A686F6C64207468652041
:100450004120627574746F6E0A746F20746F6767E1
:100460006C652E00422B522020496E7365727420F9
:1004700061206E6F74650A0A00422B4C202044658F
:100480006C657465206E6F74650A00412B442020F2
:100490004D6F766520646F776E0A00412B552020E2
:1004A0004D6F76652075700A00412B5220204578EB
:1004B00074656E64206E6F74650A00412B4C2020B9
:1004C000536872696E6B206E6F74650A000C14209D
:1004D000283452657475726E20746F204D656E7588
:1004E00000436C6561722054756E650A4578706FC3
:1004F000727420746F2053657269616C0052616E72
:1005000067653A200054656D706F3A20000C142026
:1005100028300A0A00436C65617220454550524FED
:100520004D0A004C6F61642066726F6D2045455026
:10053000524F4D0A005361766520746F2045455037
:10054000524F4D0A00506C61792066726F6D2063C6
:100550007572736F720A00506C61792066726F6DEC
:100560002073746172740A00544F4F4C424F58000C
:1005700003051F0E040305040E1F30050E11111193
:100580000E0000000000000000000000000000005D
:10059000000000000000000000000000000000005B
:1005A0000000000000000000000000000E1111110A
:1005B0001111111111110E000000000000000000C7
:1005C000000000000000000000000000000000002B
:1005D0000000000000000000000000000E111111DA
:1005E0001111111111111111111111110E00000031
:1005F00000000000000000000000000000000000FB
:100600000000000000000000000000000E111111A9
:1006100011111111111111111111111111111111CA
:1006200011110E000000000000000000000000009A
:100630000000000000000000000000000E11111179
:10064000111111111111111111111111111111119A
:1006500011111111111111110E0000000000000004
:100660000000000000000000000000000E11111149
:10067000111111111111111111111111111111116A
:1006800011111111111111111111111111110E006E
:100690000000000000000000000000000E11111119
:1006A000111111111111111111111111111111113A
:1006B000111111111111111111111111111111112A
:1006C000111111110E000000000000000E11111197
:1006D000111111111111111111111111111111110A
:1006E00011111111111111111111111111111111FA
:1006F000111111111111111111110E0030050E11EE
:1007000015110E00000000000000000000000000B5
:1007100000000000000000000000000000000000D9
:1007200000000000000000000000000000000E11AA
:1007300015151515151515110E0000000000000007
:1007400000000000000000000000000000000000A9
:1007500000000000000000000000000000000E117A
:1007600015151515151515151515151515110E0059
:100770000000000000000000000000000000000079
:1007800000000000000000000000000000000E114A
:100790001515151515151515151515151515151509
:1007A000151515110E0000000000000000000000EB
:1007B00000000000000000000000000000000E111A
:1007C00015151515151515151515151515151515D9
:1007D000151515151515151515110E00000000003D
:1007E00000000000000000000000000000000E11EA
:1007F00015151515151515151515151515151515A9
:10080000151515151515151515151515151515119C
:100810000E000000000000000000000000000E11AB
:100820001515151515151515151515151515151578
:100830001515151515151515151515151515151568
:100840001515151515110E000000000000000E1101
:100850001515151515151515151515151515151548
:100860001515151515151515151515151515151538
:100870001515151515151515151515110E000E1F45
:100880001F1F0E000000000000000000000000001C
:100890000000000000000000000000000000000058
:1008A00000000000000000000000000000000E1F1B
:1008B0001F1F1F1F1F1F1F1F0E0000000000000032
:1008C0000000000000000000000000000000000028
:1008D00000000000000000000000000000000E1FEB
:1008E0001F1F1F1F1F1F1F1F1F1F1F1F1F1F0E0048
:1008F00000000000000000000000000000000000F8
:1009000000000000000000000000000000000E1FBA
:100910001F1F1F1F1F1F1F1F1F1F1F1F1F1F1F1FE7
:100920001F1F1F1F0E00000000000000000000003D
:1009300000000000000000000000000000000E1F8A
:100940001F1F1F1F1F1F1F1F1F1F1F1F1F1F1F1FB7
:100950001F1F1F1F1F1F1F1F1F1F0E000000000053
:1009600000000000000000000000000000000E1F5A
:100970001F1F1F1F1F1F1F1F1F1F1F1F1F1F1F1F87
:100980001F1F1F1F1F1F1F1F1F1F1F1F1F1F1F1F77
:100990000E000000000000000000000000000E1F1C
:1009A0001F1F1F1F1F1F1F1F1F1F1F1F1F1F1F1F57
:1009B0001F1F1F1F1F1F1F1F1F1F1F1F1F1F1F1F47
:1009C0001F1F1F1F1F1F0E000000000000000E1F32
:1009D0001F1F1F1F1F1F1F1F1F1F1F1F1F1F1F1F27
:1009E0001F1F1F1F1F1F1F1F1F1F1F1F1F1F1F1F17
:1009F0001F1F1F1F1F1F1F1F1F1F1F1F0E00300540
:100A00000E1F1F1F0E00000000000000000000006D
:100A100000000000000000000000000000000000D6
:100A200000000000000000000000000000000000C6
:100A30000E1F1F1F1F1F1F1F1F1F0E000000000083
:100A400000000000000000000000000000000000A6
:100A50000000000000000000000000000000000096
:100A60000E1F1F1F1F1F1F1F1F1F1F1F1F1F1F1FA7
:100A70000E00000000000000000000000000000068
:100A80000000000000000000000000000000000066
:100A90000E1F1F1F1F1F1F1F1F1F1F1F1F1F1F1F77
:100AA0001F1F1F1F1F1F0E0000000000000000007E
:100AB0000000000000000000000000000000000036
:100AC0000E1F1F1F1F1F1F1F1F1F1F1F1F1F1F1F47
:100AD0001F1F1F1F1F1F1F1F1F1F1F1F0E00000094
:100AE0000000000000000000000000000000000006
:100AF0000E1F1F1F1F1F1F1F1F1F1F1F1F1F1F1F17
:100B00001F1F1F1F1F1F1F1F1F1F1F1F1F1F1F1FF5
:100B10001F1F0E0000000000000000000000000089
:100B20000E1F1F1F1F1F1F1F1F1F1F1F1F1F1F1FE6
:100B30001F1F1F1F1F1F1F1F1F1F1F1F1F1F1F1FC5
:100B40001F1F1F1F1F1F1F1F0E000000000000009F
:100B50000E1F1F1F1F1F1F1F1F1F1F1F1F1F1F1FB6
:100B60001F1F1F1F1F1F1F1F1F1F1F1F1F1F1F1F95
:100B70001F1F1F1F1F1F1F1F1F1F1F1F1F1F0E00B5
:100B8000FA00C800AF0096007D0064004B00320000
:100B90001F002100250029002C00310037003E00F5
:100BA000410049005200570062006E007B003E0089
:100BB000410049005200570062006E007B00830034
:100BC0009300A500AF00C400DC00F7007B008300A9
:100BD0009300A500AF00C400DC00F7000601260169
:100BE0004A015D018801B801EE01F7000601260106
:100BF0004A015D018801B801EE010B024B0293022C
:100C0000BA0210037003DC03EE010B024B029302E5
:100C1000BA0210037003DC03170497042705750557
:100C20002006E006B807DC031704970427057505BE
:100C30002006E006B8072D082D094D0AEA0A400CE7
:100C4000C00D6F0FB8072D082D094D0AEA0A400C98
:100C5000C00D6F0F5A105B129A14D4158018801BA8
:100C6000DE1E6F0F5A105B129A14D4158018801B69
:100C7000DE1EB420B5243429A72B00310037BC3D3B
:100C800014077C7E0B0B7E7C007F7F19396F46003A
:100C900001017F7F010110120000000080C060A0F0
:100CA000C8ECDCBC78F0E00000D8DA3BF5EE1F6F52
:100CB000371B0D06000100000000000000000000CE
:100CC000000000000000000021077F7F060C067F67
:100CD0007F003F7F40407F3F00266F49497B3200C5
:100CE000417F7F41003E7F414163221012005050FE
:100CF000501090407EA21C405050505000001515DE
:100D00001007C852911FF10E0115151500000000C3
:100D1000000000010101000000000000001214FEAC
:100D200001010101010101010101010101010101B3
:100D3000FEFF0000000000000000000000000000B6
:100D40000000FF070808080808080808080808083D
:100D50000808080807060BFFFE7CB85020050201B2
:100D6000000000060B2050B87CFEFF0000000102CE
:100D70000534328080808080808080808080808088
:100D800080BFA1ED0DEDED0D01E1ADA1A1A1A1A1EE
:100D9000A1A1A1A1A1E10101E101EDA1BF8080809C
:100DA00080808080808080FF00007A007A7A7A7A62
:100DB0007A7A7A7A7A7A7A7A7A7A0000FE00FA3A3D
:100DC000BABABABA3A3AFAFAFAFAFAFAFAFAFAFA03
:100DD000FA3ABABABA3A3A00FA00FF0101FF000043
:100DE000FF00FFFFFFFFFFFFFFFFFFFFFF0000FC13
:100DF00000FCE0E0EFEF6F6A65607C7C7C7C7C7CD3
:100E00007C7C7C7C60606FEFEA05E00000FE030004
:100E1000007F40405F405F5F5F5F5F5F5F5F5F5F7E
:100E20005F40404F405F5F5F5F5F5555555555557B
:100E300055555555555555555555555F5F405F406E
:100E4000407F000000F8FC04048C8800F8FC0404D7
:100E5000FCF800FCFC048CF87000FCFC2424040466
:100E600000FCFC64E4BC18000010180C040000989E
:100E7000BC2424ECC8000000000809F9F9090800A6
:100E8000F0F90909F9F000F1F90909F8F000F9F9A8
:100E90000101010100F9F94848F9B100F0F808082A
:100EA000F8F00018B9E1E1B91800000000000003F3
:100EB0000300000001030202030100010302020318
:100EC0000100030302020202000303020203010005
:100ED00001030202030100030300000303000021D9
:100EE000080F0F08080006090B06000E03030E008A
:100EF0000F090F06000F0F000F02030F000E0F095E
:100F00000D000E10BEBDBEBDBEBDBEBDBEBDBEBDD4
:100F1000BE000004000400040004000400040000FB
:100F20004E080F0D0702000F050F0A000F0D0900F4
:100F3000020B0D00020B0D00000000000F0D070258
:100F4000000F0F0808000E03030E00030E0E03002F
:100F5000000006090B06000F02030F00000000014D
:100F60000F0F010E03030E000F0D0702000F0D09F6
:100F70000E10A7C7A7C7A7C7A7C7A7C7A7C7A70018
:100F800007070707070707070707070707002408DA
:100F90000E1F1F1F0E0000000000000000000000D8
:100FA0001F0E04000000000000000000040E1F00DF
:100FB000040E1F00F71911241FBECFEFDAE0DEBFC9
:100FC000CDBF11E0A0E0B1E0EAE4F7E502C0059092
:100FD0000D92A636B107D9F729E0A6E6B1E001C027
:100FE0001D92A937B207E1F717E0CBEDD7E004C0B7
:100FF0002197FE010E949D2BCA3DD107C9F70E948F
:10100000661A0C94A32B0C94000080917C01089527
:101010007F928F929F92AF92BF92CF92DF92EF9288
:10102000FF920F931F93CF93DF939C01DB01FA0193
:1010300074913196E491870F911D972E8038910518
:101040001CF080E8982E921AED0183E0D595C795A3
:101050008A95E1F78C2E91E08E2F877009F490E04D
:10106000E695E695E6959E0FFE01E90FF11D39978D
:1010700014F098E09C1B4E5F5F4F8A2F8770782E8C
:101080008E011695102F002717950795020F131F35
:10109000C82E880FDD087919E92DE70FFF27FF1FFC
:1010A0005F01882D8C1B891708F03BC0B8016B5677
:1010B0007E4FF12CE12CE91470F5FA01EE0DFF1DC5
:1010C000A491B0E00C2C02C0AA0FBB1F0A94E2F757
:1010D000249130E00C2C02C0220F331F0A94E2F757
:1010E0002095309587FC05C0FB01808182238A2BE7
:1010F0008083772051F0F6E0F8153CF0FB01E058D2
:10110000FF4F808183238B2B80832FEFE21AF20A1B
:101110006F5F7F4FD0CF4A0D5B1D00581F4F8394E8
:10112000C0CFDF91CF911F910F91FF90EF90DF9093
:10113000CF90BF90AF909F908F907F900895480F71
:10114000592F511D1416150684F5803891056CF53C
:1011500097FF02C090E080E04138510514F040E86C
:1011600050E0481BFB01E770FF2721E001C0220F80
:10117000EA95EAF777FF02C0695F7F4FFB0133E032
:10118000F595E7953A95E1F7F695FE2FEE27F79559
:10119000E795E80FF91FEB56FE4F415030F0819173
:1011A000DF011197822B8C93F8CF0895E5E9F1E0E8
:1011B000A0E0B8E000800EBC8111012C1197A0FDC9
:1011C000FDCF0192B9F70DB4089590917409982359
:1011D00029F490917309982381E009F480E008953F
:1011E000FC0180919401882311F13FB7F89482E0CB
:1011F0008093E9002091F200822F90E018161906E2
:1012000014F481E090E0882339F0289844E6409374
:1012100093014091F1004083222339F02091F200A4
:10122000211103C02BE62093E8003FBF08958FEF04
:101230009FEF08952FB7F89483E08093E900909191
:10124000E800892F807295FF04C09091F20080E43D
:10125000891B2FBF089580918B0181110DC082E001
:101260008093870184E08093880110928A01109214
:10127000890181E080938B0187E891E00895409196
:1012800076015091770120917401309175014217D8
:101290005307B4F49091E8009570E1F39091E80061
:1012A00092FD19C08093F1008091760190917701B1
:1012B00001968F739927892B19F48EEF8093E8009C
:1012C00080917601909177010196909377018093B8
:1012D000760181E0089580E00895DF92EF92FF9219
:1012E0000F931F93CF93DF93D82E8A01EB017B01DD
:1012F000E40EF51ECE15DF0559F0D7FE12C0FE0133
:1013000084910E943F0921968111F4CF0FEF1FEFC6
:10131000C801DF91CF911F910F91FF90EF90DF9067
:1013200008958881EECF0F931F93CF93DF931F9281
:10133000CDB7DEB782E0898342E450E06AE473E02F
:1013400080E80E946D090E942B09DC0112960D9124
:101350001C910115110589F0D801ED91FC910280D5
:10136000F381E02DBE016F5F7F4FC801099597FDA6
:1013700004C0F80100851185ECCF89810F90DF91C1
:10138000CF911F910F910895615030F02091F1009D
:10139000FC0120830196F8CF289884E6809393017E
:1013A0000895EF92FF920F931F93CF93DF938C01D9
:1013B0007B01D0E0C0E0F701EC0FFD1F64916623D4
:1013C00061F0D801ED91FC910190F081E02DC80110
:1013D0000995892B11F02196EECFCE01DF91CF91A7
:1013E0001F910F91FF90EF900895AF92BF92CF920F
:1013F000DF92EF92FF920F931F93CF93DF936C01D5
:101400007B018B01040F151FEB015E01AE18BF08B5
:10141000C017D10759F06991D601ED91FC91019067
:10142000F081E02DC6010995892B79F7C501DF917F
:10143000CF911F910F91FF90EF90DF90CF90BF90D1
:10144000AF900895CF93DF931F92CDB7DEB7698336
:10145000DC01ED91FC910280F381E02D41E050E050
:10146000BE016F5F7F4F09950F90DF91CF91089577
:1014700083E08093E9008091F200882319F08AE3E9
:101480008093E80008950E941A0990E00895CF9390
:10149000DF931F92CDB7DEB7FC018485958597FD5C
:1014A00008C02FEF3FEF358724870F90DF91CF9152
:1014B0000895CE0101960E94F008019719F48981E0
:1014C00090E0F3CF8FEF9FEFF0CF0F931F93CF9369
:1014D000DF931F92CDB7DEB78C01FC018485958523
:1014E00097FF0BC0CE0101960E94F008019771F49E
:1014F000898190E0F80195878487F8018485958536
:101500000F90DF91CF911F910F9108958FEF9FEF73
:10151000F1CFFC018485958597FD0BC09FB7F894AA
:1015200082E08093E9008091F2009FBF90E00196F5
:1015300008959FB7F89482E08093E9008091F200CB
:101540009FBF90E008953FB7F8948091700190910B
:101550007101A0917201B091730126B5A89B05C0DD
:101560002F3F19F00196A11DB11D3FBFBA2FA92F22
:10157000982F8827BC01CD01620F711D811D911D1F
:1015800042E0660F771F881F991F4A95D1F708958B
:101590008F929F92AF92BF92CF92DF92EF92FF9283
:1015A0006B017C010E94A30A4B015C01C114D104B0
:1015B000E104F104B9F00E94A30A681979098A09C3
:1015C0009B09683E73408105910580F321E0C21AB2
:1015D000D108E108F10888EE880E83E0981EA11C6E
:1015E000B11CE4CFFF90EF90DF90CF90BF90AF9011
:1015F0009F908F9008958F929F92AF92BF92CF92BB
:10160000DF92EF92FF920F931F93CF93DF936C01C2
:101610007B018A0180910B01882309F45CC08091D1
:101620009401882309F457C080917A0180FF05C096
:101630008091E00082608093E000E801B12C8AEFA5
:10164000A82E93E0892E2AE3922E209711F4BB2036
:10165000D9F10E941A0981110AC0AA94AA20D9F1CD
:1016600061E070E080E090E00E94C80AEECF8C1745
:101670001D0611F00CF08C2F9FB7F8948092E900B2
:101680002091E80025FD02C09FBFDFCF282F30E06A
:10169000C21BD30BF701815020F041914093F10020
:1016A000FACFE20EF31EBB2021F09092E800B12C9D
:1016B000EBCF8091E80085FDE7CF9092E800BB2456
:1016C000B394209709F3F3CF5D9884E68093790172
:1016D000101611063CF081E090E0F60193838283BE
:1016E00010E000E0C801DF91CF911F910F91FF90B2
:1016F000EF90DF90CF90BF90AF909F908F90089524
:101700006F927F928F929F92AF92BF92CF92DF9211
:10171000EF92FF920F931F93CF93DF934C01CB0176
:101720003A017C2DFA01649131965491F2E06F0EEA
:10173000711CC62FD0E0211102C0EE2009F1E1E0BA
:10174000F0E0352F377011F4F0E0E0E0A52FA6951A
:10175000A695A695AE0FBF2FB11DAC9FF001AD9F12
:10176000F00DBC9FF00D1124733009F08BC0EE0F0B
:10177000FF1F2E9FD0012F9FB00D11246A0E7B1EDC
:10178000D401AC0FBD1F1A161B060CF06CC020E86C
:10179000821691040CF067C09C01250F311D1216B2
:1017A00013060CF060C0803491050CF05CC061142D
:1017B000710409F458C0382F3770FC0197FD379633
:1017C00023E0F595E7952A95E1F72E2F97FF04C0C2
:1017D000332311F02FEF2E0FEE27FF27E819F90919
:1017E00097FC02C0F0E0E0E090E89819A038B1055D
:1017F0000CF4962F9E1BA22F022E000CBB0B4A2F1F
:1018000040952F3F0CF040E0DD24D394852F877066
:1018100009F4D12C569556955695D50EAD0DB11DA2
:1018200019971CF058E0D52ED21AD41A240F50E87C
:101830002503D0011124A80DB91DAE0FBF1F649F51
:10184000E00DF11D11246E0E7F1EE32E032E000C01
:10185000FF08733009F423C108F5713009F4D6C0CC
:10186000723009F484C0DF91CF911F910F91FF90E6
:10187000EF90DF90CF90BF90AF909F908F907F9030
:101880006F9008950115110509F473CFEE9ED001F4
:10189000EF9EB00D11240A0F1B1F6BCF7A3FB1F1E1
:1018A0000D2D020F7B3FF9F62017E9F2BD016B56B3
:1018B0007E4FD12CC12CC91608F0A2C0F301EC0D4B
:1018C000FD1DE491F0E0AF010E2C02C0440F551F46
:1018D0000A94E2F727FD06C0FB018081142F1095C2
:1018E00081238083332361F0273054F45B01F0E8D7
:1018F000AF0EB11C452F4095F50180818423808374
:10190000FFEFCF1ADF0A6F5F7F4FD5CF0D2D020F8C
:10191000201709F4A8CFBD016B567E4FD12CC12CE6
:10192000C91608F067C0F301EC0DFD1DE491F0E06D
:10193000AF010E2C02C0440F551F0A94E2F727FD99
:1019400004C0FB018081842B8083332351F0273036
:1019500044F45B01F0E8AF0EB11CF5018081852BEA
:101960008083FFEFCF1ADF0A6F5F7F4FD9CF6FEF12
:1019700070E0032E02C0660F771F0A94E2F76095AD
:101980007095972E8D2C820E281509F46CCF8D0141
:101990000B561E4FD12CC12CC91630F5F301EC0D9E
:1019A000FD1DE491F0E0AF010E2C02C0440F551F65
:1019B0000A94E2F727FD05C0F80180818623842B75
:1019C0008083332359F027304CF45801F0E8AF0EF0
:1019D000B11CF50180818921852B8083FFEFCF1A0F
:1019E000DF0A0F5F1F4FD8CF2F5F6C0E7D1EA058F0
:1019F000BF4FCACF2F5F6C0E7D1EA058BF4F88CF40
:101A00002F5F6C0E7D1EA058BF4F4ECF0E0F1F1FB5
:101A10008D2D820F281709F426CFBD016B567E4FFE
:101A2000D12CC12CC91698F5F801EC0DFD1DA49020
:101A3000B12C0E2C02C0AA0CBB1C0A94E2F7A09495
:101A4000B094F301EC0DFD1D8490912C0E2C02C07E
:101A5000880C991C0A94E2F727FD08C0FB0140811D
:101A6000E42FEA214E2F4829FB014083332349F01C
:101A700027303CF4FB01E058FF4FA080BA20B92882
:101A8000B082FFEFCF1ADF0A6F5F7F4FCBCF2F5FA0
:101A90006C0E7D1E0C0F1D1FA058BF4FBBCFE92E33
:101AA000F12CE60DF71DAB56BE4F60E870E06E19E5
:101AB0007F09CE19DF09AE01440F551FC1E0D0E008
:101AC0007E01032E01C0EE0C0A94EAF7192F0D2DAA
:101AD000892E932ECF93DF93ED01EF96EF9622960A
:101AE000A590C590992059F0AE9C5001CE9C600104
:101AF00027302CF4F880D094FD20FB28F992222383
:101B00003AF0FC90C094FC20FA28FD920C94890DC8
:101B100011961A9529F70A9551F0182D239511243D
:101B2000E40FF11DA60FB11DC60FD11DD9CFDF9156
:101B3000CF91112498CECF92EF920F931F9322E072
:101B4000C22EE12C10E000E020E00E94800B1F91EB
:101B50000F91EF90CF900895CF92EF920F931F9334
:101B60003AEFC32EE12C10E000E00E94800B1F91A1
:101B70000F91EF90CF900895CF92EF920F931F9314
:101B80003BEFC32EE12C10E000E00E94800B1F9180
:101B90000F91EF90CF900895BC0190E080E00C94FD
:101BA000C80A8FB18095807F669B88601C9B84608B
:101BB000089520E191E061FD94E060FD990F62FDE0
:101BC0009295687F269FD0011124A80FAB56BE4F77
:101BD0008C9140FF03C0892B8C93089590958923A5
:101BE000FBCF8038910528F46034710510F40C9413
:101BF000D90D0895DF92EF92FF920F931F93CF9329
:101C0000DF937C01D22E8B01040F111DEB0177FFB6
:101C100002C0D0E0C0E0C8010134110514F080E436
:101C200090E0C817D9073CF44D2DBE01C7010E94B2
:101C3000F10D2196F0CFDF91CF911F910F91FF9081
:101C4000EF90DF900895CF92DF92EF92FF920F9383
:101C50001F93CF93DF936B01122FEC017C01E40EF5
:101C6000F11CCE15DF0544F4202F412FB601CE0123
:101C70000E94FA0D2196F5CFDF91CF911F910F9120
:101C8000FF90EF90DF90CF900895EF92FF920F9327
:101C90001F93CF93DF937C018B01C42FD22F60342D
:101CA000710510F40E949F08B8016D0F711D6150FD
:101CB00071096034710520F44C2FC7010E949F0800
:101CC00021E04D2FB801C7010E94FA0DC7018C0F0A
:101CD000911D21E04D2FB8010197DF91CF911F9108
:101CE0000F91FF90EF900C94FA0D0895CF93DF932E
:101CF000EC016A3059F48D818C838E819985890F2E
:101D00008E8381E090E0DF91CF9108959C816032D5
:101D100019F49E5F9C83F5CF6E3711F49F5FFACF65
:101D2000262F6E816F5F2A3398F4203370F52B32A3
:101D300071F140F4213269F198859D5F8C81890FA2
:101D40008C83DFCF2C3239F12E32B1F72FE30DC067
:101D50002B3530F42134B8F42A3371F722E405C06E
:101D60008FE9820F27548A3138F7062E000C770B43
:101D7000892F990F990B3F814FE752E0313069F479
:101D80000E94AC0DD9CF2154F0CF2C5FEECF20E4D0
:101D9000ECCF2EE3EACF21E4E8CF0E94BC0DCCCFFC
:101DA000089590E080E0089520919905E0919705CD
:101DB000F0919805CF01029690939805809397052E
:101DC000222319F08591949108958081918108953D
:101DD000CF92DF92EF92FF92CF93DF930E94D40EC7
:101DE000811520E8920791F4809171008D7F809396
:101DF0007100109291004698479810926801DF9107
:101E0000CF91FF90EF90DF90CF90089521E0209345
:101E10006801813020E8920751F4809195059091F6
:101E2000960590939805809397050E94D40E97FD90
:101E300005C020916701222309F45AC02091660150
:101E4000211156C021E020936901813020E89207DA
:101E500010F090E080E0EC01DF77209709F04BC0B4
:101E600081E080936A0146983FE9C32E3FE0D32E7C
:101E7000E12CF12CCAEFD0E0E091F805F091F905E2
:101E80000995811103C081E080936A018091690105
:101E9000882329F080916A01882309F43FC047987C
:101EA0000E94D40E0097F1F19C01DE010E946E2B7E
:101EB000DC01CB0129E0B595A795979587952A95E3
:101EC000D1F7109290002AE020939100D0929900CF
:101ED000C092980080936B0190936C01A0936D0168
:101EE000B0936E018091710082608093710087CF02
:101EF00010926901AACF9E0150E040E060E472E4D4
:101F00008FE090E00E941A2B69017A0181E0C81AE3
:101F1000D108E108F10810926A01AECF4699BFCF0F
:101F2000479ABECF8FEF9FEFDC01CBCF9C01E1E75B
:101F3000F0E090819D7F908310929905EAEEF5E0A4
:101F4000F0939805E0939705F0939605E093950537
:101F5000318320838BE490E09383828380E090E858
:101F6000958384830C94E80EFC0180915D09909127
:101F70005E0920813181211540E8340781F4A09168
:101F80005C0944E0A49FD0011124A95FB84F1296C8
:101F90003C932E931197918380830C94960F918399
:101FA000808382819381892B31F4809161099091A2
:101FB000620993838283089580918601823029F19A
:101FC0008091010720E2829FC001112486509A4F20
:101FD00021E030E0FC01E20FF31F10822F5F3F4F42
:101FE00021313105B9F730E020E0FC01E20FF31FA9
:101FF000118A2F5F3F4F20313105B9F71092FD064E
:102000001092FC061092FB06089520916109309110
:102010006209E3E0F7E08BE599E0128211823483F4
:10202000238334968E179F07C1F783E0809363095B
:1020300080E090E89093050780930407E8EFFBE0C9
:102040008591949190935E0980935D0910925C094B
:1020500008957F779FE0899FA001112430E020E060
:10206000FA01E20FF31FEE0FFF1FE057F44FA591A7
:10207000B4916A177B0791F4211109C09EE1899FF1
:10208000F0011124E057F44F859194910895F901DE
:102090003197E40FF51FEE0FFF1FF4CF2F5F3F4F77
:1020A0002F303105E9F680E090E008957F779FE0DA
:1020B000899FA001112430E020E0FA01E20FF31F14
:1020C000EE0FFF1FE057F44FA591B4916A177B07FD
:1020D000A1F42E3049F49EE1899FF0011124E455CA
:1020E000F44F859194910895F9013196E40FF51F0D
:1020F000EE0FFF1FE057F44FF4CF2F5F3F4F2F300D
:102100003105D9F680E090E008957F779FE0899FC0
:10211000A001112430E020E0822FFA01E20FF31F2A
:10212000EE0FFF1FE057F44FA591B4916A177B079C
:1021300041F4223010F4835008952C3038F08B5045
:1021400008952F5F3F4F2F30310531F780E008951C
:102150007F779FE0899FA001112430E020E0922F3B
:10216000FA01E20FF31FEE0FFF1FE057F44FA591A6
:10217000B4916A177B0729F4990F990F8AE3891B99
:1021800008952F5F3F4F2F30310549F780E00895C4
:102190002091010730E04091FC065091FD06BA0104
:1021A00093E0769567959A95E1F7E091FB06220F0B
:1021B000331F260F371FA4E0220F331FAA95E1F724
:1021C00026503A4FE20FF32FF11D91819A012770AB
:1021D000332741E050E001C0440F2A95EAF781110E
:1021E00004C04095492341830895492BFCCFCF93E8
:1021F000DF93EB010E94042B8883CE01DF91CF9106
:102200000895FB0101900020E9F73197AF01461BCB
:10221000570BDC01ED91FC910280F381E02D0994D4
:10222000CF93DF93BC018AE995E00E94D109EC01CC
:102230006BE471E08AE995E00E9401118C0F9D1F0B
:10224000DF91CF9108958F929F92AF92BF92EF92BC
:10225000FF920F931F93CF93DF93CDB7DEB7A19774
:102260000FB6F894DEBF0FBECDBF7C01FA01CB01E3
:1022700019A2223008F42AE08E010F5D1F4F822E32
:10228000912CB12CA12CBF01A50194010E944C2BD3
:10229000F901CA016A300CF5605DD8016E938D01B9
:1022A000232B242B252B79F790E080E0109721F049
:1022B000BD01C7010E940111A1960FB6F894DEBFBF
:1022C0000FBECDBFDF91CF911F910F91FF90EF9087
:1022D000BF90AF909F908F900895695CDECFAB0167
:1022E000770F660B770B2AE00C942311242F462FCF
:1022F00050E070E060E00C9423110C940111CF9336
:10230000C82F6EE471E08AE995E00E947D11C0312A
:1023100030F461E571E08AE995E00E947D1140E1C9
:1023200050E06C2F8AE995E0CF910C947611CF9311
:10233000DF93EC016EE471E08AE995E00E947D1183
:10234000C11580E1D807C8F461E571E08AE995E03C
:102350000E947D11CF3FD10509F078F461E571E06D
:102360008AE995E00E947D11C031D10530F461E524
:1023700071E08AE995E00E947D11AE0170E060E0B5
:1023800020E18AE995E0DF91CF910C9423117F92AF
:102390008F929F92AF92BF92CF92DF92EF92FF9275
:1023A0000F931F93CF93DF93CDB7DEB728970FB668
:1023B000F894DEBF0FBECDBF809186018230B9F0A8
:1023C000833009F466C028960FB6F894DEBF0FBEBE
:1023D000CDBFDF91CF911F910F91FF90EF90DF90D4
:1023E000CF90BF90AF909F908F907F9008958CE595
:1023F00092E00E94101133E0E32E37E0F32E10E05C
:1024000000E0F70181819281C380D4808115F0E8DA
:102410009F0741F110F090E080E00E9497116AE57B
:1024200072E08AE995E00E94D109C6010E949711E5
:1024300067E572E08AE995E00E94D109011511056E
:1024400049F0C80187709927892B21F486E592E02D
:102450000E9410110F5F1F4F84E0E80EF11C063937
:10246000110579F689E492E028960FB6F894DEBF5C
:102470000FBECDBFDF91CF911F910F91FF90EF90D5
:10248000DF90CF90BF90AF909F908F907F900C94F3
:10249000101188E0E8E1F1E0DE01119601900D9263
:1024A0008A95E1F78091FF06E82FE770982E9694C1
:1024B0009694969477247A94EE2349F0939481E04D
:1024C00090E08C0F9D1F8E0F911DFC0170802AEFF4
:1024D000C22E25E0D22EF12CE12CE92DE150FF0B8C
:1024E0005F01EE20E1F05091FE06960140E04915B3
:1024F00009F462C081E090E06FEF680F651758F44F
:10250000BC016F5F7F4F820F931FFC01808181119F
:1025100006C0CB01F1CF4F5F205F3F4FE8CF63E3B1
:1025200072E08AE995E00E94D109B7016F5F7F4FA1
:102530008AE995E00E946F1184E292E00E941011F6
:1025400010E000E00915A0F5812C8091FE068816A8
:1025500000F5E0910107F0E0EE0FFF1FE00FF11F23
:1025600094E0EE0FFF1F9A95E1F7E650FA4FE80D61
:10257000F11D81810A151B0554F40E947F1162E24E
:1025800072E08AE995E00E94D1098394DECF872129
:10259000F4CF8091FF0686958150990B0817190793
:1025A00024F481E292E00E9410110F5F1F4FCACF06
:1025B0008CE192E00E941011FFEFEF1AFF0A20E277
:1025C000C20ED11C88E0E816F10409F08ACFFBCED8
:1025D0002F923F924F925F926F927F928F929F9233
:1025E000AF92BF92CF92DF92EF92FF920F931F9321
:1025F000CF93DF93CDB7DEB72F970FB6F894DEBF3A
:102600000FBECDBF4DE15DE063E070E087E090E09C
:102610000E949B0D20E046E95CE064E070E088E009
:1026200090E00E94AC0D01E027E04FE16AE170E02C
:1026300090E080E00E94230E21E040E470E060E042
:1026400080E290E00E94FA0D2091FB068091FC064A
:102650009091FD062A3028F40A9730F494E080E047
:1026600005C00A9708F024C191E082E0890F8093A9
:102670006909809368091AE110936A0910926B093D
:1026800063E571E084E699E00E947D114AE050E044
:102690006091FB0684E699E00E94761166E571E0A0
:1026A00084E699E00E947D114091FC065091FD0660
:1026B00070E060E02AE084E699E00E94231101E0E6
:1026C00027E04FE16AE170E086E690E00E94230E89
:1026D00021E040E470E060E084E690E00E94FA0DC2
:1026E00020E049E052E060E170E08AE690E00E947C
:1026F000AC0D86E6809369098093680910936A0996
:1027000010926B096AE571E084E699E00E947D1100
:102710006091010770E06F5F7F4F84E699E00E944F
:102720006F1120E04DEE51E064E270E083E090E054
:102730000E94AC0D4091FE0660E170E0FB01E41BDD
:10274000F1092091FF06621B71090E2F000F0D5D2C
:10275000E62EEE0C77FF02C06F5F7F4F7595679591
:10276000625D862F90E09D838C83BF01F7FF02C0DE
:102770006F5F7F4F75956795685F862F90E09F83A9
:102780008E832C5F4C5F6C817D8162507109029752
:102790000E94450E512C10E0F12C98012150310976
:1027A0003F872E87C70101979B838A838091FF060D
:1027B000581608F081C0C52CD12C3601660C771C48
:1027C000660C771C6E0C7F1C130193E0290E311CE4
:1027D00041E0B1018E859F850E94F10D852D869582
:1027E00086958695282F30E039872887852D877034
:1027F00021E030E002C0220F331F8A95E2F73B87C9
:102800002A87412C8C819D818C0D9D1D9D878C87F5
:102810008091FE06481608F04DC0A42CB12C65012D
:10282000CC0CDD1CCC0CDD1CC00ED11E41E06A813D
:102830007B81C60101970E94F10D460193E0890E4C
:10284000911C41E06A817B81C4010E94F10DE091FD
:102850000107F0E0EE0FFF1F28853985E20FF31F17
:1028600034E0EE0FFF1F3A95E1F7E650FA4FEA0D1C
:10287000FB1D818190E02A853B8582239323892B50
:1028800081F020E048EE51E0B301C6010E94AC0D9A
:1028900041E06C857D858E819F818A0D9B1D0E9404
:1028A000F10D41E0B101C4010E94F10D4394B0CF9C
:1028B00091E0D5CE53947ACF6091FC067091FD06DD
:1028C000660F771F660F771F615071096E0D7F1DB0
:1028D0008091FB0634E0839FC0011124800F911F7B
:1028E000019720917109309172092F73332721329A
:1028F00008F478C025E045E00E94450E4CEC53E01A
:1029000063E370E086E690E00E949B0D80910007F3
:10291000823309F04EC000E020E44CE470E060E057
:1029200084E390E00E94230E01E028E04BE470E095
:1029300060E085E390E00E94230E20E44BE470E029
:1029400060E085E390E00E94450E20E045E755E019
:1029500062E070E085E790E00E94BC0D20E040E777
:1029600055E062E070E089E790E00E94BC0D87E3EB
:10297000809369098093680900936A0910926B0932
:1029800069ED71E084E699E00E94D1098BE38093C0
:102990006909809368091BE010936A0900936B0929
:1029A00080911001813009F460C010F1823009F487
:1029B00042C12F960FB6F894DEBF0FBECDBFDF9198
:1029C000CF911F910F91FF90EF90DF90CF90BF902C
:1029D000AF909F908F907F906F905F904F903F90BF
:1029E0002F90089520E041EE51E00E94AC0D86CF7B
:1029F00069EC71E084E699E00E94D109BE016F5F45
:102A00007F4F8AE892E00E94F710898166EA71E0C0
:102A1000833641F467EB71E084E699E00E94D109C6
:102A200069EA71E084E699E00E94D10981E080932F
:102A30006B098BE3809369098093680987E280932F
:102A40006A0966E871E084E699E00E94D109E091A4
:102A50001101F0E0E058FE4F649170E021E045E0A4
:102A600088E390E00E94FA0DA4CF67E771E084E666
:102A700099E00E94D10980911301823009F0BDC014
:102A800045E755E06CE070E086E590E00E949B0D24
:102A900040E755E06CE070E081E790E00E949B0D1C
:102AA00001E027E044E16BE070E08BE590E00E94FC
:102AB000230E8FE5809369098093680910936A0952
:102AC00010926B094AE050E06091FE0684E699E0BE
:102AD0000E94761181E080936B098BE380936909F2
:102AE0008093680913E110936A096AE671E084E64D
:102AF00099E00E94D10980911301833009F08CC0C4
:102B000045E755E064E170E086E590E00E949B0DAA
:102B100040E755E064E170E081E790E00E949B0DA2
:102B200001E027E044E163E170E08BE590E00E9482
:102B3000230E8FE5809369098093680910936A09D1
:102B400010926B094AE050E06091FF0684E699E03C
:102B50000E94761181E080936B098BE38093690971
:102B6000809368091FE110936A0960E371E084E6CD
:102B700099E00E94D109809113018430C1F583E668
:102B8000809369098093680910936A096DE271E086
:102B900084E699E00E94D10945E755E060E270E0E3
:102BA0008DE690E00E949B0D40E755E060E270E00A
:102BB0008BE790E00E949B0D01E027E047E06FE18A
:102BC00070E082E790E00E94230E84E78093690919
:102BD0008093680910936A0910926B09609102074B
:102BE00070E06F5F7F4F84E699E00E946F11E09183
:102BF0001201F0E0E95DFE4F2FCF4AE050E0609116
:102C0000FE0684E699E00E94761163E771E084E6AF
:102C100099E00E94D1095ECF4AE050E06091FF0642
:102C200084E699E00E94761166E671E084E699E018
:102C30000E94D1098FCF89E3809369098093680945
:102C400060E171E084E699E00E94D10969EF70E0EB
:102C500084E699E00E94D10962EE70E084E699E092
:102C60000E94D10960ED70E084E699E00E94D109EC
:102C70006CEB70E084E699E00E94D10945EB50E0EE
:102C800063E170E083E490E00E9408084CEA50E0C1
:102C90006CE170E082E490E00E94080845EB50E0AF
:102CA00063E270E083E490E00E9408084CEA50E0A0
:102CB0006CE270E082E490E00E9408087ACEFF9215
:102CC0000F931F93CF93DF93EC01F62E08811981A8
:102CD000C8010E94042BF81621F06F2DC8010E9434
:102CE0000C2BCE01DF91CF911F910F91FF90089592
:102CF0001F920F920FB60F9211248F939F93809182
:102D0000E1009091E100937F9093E10083FF0FC079
:102D10001092E90091E09093EB001092EC0092E3A6
:102D20009093ED001092940198E09093F00082FF50
:102D300022C093E09093E9009091F200992319F05A
:102D40009AE39093E80090917901992341F0909152
:102D50007901915090937901911101C05D9A909100
:102D60009301992341F09091930191509093930195
:102D7000911101C0289A84FF18C08091E2008E7ED4
:102D800081608093E2008091E1008F7E8093E1007A
:102D900080917A018E7E806180937A019F918F91DC
:102DA0000F900FBE0F901F90189580FFF7CF809166
:102DB000E2008E7E80618093E2008091E1008E7E51
:102DC0008093E10080917A018E7E8160E5CF1F9231
:102DD0000F920FB60F921124CF92DF92EF92FF92D3
:102DE0000F931F932F933F934F935F936F937F9313
:102DF0008F939F93AF93BF93EF93FF93CF93DF9303
:102E0000CDB7DEB76C97DEBFCDBF1092E9008091E1
:102E1000E80083FF25C068E0CE0145960E94C40902
:102E200082EF8093E8008D8987FF39C09091E80098
:102E300090FFFCCF982F907609F034C19E894F897E
:102E4000588D2F89F88C911131C0803861F58091AF
:102E50007B018093F1001092F1008EEF8093E800E7
:102E60006C960FB6F894DEBF0FBECDBFDF91CF9149
:102E7000FF91EF91BF91AF919F918F917F916F9152
:102E80005F914F913F912F911F910F91FF90EF9084
:102E9000DF90CF900F900FBE0F901F9018959EEF70
:102EA0009093E800C7CF1092F100D5CF913059F43C
:102EB0008111D3CF4130510581F680917B018D7F07
:102EC00080937B01CACF933049F48111C6CF413042
:102ED000510519F680917B018260F2CF953041F463
:102EE0008091E80080FFFCCF20682093E300B5CFFD
:102EF000963009F0A9C00B8D1C8D22E01092E900DC
:102F00001092770110927601F2122EC01092750184
:102F1000109274010E9493091F8299E09983FA82AA
:102F200091E09E8390EA98879AEF998720917601A5
:102F300030917701275F3F4F3C832B838D83109225
:102F4000E9001092770110927601109375010093B9
:102F5000740149E050E0BE016F5F7F4F80E00E9446
:102F60006D090E94930979CF109375010093740144
:102F70000E942B09DC0112960D911C91011511057F
:102F800009F451C1D801ED91FC910480F581E02D47
:102F9000BE016B5E7F4FC8010995009709F03EC1E5
:102FA000F80100851185EACFF3E0FF120EC08F898A
:102FB000882309F440C0823061F440E860E18EEA81
:102FC00093E00E94C419811148CF81E28093EB0005
:102FD00047CF813029F440E86BE082EA93E0F1CFFB
:102FE000833099F70E942B09DC011296ED90FC903A
:102FF0008E010F5F1F4F6801E114F10479F0D701D2
:10300000ED91FC910680F781E02DB801C70109958B
:10301000080F111DF701E084F184EECFD8011C9256
:10302000F60101900020E9F73197BF016C197D0985
:1030300040E0C601C6CF6CE873E0FB01449150E06C
:1030400080E80E946D0909CF973009F4BECF98300F
:1030500021F481E08093F10000CF993009F0FDCE9A
:10306000837009F0B2CFE1E2F1E081E031E096E374
:103070002191222371F08093E9003093EB00DF016E
:1030800011972C912093EC009093ED008F5F873087
:1030900079F78EE78093EA001092EA008F89809397
:1030A0009401DBCE8B8D9C8D1092E90010927701FC
:1030B000109276019093750180937401898D81112E
:1030C00092C08E899D89913A49F4813209F07DCF71
:1030D00047E050E064E071E080E0B3CF913209F066
:1030E00074CF833269F48F89988DB0E0A0E080932B
:1030F000000190930101A0930201B0930301ADCEB2
:10310000803269F48091E80082FFFCCF67E084E0C0
:1031100091E00E94C4098BEF8093E8009ECE82323A
:1031200009F09BCE8F8980930B01EEEFFFE785912D
:1031300094918B3F9C4D51F1E0E0F8E080910401C7
:1031400090910501A0910601B0910701803B944048
:10315000A105B105F1F480910B0180FD1AC0EE3F8D
:103160008AE0F80789F587E797E791838083809164
:1031700060008093780188E19BE00FB6F894A895F1
:10318000809360000FBE9093600067CEEEEFFAE090
:10319000D5CF808191818737974709F05ECEA8957A
:1031A00080916000886180936000809178018093B5
:1031B0006000EE3F2AE0F20789F08091FE0A9091CC
:1031C000FF0A9183808349CE808191818737980758
:1031D00051F29093FF0A8093FE0AC5CF1092FF0A26
:1031E0001092FE0A3ACE0E942B09DC0112960D9134
:1031F0001C910115110509F4E8CED801ED91FC915F
:103200000190F081E02DBE016B5E7F4FC8010995F2
:10321000811123CEF80100851185EBCF1816190610
:103220000CF41BCED2CEF1E0FF12BECE60E973E00B
:1032300004CF1F920F920FB60F9211242F933F933A
:103240008F939F93AF93BF9380917D0190917E0167
:10325000A0917F01B091800130916F0123E0230F95
:103260002D3758F50196A11DB11D20936F01809354
:103270007D0190937E01A0937F01B09380018091A6
:10328000700190917101A0917201B091730101964A
:10329000A11DB11D8093700190937101A0937201E3
:1032A000B0937301BF91AF919F918F913F912F91F7
:1032B0000F900FBE0F901F90189526E8230F0296CF
:1032C000A11DB11DD2CF1F920F920FB60F921124E4
:1032D0002F933F934F935F936F937F938F939F931E
:1032E000AF93BF93EF93FF9380916B0190916C012B
:1032F000A0916D01B0916E01892B8A2B8B2B09F463
:1033000040C080916A0181110BC088B190E4892787
:1033100088B980916901882319F088B1805888B9EB
:1033200080916B0190916C01A0916D01B0916E0143
:10333000181619061A061B069CF480916B019091D1
:103340006C01A0916D01B0916E010197A109B109C5
:1033500080936B0190936C01A0936D01B0936E010B
:10336000FF91EF91BF91AF919F918F917F916F915D
:103370005F914F913F912F910F900FBE0F901F9033
:1033800018950E94E80EECCFEF92FF920F931F93D7
:10339000CF93DF93F82E192FE62E042F81E0860FAE
:1033A000880F0E943F0983E00E943F09CF2DD12F53
:1033B000EC0EFD2EF11CCE15DF05B9F007FF13C092
:1033C000FE0184910E943F09182F80E00E943F096E
:1033D000812321968111EFCFDF91CF911F910F9122
:1033E000FF90EF9008958881EDCF81E0F5CFEAE975
:1033F000F5E01382128288EE93E0A0E0B0E08483CF
:103400009583A683B7838BE291E0918380838FEFCE
:103410009FEF95878487EEE6F9E01582168280E1BA
:10342000878314821382118629E431E0318320835B
:1034300025E038E03093F9052093F80520E030E8E6
:103440003093F7052093F60546983E9A47983F9AA1
:10345000E4E6F9E0138212822DE331E03183208328
:1034600098E0918791E09087158216821482978365
:10347000E4E0F7E028E532E0DF01A9011D924150C8
:103480005040E1F710925C0910925E0910925D09BC
:1034900010925F09109260092DE730E030936209C5
:1034A0002093610993E0909363091092FB061092B8
:1034B000FD061092FC068093FE068093FF06109294
:1034C000000710920107109202070895CF93DF932F
:1034D00000D000D000D0CDB7DEB7789484B582603C
:1034E00084BD84B5816084BD85B5826085BD85B5A8
:1034F000816085BD80916E00816080936E00109226
:1035000081008091810082608093810080918100A0
:103510008160809381008091800081608093800031
:1035200080919100826080939100809191008160F0
:1035300080939100809190008160809390008091B1
:10354000C10084608093C1008091C100826080933B
:10355000C1008091C10081608093C1008091C3004F
:1035600081608093C3008091C00082608093C0001E
:103570008091C20081608093C20080917A00846053
:1035800080937A0080917A00826080937A008091A3
:103590007A00816080937A0080917A0080688093BD
:1035A0007A001092940110927B0110927A0180911E
:1035B000D70081608093D70080EA8093D80089B5D6
:1035C000806189BD89B5826089BD09B400FEFDCFE7
:1035D00061E070E080E090E00E94C80A8091D8002D
:1035E0008F7C80618093D8008091E000807F809301
:1035F000E0008091E1008E7E8093E1008DE0809379
:10360000E200559A209A81EC80937C0085B1806F0E
:1036100085B984B1877E84B984B1876E84B95E9A96
:103620005F988AB1806D8AB9769A6E9881B3806FFF
:1036300081BB899880B38D7080BB80E58CBD81E0B3
:103640008DBD85E090E00E94CC0D5F9A85E090E012
:103650000E94CC0D5E985C98EFEBF3E084918EBDF8
:1036600000000DB407FEFDCF319603E0EC3CF007FF
:10367000A9F75C9A81E8809364008091650081607D
:103680008093650080E00E94D6080E94D10D02E080
:1036900010E087FF15C05C9885EA8EBD00000DB470
:1036A00007FEFDCF5C9A2E982F982D98809164008C
:1036B00080628093640081E083BF889513BEFCCF55
:1036C0000E94D10D82FF3EC02D980E94D10D8478BA
:1036D0008438B9F42D9A88EC90E00E94CC0D2F9894
:1036E0001A8309836FEFCE0101960E945F1684EF63
:1036F00091E00E94CC0D2F9A0E94D10D84788438DD
:10370000D9F30E94D10D84718431B9F42D9A88ECDB
:1037100090E00E94CC0D2E981A83098360E0CE01C0
:1037200001960E945F1684EF91E00E94CC0D2E9AC4
:103730000E94D10D84718431D9F388EC90E00E940D
:10374000CC0DBECF2D9A82E090E00E94042B8823FE
:1037500009F461C03E9A3F9A81E080937C01809198
:1037600064008E7F8093640080917A0080648093EF
:103770007A0080917A0086FDFCCF0091780010914C
:1037800079000E94A30AAB01BC01C801B0E0A0E02F
:10379000DC01992788278C019D01040F151F261F26
:1037A000371FC901B8012091640021602093640093
:1037B000611571058105910511F00E94FB2A82E3D4
:1037C00090E00E94CC0D0E94D10D8111F8CF0E9493
:1037D000DC0FFBE52F2EF9E03F2E8FB7F8944091D8
:1037E0007D0150917E0160917F01709180018FBFBA
:1037F00080917609942F981B80917709882381F016
:10380000909378091092770980E090E0892B29F352
:103810000E940000E2CF10927C013E983F989FCF1B
:1038200020917509921740F49F5F921768F781E025
:1038300083BF889513BEE8CFFF24F394F0927709F5
:103840004093760920917109309172092F5F3F4FA3
:103850003093720920937109E5E9F1E081118FEF4E
:10386000002481938193819381930394D1F7809174
:103870007309809374090E94D10D8093730990910C
:103880008601913009F47EC058F0923009F428C1C5
:10389000933011F40C94062781E00E94D608B4CF2F
:1038A000909174099095892371F080918501882306
:1038B00019F08CE78093850180918501811107C003
:1038C00081E08093850180918501882341F08F5F9D
:1038D000809385018D3719F481E0809386014EE84D
:1038E0005FE061E170E08FE290E00E949B0D40E7B5
:1038F0005FE06AE170E08BE290E00E949B0D40E7A0
:103900005FE06AE170E089E490E00E949B0D109115
:103910008501111111C040E75FE06AE170E08AE3C0
:1039200090E00E949B0D40E25FE06EE270E08AE171
:1039300090E00E949B0DB0CF42E05FE06AE170E052
:103940008AE390E00E949B0D4FED5EE06EE270E036
:103950008CE290E00E949B0D812F6FE00E947D2BF6
:103960008370E82EF12C0FE410E0EF1409F494CFEB
:1039700041E061E370E0C8010E94F10DF3940E5F35
:103980001F4FF3CF80918401882319F081508093D9
:10399000840180918301882319F0815080938301F1
:1039A00080E20E94E508811171C080E40E94E50870
:1039B00081116FC088E00E94E508811105C084E094
:1039C0000E94E508882351F080918201813009F43A
:1039D0006FC082E0809386010E94DC0F41E75DE0CA
:1039E00068E070E088E090E00E949B0D21E040E4F8
:1039F00070E060E085E490E00E94FA0D21E040E490
:103A000070E060E087E490E00E94FA0D21E040E47D
:103A100070E060E088E490E00E94FA0D80918401FB
:103A2000882309F447C08FE490E043E65DE065E158
:103A300070E00E949B0D809183018823F1F183E760
:103A400090E045E55DE065E170E00E949B0D4DE191
:103A50005DE061E170E08BE590E00E949B0D80915C
:103A6000820120E0813061F14BEE5CE062E170E0C8
:103A70008CE590E00E94AC0D20E048EC5CE069E24F
:103A800070E084E590E00E94AC0D06CF88E0809362
:103A9000840180E40E94E508882319F088E080937F
:103AA00083018091820191E089278093820182CFF6
:103AB00083E090CF80E590E0B8CF82E790E0C1CF7F
:103AC00046E95CE062E170E08CE590E00E94AC0DBC
:103AD00020E040E85CE069E270E08AE590E0D3CF66
:103AE00000915C0980915F09823308F055C310E0B2
:103AF00088E00E94E5088823D1F0000F111F000F15
:103B0000111FC8018C5F984F0E94B40FF09260099A
:103B10000E94D10D83FF1092600984E00E94E508A5
:103B2000882309F4C8C081E080935F09FEC00E9429
:103B3000D10D83FFEDCF80916009882319F08F5F4D
:103B40008093600980E20E94E5088823B9F0109212
:103B50006009000F111F000F111FF801ED5FF84FF2
:103B60008381948120916109309162092817390776
:103B700078F6821B930B94838383CACF80E40E94E0
:103B8000E5088823E1F010926009000F111F000F73
:103B9000111FF801ED5FF84F838194812091610935
:103BA00030916209A90163E0440F551F6A95E1F75E
:103BB0008417950708F0ACCF820F931FDCCF80E805
:103BC0000E94E508882369F180915D0990915E0962
:103BD000892B09F49DCF000F111F000F111F0D5FDE
:103BE000184FD80111966D917C91809163090E94C4
:103BF0005610F8019283818360915D0970915E098E
:103C0000809163090E94561090935E0980935D092C
:103C100010926009D80111968D919C910E94960F87
:103C200077CF80E10E94E508882359F180915D09F2
:103C300090915E09892B09F46BCF000F111F000FC3
:103C4000111F0D5F184FF801618172818091630926
:103C50000E942910D80112969C938E93119760911F
:103C60005D0970915E09809163090E94291090930B
:103C70005E0980935D0910926009F801818192814B
:103C8000CDCF809160098A3108F442CF000F111F17
:103C9000000F111FF801ED5FF84F81819281813093
:103CA00000E8900730F09F7792838183109260093B
:103CB0002FCF9068F9CF0E94D10D82FF36C080E4EB
:103CC0000E94E508882309F4EBC010925F09E4E53F
:103CD000F9E024E930E080915C0990E02817390789
:103CE00060F080819181A281B38184839583A683D2
:103CF000B783215031093497EECFFC01EE0FFF1F3F
:103D0000EE0FFF1FE95FF84F21813281880F991F65
:103D1000880F991FFC01ED5FF84F3283218380915A
:103D2000610990916209948383830E94D10D82FF7F
:103D300010925F090E94D10D83FD67C10E94D10DD1
:103D400082FD63C180E20E94E5088823C1F0E09112
:103D50005C09EE23A1F0E150E0935C0924E0E29FCE
:103D6000F0011124ED5FF84F34978581968181151C
:103D700030E89307C9F390935E0980935D0980E46E
:103D80000E94E508882309F44AC020915C092111AA
:103D900007C080910407909105078115904821F490
:103DA0008FEF820F833938F52F5F20935C0930E065
:103DB000C901880F991F880F991FFC01ED5FF84F0B
:103DC000349745815681411560E85607C9F35093F1
:103DD0005E0940935D09220F331F220F331FF90143
:103DE000ED5FF84F218132812115304821F48C5F3D
:103DF000984F0E94B40F80915D0990915E09892BC4
:103E000071F4E09163098EE1E89FF0011124E2561C
:103E1000F44F8591949190935E0980935D0980E8B9
:103E20000E94E508882309F49AC0E0915C09E11139
:103E30007FC080910407909105078115904869F42F
:103E4000F4E0EF9FD0011124A95FB84F11968D9136
:103E50009C918115904809F06EC0EF5FE0935C097A
:103E600014E0E19FF0011124ED5FF84F3497658174
:103E70007681611520E87207C9F3809163090E9479
:103E8000561090935E0980935D0980915C0934E03F
:103E9000839FC00111248C5F984F0E94B40F4BC0C8
:103EA00080E20E94E5088823F1F0E0915C09EE23AE
:103EB000D1F010925F098E2F90E0DC01AA0FBB1F9A
:103EC000AA0FBB1FAC5FB84F85399105C8F40196A6
:103ED00014964D915D916D917C9117974D935D93E3
:103EE0006D937D93F1CF80915F09823308F01DCFF0
:103EF0000E94D10D82FF19CF80915F098F5F14CE90
:103F0000809161099091620990935F0980935E09A5
:103F1000E150E0935C0914E0E19FF0011124ED5FB2
:103F2000F84F8181928190935E0980935D09FDCE67
:103F3000E43908F485CF80915D0990915E09892B61
:103F400071F4E09163094EE1E49FF0011124E2561F
:103F5000F44F8591949190935E0980935D0980E17F
:103F60000E94E508882309F450C0E0915C09E11142
:103F700036C080910407909105078115904861F43F
:103F800064E0E69FD0011124A95FB84F11968D918E
:103F90009C918115904829F5EF5FE0935C0984E0DE
:103FA000E89FF0011124ED5FF84F34976581768129
:103FB000611590E87907C9F3809163090E9429107F
:103FC00090935E0980935D0980915C09A4E08A9FCB
:103FD000C00111248C5F984F0E94B40F02C0E439D5
:103FE00078F280915D0990915E09892B71F4E091DE
:103FF0006309BEE1EB9FF0011124E256F44F859175
:10400000949190935E0980935D0940E860E170E0CF
:1040100090E080E00E949F0840E868E170E090E056
:1040200080E00E949F0840E860E270E090E080E05D
:104030000E949F0840E868E270E090E080E00E9403
:104040009F0840E860E370E090E080E00E949F08F5
:10405000809171099091720960E370E00E94892B50
:10406000582EF0905C09EEE4AE2EB12CF6E04F2E07
:1040700080915C099CE0980FF916F8F414E0F19E29
:10408000F0011124EC5FF84F608071808280938092
:104090008F1107C06114710421F460905D09709064
:1040A0005E09611420E8720609F02FC325E243E09F
:1040B0006EE070E0C5010E94450E20915C0930E081
:1040C000290171E0471A5108C901880F991F880F0B
:1040D000991FDC01AD5FB84F3D014CEF4203F00189
:1040E000439FF00D1124FC83EB835EE4A52EB12CDD
:1040F0008C01035011091E830D8380915C09875147
:10410000990B481659060CF471C4EB81FC81E60D3D
:10411000F71D2D813E81E20FF31F00811181F30114
:10412000319780809180B801809163090E94851049
:1041300018160CF0D0C3D12CE82E880FFF082D2DB7
:1041400030E06091610970916209C4010E94892B7D
:10415000E216F3060CF4F1C344E050E0421B530BAB
:104160009A01220F331F220F331F2034310588F4A8
:104170008FEF860F482F440F480F440F475F5AEFC9
:104180005603C00111248A0D9B1DB90102970E949C
:104190009F08D394D394D3CF80910C01813009F43C
:1041A000D8C0B8F0823009F497C2833009F02DCF1F
:1041B00080E20E94E508882319F082E080930C01D8
:1041C00080E40E94E508882309F496C210920C014D
:1041D00093C280E20E94E508882319F083E080936F
:1041E0000C0180E40E94E508882319F081E08093A7
:1041F0000C0180E80E94E508882339F080910D01C8
:10420000882319F0815080930D0180E10E94E50818
:10421000882399F080910D01843078F48230A1F5E3
:10422000BE016F5F7F4F89E190E00E94F7108981A6
:10423000833619F483E080930D0184E00E94E50841
:10424000811110925F0988E00E94E508882309F433
:10425000DCCE80910D01823009F442C0B8F488238D
:1042600059F1813009F0D1CE80915C09E4E08E9F54
:10427000C00111248C5F984F209171002D7F2093F5
:1042800071001092990521C08F5FD5CF833009F45A
:1042900041C0843009F0B9CE89E190E09A838983E6
:1042A00064E6CE0101960E945F1680E280930307C8
:1042B00082E080930D01A9CE809171008D7F809363
:1042C00071001092990584E097E09093980580938F
:1042D000970590939605809395050E94E80E95CEDC
:1042E00083E68093030703E017E039E1E32EF12C26
:1042F000FA82E982D8016D918D01CE0101960E946A
:104300005F16BFEFEB1AFB0AEAE7EE16E2E0FE06E5
:1043100079F77BCEBE016F5F7F4F89E190E00E940D
:10432000F7108981833609F070CE03E017E029E1A8
:10433000E22EF12CC7010E94042BD8018D938D0130
:10434000BFEFEB1AFB0AEAE7EE16E2E0FE0691F792
:104350005CCE80E20E94E50810910F01882321F0D5
:10436000153011F410920C0180E40E94E5088823B6
:1043700029F0153019F482E080930C0180E80E9446
:10438000E508882349F080910E01882329F0153033
:1043900019F4815080930E0180E10E94E508882382
:1043A00059F180910E01843038F5153039F58F5F61
:1043B00080930E0188E00E94E508882389F085E05B
:1043C000153009F086C180910E01823009F46DC16B
:1043D00008F47FC1833009F46BC1843009F46BC1E8
:1043E00084E00E94E508882309F40FCE10925F094B
:1043F00085E080930F0109CE1530E1F280E20E9442
:10440000E508882341F080910E01882309F46BC0F0
:10441000813009F4A9C080E40E94E508882351F2A4
:1044200080910E01882309F401C1813019F6209191
:104430006309273008F0BECF81E0820F80936309C3
:10444000EFE02E9F900111246901FFE0CF0ED11CF7
:10445000A3E0B7E044E0049FC00111248D5F984FB2
:1044600011966D917C911297611550E87507A9F12D
:104470007B01EE24E0E8FE227F7750E040E0042F4D
:10448000FA01E20FF31FEE0FFF1FE057F44FA59064
:10449000B4906A157B0531F04F5F5F4F4F30510587
:1044A00071F700E0F601E00FF11DEE0FFF1FE0577E
:1044B000F44F45915491E42AF52A1296FC92EE921B
:1044C0001197FC01349745815681411500E850074A
:1044D000C9F350935E0940935D0914962A163B0672
:1044E00009F0BECF67CF2091610930916209E0E801
:1044F000FBE090E080E054915217130679F5863086
:1045000029F0FC01EE0FFF1FEE57F44FE491F0E0AD
:104510002E173F0709F47FCFF0936209E0936109FA
:1045200083E0E82E87E0F82ED70113968D919C91B9
:10453000B9010E94892B6E9FC0016F9F900D1124BD
:10454000D70114969C938E931397B4E0EB0EF11C55
:104550004BE5E41649E0F40639F75DCF0196329653
:104560008730910541F657CF80916309282F30E0BD
:104570002115310509F44FCF9FEF980F90936309F0
:104580004FE0849FC001112421503109429F6001F6
:10459000439FD00C1124A3E0B7E054E0059FB00185
:1045A00011246D5F784F11964D915C9112974115D2
:1045B000E0E85E07A9F17A01EE24F0E8FF225F77D8
:1045C00030E020E0922EF901E80FF91FEE0FFF1FF7
:1045D000E057F44FA590B4904A155B0531F02F5F7A
:1045E0003F4F2F30310571F7912CF601E90DF11D88
:1045F000EE0FFF1FE057F44F25913491E22AF32A82
:104600001296FC92EE921197FB0134972581368128
:10461000211540E83407C9F330935E0920935D0902
:1046200014962A163B0609F0BECFF5CE20916109FB
:1046300030916209E0E8FBE090E080E0549152178D
:10464000130669F5882329F0FC01EE0FFF1FE258DD
:10465000F44FE491F0E02E173F0709F4ABCEF0934E
:104660006209E093610983E0E82E87E0F82ED70124
:1046700013968D919C91B9010E94892B6E9FC00168
:104680006F9F900D1124D70114969C938E931397CE
:10469000B4E0EB0EF11C2E143F0449F78BCE0196CB
:1046A00032968730910551F685CE0E94DC0F98CE68
:1046B0000E94C71195CE10930F0110920C01109219
:1046C0000D0110920E0110925F0981E08093860126
:1046D00087CE80930F0184CE80E20E94E508882374
:1046E00019F081E080930C0180E40E94E5088823A2
:1046F00019F083E080930C0184E00E94E508882390
:1047000009F483CC10925F0980CCB30180916309D6
:104710000E94851018166CF5E12C082F880F110BDC
:10472000650132E0C31AD1088E2D90E008171907F1
:104730000CF44DC024E030E0281B390B220F331F4E
:10474000220F331F2034310588F460916109709184
:104750006209C4010E94892B6150462F440F460F05
:10476000440F475FB901C6010E949F08E394E39498
:10477000DBCF882361F1E12C482F552741950CF4BC
:1047800050956A018501025011092E2D30E0C216A4
:10479000D306ECF0245F3F4F220F331F220F331F4D
:1047A000203431058CF46091610970916209C40173
:1047B0000E94892B6150462F440F460F440F475FDC
:1047C000B901C8010E949F08E394E394DECF8114ED
:1047D000910479F180915C09F81222C058E15515D5
:1047E00008F16091610970916209C4010E94892BEE
:1047F000DD24DA94D60E80916309B30177FC47C0BB
:104800000E94A810682F70E0CC24C394ED2C0EE712
:1048100018E02D2D4EEF59E0C5010E94800B09C014
:104820008F15F8F280915D0990915E0968167906FE
:10483000C1F680915C09F8121DC068E16515D0F4DD
:10484000E0915D09F0915E09209163098114910462
:1048500059F5BF01822F0E94A810682F70E0CC2468
:10486000C394E12C0EE718E020E04AE755E0C501CB
:104870000E94800B6091610970916209C4010E94DD
:10488000892B649DA00CB11C1124F394F1CB0E94E0
:10489000A810682F70E0CC24C394ED2C0EE718E02C
:1048A0002D2D4CEF56E0B8CF6091610970916209EF
:1048B000C4010E94892BDD24DA94D60EBF01822F19
:1048C0000E94A810682F70E0CC24C394ED2C0EE752
:1048D00018E02D2DCACF882381F1D12C682F77279E
:1048E00061950CF470957B012D2D30E0609161098C
:1048F00070916209C4010E94892BE216F306ECF064
:10490000245F3F4F220F331F220F331F2034310506
:104910008CF48FEF860F482F440F480F440F475FEA
:104920007AEF7603C00111248A0D9B1DB90102970D
:104930000E949F08D394D394D7CF57FC2BC060918B
:10494000610970916209C4010E94892BFF24FA94C5
:10495000F60E80916309B80117FD30C00E94A810BF
:10496000E82FF0E06091610970916209C4010E9432
:10497000892B0AEF0603C0011124CC24C394EF2C29
:104980000EE718E02F2D4EEF59E0BF018A0D9B1D59
:104990000E94800B6091610970916209C4010E94BC
:1049A000892B2AEF2603B0011124A60EB71E31E091
:1049B000431A510844E0641A71089FCB0E94A81062
:1049C000E82FF0E06091610970916209C4010E94D2
:1049D000892B1AEF1603C0011124CC24C394EF2CA9
:1049E0000EE718E02F2D4CEF56E0CFCF80915F09F6
:1049F000823309F053C000E020E44DE470E060E051
:104A000083E390E00E94230E01E028E04CE470E094
:104A100060E084E390E00E94230E20E44CE470E028
:104A200060E084E390E00E94450E20E045E755E019
:104A300062E070E085E790E00E94BC0D20E040E776
:104A400055E062E070E089E790E00E94BC0D86E3EB
:104A5000809369098093680900936A0910926B0931
:104A600068E675E084E699E00E94D1091AE31093A4
:104A7000690910936809BBE0FB2EF0926A09009364
:104A80006B0980910C01813009F4D6C008F495C0FF
:104A9000823009F489C1833009F4B0C100E020E418
:104AA0004FE170E060E090E080E00E94230E21E0A2
:104AB00040E470E060E08DE190E00E94FA0D4DE18D
:104AC0005DE063E070E085E090E00E949B0D20E0F7
:104AD0004BEE5CE064E070E086E090E00E94AC0D9C
:104AE00001E027E04CE16CE170E090E080E00E94A2
:104AF000230E11E010936909109368098CE18093EB
:104B00006A0910926B0966E074E084E699E00E94FD
:104B1000D1096091630970E06F5F7F4F84E699E08F
:104B20000E946F1127E04CE165E270E090E080E0C8
:104B30000E94230E109369091093680985E28093FF
:104B40006A0910926B0980915C09893030F464E045
:104B500074E084E699E00E94D10980915C09833673
:104B600030F462E074E084E699E00E94D10960913B
:104B70005C0970E06F5F7F4F84E699E00E946F11DF
:104B800080E1809369098093680985E280936A09CE
:104B900066E970E084E699E00E946F1140E06AE205
:104BA00070E08EE090E00E94D90D4CEC53E061E3A0
:104BB00070E081E090E00C94991C67E575E084E674
:104BC00099E00E94D10965E475E084E699E00E94CD
:104BD000D10910936909109368098FE180936A09DC
:104BE00065E375E084E699E00E94D109BE016F5F3C
:104BF0007F4F89E190E00E94F710898162E175E0C2
:104C0000833641F463E275E084E699E00E94D109BD
:104C100065E175E084E699E00E94D109E0910D011B
:104C2000F0E0E35FFA4F649170E021E045E087E354
:104C300090E00E94FA0D32CF65E075E084E699E0DD
:104C40000E94D10980910F01811192C045E755E082
:104C50006CE070E085E590E00E949B0D40E755E038
:104C60006CE070E080E790E00E949B0D01E027E09F
:104C700044E16BE070E08AE590E00E94230E8EE54F
:104C80008093690980936809F0926A0910926B0910
:104C9000409161095091620970E060E02AE084E689
:104CA00099E00E94231181E080936B098AE380934D
:104CB000690980936809A3E1FA2EF0926A096DEF01
:104CC00074E084E699E00E94D10910910F0111303F
:104CD00009F060C045E755E064E170E085E590E0EB
:104CE0000E949B0D40E755E064E170E087E690E0AC
:104CF0000E949B0D01E027E04BE063E170E08AE554
:104D000090E00E94230E8EE58093690980936809E4
:104D1000F0926A0910926B096091630970E06F5F0D
:104D20007F4F84E699E00E946F1110936B091AE39C
:104D300010936909109368098FE180936A0961EE05
:104D400074E084E699E00E94D109109369091093F8
:104D5000680983E380936A0962ED74E084E699E070
:104D60000E94D109E0910E01F0E0E353FB4F5BCFCD
:104D7000409161095091620970E060E02AE084E6A8
:104D800099E00E94231161E671E084E699E00E94B7
:104D90007D1189CF6091630970E06F5F7F4F84E67A
:104DA00099E00E946F11C3CF88E3809369098093D3
:104DB00068096BEB74E084E699E00E94D10969EA26
:104DC00074E084E699E00E94D1096BE974E084E61E
:104DD00099E00E94D1096BE874E084E699E00E94B2
:104DE000D10969E774E084E699E00E94D10964E69C
:104DF00074E084E699E00E94D10950CE88E3809364
:104E00006909809368096DE074E0F3CF8091000731
:104E1000823308F018C188E00E94E5088823A9F1D0
:104E20008091010790E02091FC063091FD06A901D8
:104E300063E0569547956A95E1F7E091FB06880F88
:104E4000991F840F951FF4E0880F991FFA95E1F7D9
:104E500086509A4FE80FF92FF11D81812770332773
:104E600041E050E0BA0102C0660F771F2A95E2F7D1
:104E70009B01482F50E046235323452B09F487C05C
:104E8000209528232183109281010E94D10D82FD5B
:104E900056C00E94D10D83FF7FC080E80E94E508C4
:104EA000882379F08091FC069091FD06009749F0E7
:104EB00001979093FD068093FC06809181010E94EA
:104EC000C81080E10E94E5088823A1F08091FC06CB
:104ED0009091FD062091FF062150330B8217930716
:104EE00048F401969093FD068093FC068091810121
:104EF0000E94C81080E20E94E508882359F0809142
:104F0000FB06882339F081508093FB068091810154
:104F10000E94C81080E40E94E508882381F08091F7
:104F2000FB062091FE062150330B821713063CF43A
:104F30008F5F8093FB06809181010E94C81084E0FE
:104F40000E94E508882319F081E0809300070E9401
:104F5000D10D82FF13C010910007123378F480E85E
:104F60000E94E508882309F45CC010920007809134
:104F70000107882319F08150809301070E94D10D09
:104F800082FF109200070E94E8120C944C1C282B00
:104F90002183F092810179CF80E80E94E50888237F
:104FA00059F08091FC069091FD06009729F0019739
:104FB0009093FD068093FC0680E10E94E50888231B
:104FC00081F08091FC069091FD062091FF06215012
:104FD000330B8217930728F401969093FD06809374
:104FE000FC0680E20E94E508882339F08091FB06E8
:104FF000882319F081508093FB0680E40E94E50825
:10500000882309F49CCF8091FB062091FE06215055
:10501000330B821713060CF092CF8F5F8093FB0641
:105020008ECF80E10E94E508882349F010920007A6
:1050300080910107873008F0A1CF8F5F9DCF1F5F60
:10504000109300079BCF80911001813009F4DBC0E1
:10505000D0F0823009F097CF84E00E94E5088111FA
:105060001092000780E20E94E508882319F081E091
:105070008093100180E40E94E508882309F483CF1F
:105080001092100180CF80E20E94E508882319F079
:1050900082E08093100180E40E94E508882319F0E3
:1050A00081E08093100180E80E94E5088823B9F030
:1050B00080911101882399F0833009F05FC0BE010F
:1050C0006F5F7F4F8AE892E00E94F71089818336F4
:1050D00021F482E08093110102C01092110180E15D
:1050E0000E94E508882399F080911101843078F4BA
:1050F000811148C0BE016F5F7F4F8AE892E00E9435
:10510000F71089818336E1F581E08093110184E015
:105110000E94E50881111092000788E00E94E508CE
:10512000882309F430CF80911101823009F459C0ED
:1051300058F58823D9F1813009F025CFBE016F5F82
:105140007F4F8AE892E00E94F7108981833609F048
:105150001ACF0AEF15E09AE8E92E92E0F92EC7017E
:105160000E94042BD8018D938D01BFEFEB1AFB0A2F
:10517000E3E9EE16E3E0FE0691F705CF8150AACFF2
:1051800083E0C3CF8F5FC1CF8330D1F1843009F08A
:10519000FACE85E080931301109210011092120153
:1051A0001092000781E080938601EDCE83E6809324
:1051B000FA050AEF15E02AE8E22E22E0F22EFA8242
:1051C000E982D8016D918D01CE0101960E945F1692
:1051D000BFEFEB1AFB0AE3E9EE16E3E0FE0679F710
:1051E000D2CE8AE892E09A83898364E6CE01019662
:1051F0000E945F1680E28093FA0510921101C3CEDF
:105200000E94C711C0CE80E20E94E50810911301F0
:10521000882321F0153011F41092100180E40E94CF
:10522000E508882329F0153019F482E080931001F5
:1052300080E80E94E508882349F0809112018823C4
:1052400029F0153019F481508093120180E10E94F9
:10525000E508882309F449C080911201853008F0DF
:1052600044C0153009F044C08F5F8093120188E07C
:105270000E94E508882369F1153009F0EAC08091A1
:105280001201833009F49BC008F4B8C0843009F4DB
:10529000C2C08530F1F4E091010700E2E09FF00127
:1052A000112481E090E0DC01AE0FBF1FA650BA4F81
:1052B0002C9120952C93019681319105A1F7E55F02
:1052C000F94F80E19191DF01119790959C93815066
:1052D000C9F784E00E94E508882309F454CE1092AF
:1052E000000785E0809313014ECE153009F4BFCF3F
:1052F00080E20E94E508882341F08091120181300C
:1053000069F1D8F0823009F43FC080E40E94E508DA
:10531000882309F4ACCF80911201813009F446C092
:10532000E0F1823009F0A3CF80910207873008F0C6
:105330009ECF8F5F809302079ACF8091FE068230C6
:1053400018F081508093FE068091FB069091FE0636
:105350008913DBCF81508093FB06D7CF8091FF0666
:10536000823018F081508093FF068091FC06909166
:10537000FD062091FF062817190639F6019790932C
:10538000FD068093FC06C1CF80910207882309F4B3
:10539000BCCF815080930207B8CF8091FE06803148
:1053A00008F065CF8F5F8093FE0661CF8091FF0686
:1053B000803108F05CCF8F5F8093FF0658CF8091DB
:1053C000010710E2819FC001112486509A4F21E00D
:1053D00030E0FC01E20FF31F10822F5F3F4F2131BD
:1053E0003105B9F730E020E0FC01E20FF31F118A2C
:1053F0002F5F3F4F20313105B9F76BCF90910107F7
:10540000973038F49F5F909302078E5F809313016B
:1054100060CF90E0F8CF8AEF95E048E021E030E0FF
:10542000FC01E20FF31F10822F5F3F4F2131310546
:10543000B9F730E020E0FC01E20FF31F118A2F5F83
:105440003F4F20313105B9F7415080964111E6CFE9
:1054500040CF143099F5409102072091010750E2A6
:10546000259F9001112450E0FA0185E0EE0FFF1F07
:105470008A95E1F781E090E0DC01A20FB31FA6500E
:10548000BA4F6C91DC01AE0FBF1FA650BA4F6C93A0
:1054900001968131910581F7E55FF94F10EE140314
:1054A000B001159F700D112480E1DF01A60FB71F19
:1054B000A20FB31F9C9191938150B9F785E0A6CFBD
:1054C0008F929F92AF92BF92CF92DF92EF92FF9214
:1054D000CF93DF93EC01688179818A819B8161158B
:1054E00071058105910521F464E279ED8BE597E082
:1054F0002DE133EF41E050E00E941A2B49015A019F
:105500009B01AC01A7EAB1E40E94392B6B017C013D
:10551000ACEEB4EFA50194010E94472BC60ED71E36
:10552000E81EF91EF7FE06C081E0C81AD108E1089E
:1055300080E8F80AC882D982EA82FB82C701B601F4
:105540009F77DF91CF91FF90EF90DF90CF90BF904A
:10555000AF909F908F9008958F929F92AF92BF923D
:10556000CF92DF92EF92FF9260911401709115013A
:1055700080911601909117016115710581059105C2
:1055800021F464E279ED8BE597E02DE133EF41E022
:1055900050E00E941A2B49015A019B01AC01A7EA75
:1055A000B1E40E94392B6B017C01ACEEB4EFA50194
:1055B00094010E94472BC60ED71EE81EF91EF7FE67
:1055C00006C081E0C81AD108E10880E8F80AC09254
:1055D0001401D0921501E0921601F0921701C70153
:1055E000B6019F77FF90EF90DF90CF90BF90AF9084
:1055F0009F908F900895609314017093150180938C
:105600001601909317010895F999FECF92BD81BDBF
:10561000F89A992780B50895262FF999FECF1FBAD9
:1056200092BD81BD20BD0FB6F894FA9AF99A0FBECB
:1056300001960895052E97FB1EF400940E94312BCD
:1056400057FD07D00E944C2B07FC03D04EF40C945E
:10565000312B50954095309521953F4F4F4F5F4FDF
:10566000089590958095709561957F4F8F4F9F4FCE
:1056700008950E946E2BA59F900DB49F900DA49F3E
:10568000800D911D11240895B7FF0C94392B0E94B1
:10569000392B821B930B0895A1E21A2EAA1BBB1B68
:1056A000FD010DC0AA1FBB1FEE1FFF1FA217B307EE
:1056B000E407F50720F0A21BB30BE40BF50B661F04
:1056C000771F881F991F1A9469F7609570958095C8
:1056D00090959B01AC01BD01CF010895A29FB0013F
:1056E000B39FC001A39F700D811D1124911DB29F16
:1056F000700D811D1124911D0895991B79E004C03E
:10570000991F961708F0961B881F7A95C9F7809500
:105710000895AA1BBB1B51E107C0AA1FBB1FA617F8
:10572000B70710F0A61BB70B881F991F5A95A9F74A
:1057300080959095BC01CD010895EE0FFF1F059057
:0A574000F491E02D0994F894FFCFD6
:10574A00FFFFFFFF00E1000000000000000000056D
:10575A000000000501000000000103070F1F3F7F42
:10576A0000C1808100000000000000220AFB0A43F9
:10577A000A380A890A470A650A00000000760EF507
:10578A0009D10ED00E00000000750E0D0A00307807
:10579A00003000587E003A597E00496D61676520E5
:0657AA0000206D730000F9
:00000001FF
