:100000000C947E070C94A6070C94A6070C94A607E4
:100010000C94A6070C94A6070C94A6070C94A607AC
:100020000C94A6070C94A6070C94C5110C943412DA
:100030000C94A6070C94A6070C94A6070C94A6078C
:100040000C94A6070C94A6070C94A6070C94A6077C
:100050000C94A6070C94A6070C94A6070C9466149F
:100060000C94A6070C94A6070C94A6070C94A6075C
:100070000C94A6070C94A6070C94A6070C94A6074C
:100080000C94B0140C94A6070C94A6070C94A60725
:100090000C94A6070C94A6070C94A6070C94A6072C
:1000A0000C94A6070C94A6070C94A607207D3B0091
:1000B000002C00636F6E73742075696E74385F7402
:1000C00020706963747572655B5D2050524F474DB7
:1000D000454D203D207B00544F4E45535F454E44D7
:1000E000207D3B00002C20002C00636F6E73742079
:1000F00075696E7431365F74207468656D655B5D1B
:100100002050524F474D454D203D207B0003081F96
:10011000051F1F151B1F11111F110E1F15111F0584
:10012000011F111D1F041F001F0010101F1F041BA3
:100130001F10101F061F1F011F1F111F1F05071F64
:10014000311F1F051B17151D011F011F101F0F1049
:100150000F1F0C1F1B041B071C071915130C121E65
:100160001F120C1E12120C121F0C1A14041F052E43
:100170002A1E1F021C001D00201D001F041A011F43
:10018000001E041E1E021E1E121E3E120C0C123EEB
:100190001E020614120A020F121E101E0E100E1E50
:1001A000081E1A041A2E281E1A12161F111F021FCB
:1001B000001D151711151F07041F17151D1F151DED
:1001C00001011F1F151F17151F0017000010000841
:1001D0001C08201800001400080B00020202010095
:1001E000090400000102020000052400100105249A
:1001F000010101042402060524060001070581030C
:1002000010004009040100020A0000000705020274
:1002100040000007058302400000040309041201A6
:100220000002EF0201404123368000010102030178
:1002300041726475696E6F204C4C43004172647565
:10024000696E6F204C656F6E6172646F00D5F08DC2
:1002500014A1C881CFD9F1AF20004578706F7274B6
:1002600020746F2053657269616C0A5265747572EF
:100270006E20746F204D656E750020707800536994
:100280007A6520593A20002070780053697A6520F9
:10029000583A20000C141C2830496E766572742080
:1002A000496D6167650A00436C65617220496D6143
:1002B00067650A000A0A00436C6561722045455073
:1002C000524F4D0A004C6F61642066726F6D20457D
:1002D0004550524F4D0A005361766520746F20459A
:1002E0004550524F4D0A00544F4F4C424F58000555
:1002F00005110000001103030707071A051F09066F
:10030000001F051A001F1511000F100F001F001FFE
:100310001511000F181C0F1A0D00003E083E0018A2
:100320002418003E0018283E00003E7F41554B7FB8
:100330003E00001F05010C120C001E0400001F06E9
:100340001F000C1A14001E061C001E101E30003068
:100350000052616E67652000546F20696E636C7592
:100360006465206120726573742C0A73656C656323
:100370007420616E206578697374696E670A6E6FA8
:100380007465207468656E20707265737320616E89
:10039000640A686F6C64207468652041206275741B
:1003A000746F6E0A746F20746F67676C652E0042FD
:1003B0002B522020496E736572742061206E6F7419
:1003C000650A0A00422B4C202044656C6574652048
:1003D0006E6F74650A00412B4420204D6F766520B6
:1003E000646F776E0A00412B5520204D6F76652093
:1003F00075700A00412B522020457874656E642088
:100400006E6F74650A00412B4C2020536872696E30
:100410006B206E6F74650A00436C656172205475C1
:100420006E650A4578706F727420746F2053657220
:1004300069616C0A52657475726E20746F204D6527
:100440006E750052616E67653A200054656D706F7D
:100450003A20000C142028300A0A00436C656172AF
:1004600020454550524F4D0A004C6F616420667222
:100470006F6D20454550524F4D0A005361766520FF
:10048000746F20454550524F4D0A00506C617920E1
:1004900066726F6D20637572736F720A00506C61C3
:1004A000792066726F6D2073746172740A00544F04
:1004B0004F4C424F580003051F0E040305040E1F46
:1004C00030050E1111110E000000000000000000A8
:1004D000000000000000000000000000000000001C
:1004E000000000000000000000000000000000000C
:1004F00000000E1111111111111111110E00000047
:1005000000000000000000000000000000000000EB
:1005100000000000000000000000000000000000DB
:1005200000000E11111111111111111111111111E0
:1005300011110E000000000000000000000000008B
:1005400000000000000000000000000000000000AB
:1005500000000E11111111111111111111111111B0
:1005600011111111111111110E00000000000000F5
:10057000000000000000000000000000000000007B
:1005800000000E1111111111111111111111111180
:1005900011111111111111111111111111110E005F
:1005A000000000000000000000000000000000004B
:1005B00000000E1111111111111111111111111150
:1005C000111111111111111111111111111111111B
:1005D000111111110E0000000000000000000000C9
:1005E00000000E1111111111111111111111111120
:1005F00011111111111111111111111111111111EB
:10060000111111111111111111110E000000000032
:1006100000000E11111111111111111111111111EF
:1006200011111111111111111111111111111111BA
:1006300011111111111111111111111111111111AA
:100640000E0030050E1115110E0000000000000014
:10065000000000000000000000000000000000009A
:10066000000000000000000000000000000000008A
:10067000000000000E1115151515151515110E00A9
:10068000000000000000000000000000000000006A
:10069000000000000000000000000000000000005A
:1006A000000000000E111515151515151515151559
:1006B000151515110E0000000000000000000000DC
:1006C000000000000000000000000000000000002A
:1006D000000000000E111515151515151515151529
:1006E000151515151515151515110E00000000002E
:1006F00000000000000000000000000000000000FA
:10070000000000000E1115151515151515151515F8
:10071000151515151515151515151515151515118D
:100720000E000000000000000000000000000000BB
:10073000000000000E1115151515151515151515C8
:100740001515151515151515151515151515151559
:100750001515151515110E00000000000000000011
:10076000000000000E111515151515151515151598
:100770001515151515151515151515151515151529
:100780001515151515151515151515110E00000063
:10079000000000000E111515151515151515151568
:1007A00015151515151515151515151515151515F9
:1007B00015151515151515151515151515151515E9
:1007C00015110E000E1F1F1F0E000000000000007C
:1007D0000000000000000000000000000000000019
:1007E0000000000000000000000000000000000009
:1007F000000000000E1F1F1F1F1F1F1F1F1F0E00C6
:1008000000000000000000000000000000000000E8
:1008100000000000000000000000000000000000D8
:10082000000000000E1F1F1F1F1F1F1F1F1F1F1F65
:100830001F1F1F1F0E00000000000000000000002E
:1008400000000000000000000000000000000000A8
:10085000000000000E1F1F1F1F1F1F1F1F1F1F1F35
:100860001F1F1F1F1F1F1F1F1F1F0E000000000044
:100870000000000000000000000000000000000078
:10088000000000000E1F1F1F1F1F1F1F1F1F1F1F05
:100890001F1F1F1F1F1F1F1F1F1F1F1F1F1F1F1F68
:1008A0000E0000000000000000000000000000003A
:1008B000000000000E1F1F1F1F1F1F1F1F1F1F1FD5
:1008C0001F1F1F1F1F1F1F1F1F1F1F1F1F1F1F1F38
:1008D0001F1F1F1F1F1F0E00000000000000000050
:1008E000000000000E1F1F1F1F1F1F1F1F1F1F1FA5
:1008F0001F1F1F1F1F1F1F1F1F1F1F1F1F1F1F1F08
:100900001F1F1F1F1F1F1F1F1F1F1F1F0E00000065
:10091000000000000E1F1F1F1F1F1F1F1F1F1F1F74
:100920001F1F1F1F1F1F1F1F1F1F1F1F1F1F1F1FD7
:100930001F1F1F1F1F1F1F1F1F1F1F1F1F1F1F1FC7
:100940001F1F0E0030050E1F1F1F0E0000000000AD
:100950000000000000000000000000000000000097
:100960000000000000000000000000000000000087
:100970000000000000000E1F1F1F1F1F1F1F1F1F52
:100980000E00000000000000000000000000000059
:100990000000000000000000000000000000000057
:1009A0000000000000000E1F1F1F1F1F1F1F1F1F22
:1009B0001F1F1F1F1F1F0E0000000000000000006F
:1009C0000000000000000000000000000000000027
:1009D0000000000000000E1F1F1F1F1F1F1F1F1FF2
:1009E0001F1F1F1F1F1F1F1F1F1F1F1F0E00000085
:1009F00000000000000000000000000000000000F7
:100A00000000000000000E1F1F1F1F1F1F1F1F1FC1
:100A10001F1F1F1F1F1F1F1F1F1F1F1F1F1F1F1FE6
:100A20001F1F0E000000000000000000000000007A
:100A30000000000000000E1F1F1F1F1F1F1F1F1F91
:100A40001F1F1F1F1F1F1F1F1F1F1F1F1F1F1F1FB6
:100A50001F1F1F1F1F1F1F1F0E0000000000000090
:100A60000000000000000E1F1F1F1F1F1F1F1F1F61
:100A70001F1F1F1F1F1F1F1F1F1F1F1F1F1F1F1F86
:100A80001F1F1F1F1F1F1F1F1F1F1F1F1F1F0E00A6
:100A90000000000000000E1F1F1F1F1F1F1F1F1F31
:100AA0001F1F1F1F1F1F1F1F1F1F1F1F1F1F1F1F56
:100AB0001F1F1F1F1F1F1F1F1F1F1F1F1F1F1F1F46
:100AC0001F1F1F1F0E00FA00C800AF0096007D0018
:100AD00064004B0032001F002100250029002C007B
:100AE000310037003E0041004900520057006200CB
:100AF0006E007B003E00410049005200570062003A
:100B00006E007B0083009300A500AF00C400DC00F2
:100B1000F7007B0083009300A500AF00C400DC0059
:100B2000F700060126014A015D018801B801EE01C6
:100B3000F700060126014A015D018801B801EE01B6
:100B40000B024B029302BA0210037003DC03EE01A6
:100B50000B024B029302BA0210037003DC0317046A
:100B60009704270575052006E006B807DC0317047F
:100B70009704270575052006E006B8072D082D09FE
:100B80004D0AEA0A400CC00D6F0FB8072D082D0959
:100B90004D0AEA0A400CC00D6F0F5A105B129A14EE
:100BA000D4158018801BDE1E6F0F5A105B129A142A
:100BB000D4158018801BDE1EB420B5243429A72B41
:100BC00000310037BC3D14077C7E0B0B7E7C007F20
:100BD0007F19396F460001017F7F0101101200006B
:100BE000000080C060A0C8ECDCBC78F0E00000D859
:100BF000DA3BF5EE1F6F371B0D0600010000000009
:100C000000000000000000000000000000002107BC
:100C10007F7F060C067F7F003F7F40407F3F00269E
:100C20006F49497B3200417F7F41003E7F414163F4
:100C3000221012005050501090407EA21C40505084
:100C40005050000015151007C852911FF10E0115E4
:100C50001515000000000000000101010000000067
:100C60000000001214FE0101010101010101010156
:100C7000010101010101FEFF000000000000000071
:100C80000000000000000000FF070808080808082E
:100C90000808080808080808080807060BFFFE7C73
:100CA000B85020050201000000060B2050B87CFE61
:100CB000FF00000001020534328080808080808047
:100CC00080808080808080BFA1ED0DEDED0D01E181
:100CD000ADA1A1A1A1A1A1A1A1A1A1E10101E10158
:100CE000EDA1BF80808080808080808080FF0000B8
:100CF0007A007A7A7A7A7A7A7A7A7A7A7A7A7A7ACE
:100D00000000FE00FA3ABABABABA3A3AFAFAFAFA6D
:100D1000FAFAFAFAFAFAFA3ABABABA3A3A00FA0027
:100D2000FF0101FF0000FF00FFFFFFFFFFFFFFFFCC
:100D3000FFFFFF0000FC00FCE0E0EFEF6F6A656082
:100D40007C7C7C7C7C7C7C7C7C7C60606FEFEA05BE
:100D5000E00000FE0300007F40405F405F5F5F5F98
:100D60005F5F5F5F5F5F5F40404F405F5F5F5F5F00
:100D70005555555555555555555555555555555523
:100D8000555F5F405F40407F000000F8FC04048C2A
:100D90008800F8FC0404FCF800FCFC048CF87000EB
:100DA000FCFC2424040400FCFC64E4BC18000010D7
:100DB000180C04000098BC2424ECC80000000008B3
:100DC00009F9F9090800F0F90909F9F000F1F90940
:100DD00009F8F000F9F90101010100F9F94848F9B1
:100DE000B100F0F80808F8F00018B9E1E1B918000E
:100DF00000000000000303000000010302020301E1
:100E000000010302020301000303020202020003C5
:100E100003020203010001030202030100030300B5
:100E2000000303000021080F0F08080006090B0645
:100E3000000E03030E000F090F06000F0F000F0234
:100E4000030F000E0F090D000E10BEBDBEBDBEBDCE
:100E5000BEBDBEBDBEBDBE00000400040004000453
:100E60000004000400004E080F0D0702000F050FDC
:100E70000A000F0D0900020B0D00020B0D0000000F
:100E800000000F0D0702000F0F0808000E03030EED
:100E900000030E0E0300000006090B06000F0203FC
:100EA0000F00000000010F0F010E03030E000F0DD5
:100EB0000702000F0D090E10A7C7A7C7A7C7A7C72E
:100EC000A7C7A7C7A7000707070707070707070759
:100ED0000707070024080E1F1F1F0E000000000058
:100EE0000000000000001F0E0400000000000000D1
:100EF0000000040E1F00040E1F00441511241FBE25
:100F0000CFEFDAE0DEBFCDBF11E0A0E0B1E0ECEE64
:100F1000FFE402C005900D92A036B107D9F728E092
:100F2000A0E6B1E001C01D92A139B207E1F717E0D8
:100F3000CEE7D7E004C02197FE010E94EE27CD370F
:100F4000D107C9F70E94AB150C94F4270C9400004C
:100F5000809176010895480F592F511D14161506DA
:100F600084F5803891056CF597FF02C090E080E031
:100F70004138510514F040E850E0481BFB01E77090
:100F8000FF2721E001C0220FEA95EAF777FF02C0B0
:100F9000695F7F4FFB0133E0F595E7953A95E1F7FF
:100FA000F695FE2FEE27F795E795E80FF91FE15725
:100FB000FE4F415030F08191DF011197822B8C93CD
:100FC000F8CF089590918C08982329F490918B087C
:100FD000982381E009F480E00895FC0180918E015E
:100FE000882311F13FB7F89482E08093E9002091C3
:100FF000F200822F90E01816190614F481E090E0B8
:10100000882339F0289844E640938D014091F100FF
:101010004083222339F02091F200211103C02BE6F6
:101020002093E8003FBF08958FEF9FEF08952FB7FB
:10103000F89483E08093E9009091E800892F807212
:1010400095FF04C09091F20080E4891B2FBF0895A2
:101050008091850181110DC082E08093810184E03F
:1010600080938201109284011092830181E0809329
:10107000850181E891E008954091700150917101DE
:1010800020916E0130916F0142175307B4F4909193
:10109000E8009570E1F39091E80092FD19C080930B
:1010A000F100809170019091710101968F739927E1
:1010B000892B19F48EEF8093E80080917001909154
:1010C00071010196909371018093700181E0089500
:1010D00080E00895DF92EF92FF920F931F93CF93DA
:1010E000DF93D82E8A01EB017B01E40EF51ECE15AD
:1010F000DF0559F0D7FE12C0FE0184910E943C0822
:1011000021968111F4CF0FEF1FEFC801DF91CF912E
:101110001F910F91FF90EF90DF9008958881EECF9F
:101120000F931F93CF93DF931F92CDB7DEB782E06B
:10113000898342E450E068ED71E080E80E946A082B
:101140000E942808DC0112960D911C9101151105D1
:1011500089F0D801ED91FC910280F381E02DBE0170
:101160006F5F7F4FC801099597FD04C0F8010085A6
:101170001185ECCF89810F90DF91CF911F910F9155
:101180000895615030F02091F100FC012083019618
:10119000F8CF289884E680938D010895EF92FF920E
:1011A0000F931F93CF93DF938C017B01D0E0C0E0BE
:1011B000F701EC0FFD1F6491662361F0D801ED91FA
:1011C000FC910190F081E02DC8010995892B11F067
:1011D0002196EECFCE01DF91CF911F910F91FF901D
:1011E000EF900895AF92BF92CF92DF92EF92FF926D
:1011F0000F931F93CF93DF936C017B018B01040F3F
:10120000151FEB015E01AE18BF08C017D10759F0DA
:101210006991D601ED91FC910190F081E02DC6011C
:101220000995892B79F7C501DF91CF911F910F9116
:10123000FF90EF90DF90CF90BF90AF900895CF9345
:10124000DF931F92CDB7DEB76983DC01ED91FC918E
:101250000280F381E02D41E050E0BE016F5F7F4FDF
:1012600009950F90DF91CF91089583E08093E90075
:101270008091F200882319F08AE38093E8000895B2
:101280000E94170890E00895CF93DF931F92CDB787
:10129000DEB7FC018485958597FD08C02FEF3FEFF1
:1012A000358724870F90DF91CF910895CE01019665
:1012B0000E94ED07019719F4898190E0F3CF8FEF39
:1012C0009FEFF0CF0F931F93CF93DF931F92CDB774
:1012D000DEB78C01FC018485958597FF0BC0CE019C
:1012E00001960E94ED07019771F4898190E0F80161
:1012F00095878487F801848595850F90DF91CF913C
:101300001F910F9108958FEF9FEFF1CFFC0184851E
:10131000958597FD0BC09FB7F89482E08093E90014
:101320008091F2009FBF90E0019608959FB7F894D6
:1013300082E08093E9008091F2009FBF90E00895E1
:101340003FB7F89480916A0190916B01A0916C0174
:10135000B0916D0126B5A89B05C02F3F19F00196ED
:10136000A11DB11D3FBFBA2FA92F982F8827BC01FF
:10137000CD01620F711D811D911D42E0660F771F27
:10138000881F991F4A95D1F708958F929F92AF9227
:10139000BF92CF92DF92EF92FF926B017C010E948D
:1013A000A0094B015C01C114D104E104F104B9F0BE
:1013B0000E94A009681979098A099B09683E73404F
:1013C0008105910580F321E0C21AD108E108F108F6
:1013D00088EE880E83E0981EA11CB11CE4CFFF901C
:1013E000EF90DF90CF90BF90AF909F908F90089537
:1013F00065E070E080E090E00C94C5098F929F92C8
:10140000AF92BF92CF92DF92EF92FF920F931F9312
:10141000CF93DF936C017B018A0180910B018823BC
:1014200009F45CC080918E01882309F457C0809133
:10143000740180FF05C08091E00082608093E0002D
:10144000E801B12C8AEFA82E93E0892E2AE3922E90
:10145000209711F4BB20D9F10E94170881110AC00E
:10146000AA94AA20D9F161E070E080E090E00E94A7
:10147000C509EECF8C171D0611F00CF08C2F9FB70D
:10148000F8948092E9002091E80025FD02C09FBFFA
:10149000DFCF282F30E0C21BD30BF701815020F0A3
:1014A00041914093F100FACFE20EF31EBB2021F0F0
:1014B0009092E800B12CEBCF8091E80085FDE7CF5A
:1014C0009092E800BB24B394209709F3F3CF5D9882
:1014D00084E680937301101611063CF081E090E0E1
:1014E000F6019383828310E000E0C801DF91CF9181
:1014F0001F910F91FF90EF90DF90CF90BF90AF9032
:101500009F908F9008956F927F928F929F92AF924B
:10151000BF92CF92DF92EF92FF920F931F93CF93E0
:10152000DF934C01CB013A017C2DFA016491319695
:101530005491F2E06F0E711CC62FD0E0211102C051
:10154000EE2009F1E1E0F0E0352F377011F4F0E022
:10155000E0E0A52FA695A695A695AE0FBF2FB11DCD
:10156000AC9FF001AD9FF00DBC9FF00D11247330C6
:1015700009F08BC0EE0FFF1F2E9FD0012F9FB00DE3
:1015800011246A0E7B1ED401AC0FBD1F1A161B0658
:101590000CF06CC020E8821691040CF067C09C012E
:1015A000250F311D121613060CF060C08034910512
:1015B0000CF05CC06114710409F458C0382F377006
:1015C000FC0197FD379623E0F595E7952A95E1F71D
:1015D0002E2F97FF04C0332311F02FEF2E0FEE278D
:1015E000FF27E819F90997FC02C0F0E0E0E090E875
:1015F0009819A038B1050CF4962F9E1BA22F022E2D
:10160000000CBB0B4A2F40952F3F0CF040E0DD242F
:10161000D394852F877009F4D12C569556955695FD
:10162000D50EAD0DB11D19971CF058E0D52ED21A6C
:10163000D41A240F50E82503D0011124A80DB91D98
:10164000AE0FBF1F649FE00DF11D11246E0E7F1EB3
:10165000E32E032E000CFF08733009F423C108F5B4
:10166000713009F4D6C0723009F484C0DF91CF9193
:101670001F910F91FF90EF90DF90CF90BF90AF90B0
:101680009F908F907F906F9008950115110509F438
:1016900073CFEE9ED001EF9EB00D11240A0F1B1FD9
:1016A0006BCF7A3FB1F10D2D020F7B3FF9F620177A
:1016B000E9F2BD0161577E4FD12CC12CC91608F04B
:1016C000A2C0F301EC0DFD1DE491F0E0AF010E2C82
:1016D00002C0440F551F0A94E2F727FD06C0FB0124
:1016E0008081142F109581238083332361F027306C
:1016F00054F45B01F0E8AF0EB11C452F4095F501A5
:10170000808184238083FFEFCF1ADF0A6F5F7F4FD2
:10171000D5CF0D2D020F201709F4A8CFBD016157B9
:101720007E4FD12CC12CC91608F067C0F301EC0D17
:10173000FD1DE491F0E0AF010E2C02C0440F551FD7
:101740000A94E2F727FD04C0FB018081842B80838B
:10175000332351F0273044F45B01F0E8AF0EB11CA5
:10176000F5018081852B8083FFEFCF1ADF0A6F5F41
:101770007F4FD9CF6FEF70E0032E02C0660F771F47
:101780000A94E2F760957095972E8D2C820E28159D
:1017900009F46CCF8D0101571E4FD12CC12CC916F5
:1017A00030F5F301EC0DFD1DE491F0E0AF010E2CDE
:1017B00002C0440F551F0A94E2F727FD05C0F80147
:1017C00080818623842B8083332359F027304CF487
:1017D0005801F0E8AF0EB11CF50180818921852BFD
:1017E0008083FFEFCF1ADF0A0F5F1F4FD8CF2F5F25
:1017F0006C0E7D1EA058BF4FCACF2F5F6C0E7D1E92
:10180000A058BF4F88CF2F5F6C0E7D1EA058BF4FD2
:101810004ECF0E0F1F1F8D2D820F281709F426CFD4
:10182000BD0161577E4FD12CC12CC91698F5F80126
:10183000EC0DFD1DA490B12C0E2C02C0AA0CBB1CFB
:101840000A94E2F7A094B094F301EC0DFD1D84908E
:10185000912C0E2C02C0880C991C0A94E2F727FDEB
:1018600008C0FB014081E42FEA214E2F4829FB01EB
:101870004083332349F027303CF4FB01E058FF4F0D
:10188000A080BA20B928B082FFEFCF1ADF0A6F5FBD
:101890007F4FCBCF2F5F6C0E7D1E0C0F1D1FA058EE
:1018A000BF4FBBCFE92EF12CE60DF71DA157BE4F60
:1018B00060E870E06E197F09CE19DF09AE01440FB0
:1018C000551FC1E0D0E07E01032E01C0EE0C0A944A
:1018D000EAF7192F0D2D892E932ECF93DF93ED016B
:1018E000EF96EF962296A590C590992059F0AE9C60
:1018F0005001CE9C600127302CF4F880D094FD205C
:10190000FB28F99222233AF0FC90C094FC20FA289C
:10191000FD920C948C0C11961A9529F70A9551F0AA
:10192000182D23951124E40FF11DA60FB11DC60F2C
:10193000D11DD9CFDF91CF91112498CECF92EF92C4
:101940000F931F9322E0C22EE12C10E000E020E074
:101950000E94830A1F910F91EF90CF900895CF922C
:10196000EF920F931F933AEFC32EE12C10E000E0AB
:101970000E94830A1F910F91EF90CF900895CF920C
:10198000EF920F931F933BEFC32EE12C10E000E08A
:101990000E94830A1F910F91EF90CF9008958FB10D
:1019A0008095807F669B88601C9B8460089520E101
:1019B00091E061FD94E060FD990F62FD9295687F72
:1019C000269FD0011124A80FA157BE4F8C9140FF34
:1019D00003C0892B8C93089590958923FBCF803881
:1019E000910528F46034710510F40C94D70C089517
:1019F000DF92EF92FF920F931F93CF93DF937C01BF
:101A0000D22E8B01040F111DEB0177FF02C0D0E035
:101A1000C0E0C8010134110514F080E490E0C8175B
:101A2000D9073CF44D2DBE01C7010E94EF0C219651
:101A3000F0CFDF91CF911F910F91FF90EF90DF904A
:101A40000895CF92DF92EF92FF920F931F93CF935F
:101A5000DF936B01122FEC017C01E40EF11CCE151B
:101A6000DF0544F4202F412FB601CE010E94F80C6F
:101A70002196F5CFDF91CF911F910F91FF90EF90BD
:101A8000DF90CF900895EF92FF920F931F93CF9323
:101A9000DF937C018B01C42FD22F6034710510F4C9
:101AA0000E94AB07B8016D0F711D61507109603460
:101AB000710520F44C2FC7010E94AB0721E04D2F88
:101AC000B801C7010E94F80CC7018C0F911D21E0DD
:101AD0004D2FB8010197DF91CF911F910F91FF908A
:101AE000EF900C94F80C0895CF93DF93EC016A30DB
:101AF00059F48D818C838E819985890F8E8381E045
:101B000090E0DF91CF9108959C81603219F49E5F3F
:101B10009C83F5CF6E3711F49F5FFACF262F6E812D
:101B20006F5F2A3398F4203370F52B3271F140F453
:101B3000213269F198859D5F8C81890F8C83DFCF7D
:101B40002C3239F12E32B1F72FE30DC02B3530F4A2
:101B50002134B8F42A3371F722E405C08FE9820FEB
:101B600027548A3138F7062E000C770B892F990FEE
:101B7000990B3F814DE051E0313069F40E94AF0C88
:101B8000D9CF2154F0CF2C5FEECF20E4ECCF2EE361
:101B9000EACF21E4E8CF0E94BF0CCCCF089590E0BB
:101BA00080E0089520919305E0919105F0919205D0
:101BB000CF0102969093920580939105222319F00C
:101BC000859194910895808191810895CF92DF92BB
:101BD000EF92FF92CF93DF930E94D20D811520E800
:101BE000920791F4809171008D7F80937100109223
:101BF00091004698479810926201DF91CF91FF9033
:101C0000EF90DF90CF90089521E020936201813022
:101C100020E8920751F480918F0590919005909360
:101C20009205809391050E94D20D97FD05C02091E9
:101C30006101222309F45AC020916001211156C08C
:101C400021E020936301813020E8920710F090E0BA
:101C500080E0EC01DF77209709F04BC081E08093B2
:101C6000640146983FE9C32E3FE0D32EE12CF12CCE
:101C7000CAEFD0E0E091F205F091F30509958111EA
:101C800003C081E08093640180916301882329F07F
:101C900080916401882309F43FC047980E94D20DC7
:101CA0000097F1F19C01DE010E94BF27DC01CB010E
:101CB00029E0B595A795979587952A95D1F7109224
:101CC00090002AE020939100D0929900C092980051
:101CD0008093650190936601A0936701B0936801BA
:101CE0008091710082608093710087CF10926301B0
:101CF000AACF9E0150E040E060E472E48FE090E003
:101D00000E946B2769017A0181E0C81AD108E108B5
:101D1000F10810926401AECF4699BFCF479ABECF6B
:101D20008FEF9FEFDC01CBCF9C01E1E7F0E09081EA
:101D30009D7F908310929305E4EEF5E0F093920579
:101D4000E0939105F0939005E0938F053183208314
:101D50008BE490E09383828380E090E89583848392
:101D60000C94E60DFC018091750890917608208115
:101D70003181211540E8340781F4A091740844E0D2
:101D8000A49FD0011124A15EB94F12963C932E93CB
:101D90001197918380830C94940E91838083828128
:101DA0009381892B31F48091790890917A089383FB
:101DB00082830895809180018230A9F0E5EFF5E0FB
:101DC000119226E0E530F207D9F7E5E0F6E011924E
:101DD00086E0E531F807D9F710921706109216063B
:101DE0001092150608958091790890917A08EBE198
:101DF000F6E01282118294838383349628E0E337DD
:101E0000F207B9F783E080937B0880E090E8909335
:101E10001D0680931C06EEE3FBE085919491909360
:101E20007608809375081092740808957F779FE074
:101E3000899FA001112430E020E0FA01E20FF31F96
:101E4000EE0FFF1FEA52F54FA591B4916A177B0779
:101E500091F4211109C09EE1899FF0011124EA52F9
:101E6000F54F859194910895F9013197E40FF51F8D
:101E7000EE0FFF1FF4CF2F5F3F4F2F303105E9F6F4
:101E800080E090E008957F779FE0899FA001112472
:101E900030E020E0FA01E20FF31FEE0FFF1FEA52DD
:101EA000F54FA591B4916A177B07A1F42E3049F440
:101EB0009EE1899FF0011124EE50F54F8591949198
:101EC0000895F9013196E40FF51FEE0FFF1FEA5256
:101ED000F54FF4CF2F5F3F4F2F303105D9F680E01B
:101EE00090E008957F779FE0899FA001112430E062
:101EF00020E0822FFA01E20FF31FEE0FFF1FEA52DC
:101F0000F54FA591B4916A177B0741F4223010F484
:101F1000835008952C3038F08B5008952F5F3F4F39
:101F20002F30310531F780E008957F779FE0899F5A
:101F3000A001112430E020E0922FFA01E20FF31FFC
:101F4000EE0FFF1FEA52F54FA591B4916A177B0778
:101F500029F4990F990F8AE3891B08952F5F3F4F4A
:101F60002F30310549F780E00895409116065091D1
:101F700017069A0193E0369527959A95E1F7E09137
:101F8000150664E0220F331F6A95E1F72C503A4F93
:101F9000E20FF32FF11D91814770552721E030E0CA
:101FA00001C0220F4A95EAF7811104C02095292328
:101FB00021830895292BFCCFCF93DF93EB010E945F
:101FC00055278883CE01DF91CF910895FB010190C1
:101FD0000020E9F73197AF01461B570BDC01ED916B
:101FE000FC910280F381E02D0994CF93DF93BC0133
:101FF00084E995E00E94CE08EC016BE471E084E98D
:1020000095E00E94E60F8C0F9D1FDF91CF91089500
:102010008F929F92AF92BF92EF92FF920F931F9376
:10202000CF93DF93CDB7DEB7A1970FB6F894DEBF9D
:102030000FBECDBF7C01FA01CB0119A2223008F4FA
:102040002AE08E010F5D1F4F822E912CB12CA12C06
:10205000BF01A50194010E949D27F901CA016A30C0
:102060000CF5605DD8016E938D01232B242B252B5D
:1020700079F790E080E0109721F0BD01C7010E9440
:10208000E60FA1960FB6F894DEBF0FBECDBFDF916D
:10209000CF911F910F91FF90EF90BF90AF909F90C5
:1020A0008F900895695CDECFAB01770F660B770BDD
:1020B0002AE00C940810242F462F50E070E060E0D6
:1020C0000C9408100C94E60FCF93C82F6EE471E0C7
:1020D00084E995E00E946210C03130F461E571E05E
:1020E00084E995E00E94621040E150E06C2F84E9A1
:1020F00095E0CF910C945B10CF93DF93EC016EE4ED
:1021000071E084E995E00E946210C11580E1D80772
:10211000C8F461E571E084E995E00E946210CF3F68
:10212000D10509F078F461E571E084E995E00E9459
:102130006210C031D10530F461E571E084E995E0C9
:102140000E946210AE0170E060E020E184E995E059
:10215000DF91CF910C9408109F92AF92BF92CF92D3
:10216000DF92EF92FF920F931F93CF93DF93CDB740
:10217000DEB728970FB6F894DEBF0FBECDBF8091B3
:1021800080018230A9F0833009F461C028960FB62F
:10219000F894DEBF0FBECDBFDF91CF911F910F919D
:1021A000FF90EF90DF90CF90BF90AF909F900895F9
:1021B0008AEE90E00E94F50F0BE116E0F12CE12C85
:1021C000F80181819281C380D4808115F0E89F0756
:1021D00049F110F090E080E00E947C1068EE70E021
:1021E00084E995E00E94CE08C6010E947C1065EE4D
:1021F00070E084E995E00E94CE08E114F10449F012
:10220000C70187709927892B21F484EE90E00E9402
:10221000F50F3FEFE31AF30A0C5F1F4F86E9E8164C
:10222000F10471F687ED90E028960FB6F894DEBFC2
:102230000FBECDBFDF91CF911F910F91FF90EF9017
:10224000DF90CF90BF90AF909F900C94F50F88E0F7
:10225000E8E1F1E0DE01119601900D928A95E1F737
:1022600010911906812F8770682F70E016951695CA
:10227000169581111F5F84E995E00E94541063E573
:1022800071E084E995E00E946210E0911906E77020
:1022900021E030E02C0F3D1F2E0F311DF9014AE0E7
:1022A00050E0608184E995E00E945B106BE471E08E
:1022B00084E995E00E94E60FE0911906E770992401
:1022C0009A94EE2341F081E090E08C0F9D1F8E0FD9
:1022D000911DFC01908083EB90E00E94F50FF12CA2
:1022E000E12CE12FE150FF0B6F01E11690F500E0CA
:1022F000C70124E0880F991F2A95E1F79C012C5013
:102300003A4F590180911806081798F4F501E00F2B
:10231000F11D8181EC14FD0454F40E94641061EB02
:1023200070E084E995E00E94CE080F5FEBCF892131
:10233000F4CF8091190686958150990BE816F9061D
:1023400024F480EB90E00E94F50F3FEFE31AF30ACC
:10235000CCCF8CEA90E068CFFF920F931F93CF937E
:10236000DF93EC01F62E08811981C8010E945527E0
:10237000F81621F06F2DC8010E945D27CE01DF9174
:10238000CF911F910F91FF9008951F920F920FB65A
:102390000F9211248F939F938091E1009091E1001F
:1023A000937F9093E10083FF0FC01092E90091E0CA
:1023B0009093EB001092EC0092E39093ED0010925A
:1023C0008E0198E09093F00082FF22C093E09093FA
:1023D000E9009091F200992319F09AE39093E800B4
:1023E00090917301992341F09091730191509093D2
:1023F0007301911101C05D9A90918D01992341F073
:1024000090918D01915090938D01911101C0289A66
:1024100084FF18C08091E2008E7E81608093E2008C
:102420008091E1008F7E8093E100809174018E7E27
:102430008061809374019F918F910F900FBE0F90D8
:102440001F90189580FFF7CF8091E2008E7E80610B
:102450008093E2008091E1008E7E8093E100809184
:1024600074018E7E8160E5CF1F920F920FB60F929E
:102470001124CF92DF92EF92FF920F931F932F932D
:102480003F934F935F936F937F938F939F93AF93FC
:10249000BF93EF93FF93CF93DF93CDB7DEB76C97E6
:1024A000DEBFCDBF1092E9008091E80083FF25C018
:1024B00068E0CE0145960E94C10882EF8093E80053
:1024C0008D8987FF39C09091E80090FFFCCF982F4D
:1024D000907609F034C19E894F89588D2F89F88CE8
:1024E000911131C0803861F5809175018093F100C0
:1024F0001092F1008EEF8093E8006C960FB6F8947E
:10250000DEBF0FBECDBFDF91CF91FF91EF91BF91A5
:10251000AF919F918F917F916F915F914F913F917B
:102520002F911F910F91FF90EF90DF90CF900F9020
:102530000FBE0F901F9018959EEF9093E800C7CFA5
:102540001092F100D5CF913059F48111D3CF4130A1
:10255000510581F6809175018D7F80937501CACFF9
:10256000933049F48111C6CF4130510519F680915D
:1025700075018260F2CF953041F48091E80080FFD0
:10258000FCCF20682093E300B5CF963009F0A9C0B6
:102590000B8D1C8D22E01092E900109271011092B7
:1025A0007001F2122EC010926F0110926E010E9403
:1025B00090081F8299E09983FA8291E09E8390EAC5
:1025C00098879AEF99872091700130917101275F68
:1025D0003F4F3C832B838D831092E9001092710151
:1025E0001092700110936F0100936E0149E050E06A
:1025F000BE016F5F7F4F80E00E946A080E949008D2
:1026000079CF10936F0100936E010E942808DC01BE
:1026100012960D911C910115110509F451C1D801B3
:10262000ED91FC910480F581E02DBE016B5E7F4F42
:10263000C8010995009709F03EC1F8010085118590
:10264000EACFF3E0FF120EC08F89882309F440C05F
:10265000823061F440E860E18CE392E00E94111561
:10266000811148CF81E28093EB0047CF813029F47C
:1026700040E86BE080E392E0F1CF833099F70E946D
:102680002808DC011296ED90FC908E010F5F1F4F21
:102690006801E114F10479F0D701ED91FC91068015
:1026A000F781E02DB801C7010995080F111DF70149
:1026B000E084F184EECFD8011C92F6010190002055
:1026C000E9F73197BF016C197D0940E0C601C6CF1B
:1026D0006AE172E0FB01449150E080E80E946A08E0
:1026E00009CF973009F4BECF983021F481E0809370
:1026F000F10000CF993009F0FDCE837009F0B2CF20
:10270000E1E2F1E081E031E096E32191222371F0F2
:102710008093E9003093EB00DF0111972C91209317
:10272000EC009093ED008F5F873079F78EE7809310
:10273000EA001092EA008F8980938E01DBCE8B8DA8
:102740009C8D1092E900109271011092700190938B
:102750006F0180936E01898D811192C08E899D8950
:10276000913A49F4813209F07DCF47E050E064E0CE
:1027700071E080E0B3CF913209F074CF833269F415
:102780008F89988DB0E0A0E08093000190930101C3
:10279000A0930201B0930301ADCE803269F4809121
:1027A000E80082FFFCCF67E084E091E00E94C1086E
:1027B0008BEF8093E8009ECE823209F09BCE8F890A
:1027C00080930B01EEEFFFE7859194918B3F9C4D39
:1027D00051F1E0E0F8E08091040190910501A091B1
:1027E0000601B0910701803B9440A105B105F1F4C9
:1027F00080910B0180FD1AC0EE3F8AE0F80789F551
:1028000087E797E7918380838091600080937201CE
:1028100088E19BE00FB6F894A895809360000FBE06
:102820009093600067CEEEEFFAE0D5CF8081918182
:102830008737974709F05ECEA89580916000886140
:10284000809360008091720180936000EE3F2AE0E7
:10285000F20789F08091FE0A9091FF0A91838083AC
:1028600049CE808191818737980751F29093FF0A72
:102870008093FE0AC5CF1092FF0A1092FE0A3ACE4C
:102880000E942808DC0112960D911C91011511057A
:1028900009F4E8CED801ED91FC910190F081E02D92
:1028A000BE016B5E7F4FC8010995811123CEF801EF
:1028B00000851185EBCF181619060CF41BCED2CE6D
:1028C000F1E0FF12BECE6EE172E004CF1F920F92D4
:1028D0000FB60F9211242F933F938F939F93AF9333
:1028E000BF938091770190917801A0917901B09187
:1028F0007A013091690123E0230F2D3758F50196B5
:10290000A11DB11D209369018093770190937801F7
:10291000A0937901B0937A0180916A0190916B0143
:10292000A0916C01B0916D010196A11DB11D809324
:102930006A0190936B01A0936C01B0936D01BF91FC
:10294000AF919F918F913F912F910F900FBE0F905C
:102950001F90189526E8230F0296A11DB11DD2CF16
:102960001F920F920FB60F9211242F933F934F9304
:102970005F936F937F938F939F93AF93BF93EF93E7
:10298000FF938091650190916601A0916701B091DC
:102990006801892B8A2B8B2B09F440C0809164013C
:1029A00081110BC088B190E4892788B980916301B7
:1029B000882319F088B1805888B980916501909179
:1029C0006601A0916701B0916801181619061A06F0
:1029D0001B069CF48091650190916601A0916701AE
:1029E000B09168010197A109B109809365019093A5
:1029F0006601A0936701B0936801FF91EF91BF91C9
:102A0000AF919F918F917F916F915F914F913F9186
:102A10002F910F900FBE0F901F9018950E94E60DFA
:102A2000ECCFEF92FF920F931F93CF93DF93F82E8B
:102A3000192FE62E042F81E0860F880F0E943C0894
:102A400083E00E943C08CF2DD12FEC0EFD2EF11C0F
:102A5000CE15DF05B9F007FF13C0FE0184910E9477
:102A60003C08182F80E00E943C08812321968111A8
:102A7000EFCFDF91CF911F910F91FF90EF900895CD
:102A80008881EDCF81E0F5CFE4E9F5E01382128291
:102A900088EE93E0A0E0B0E084839583A683B783BB
:102AA0008BE291E0918380838FEF9FEF95878487FE
:102AB000E6E8F8E01582168280E1878314821382AB
:102AC000118629E431E03183208328EA37E030930E
:102AD000F3052093F20520E030E83093F1052093D0
:102AE000F00546983E9A47983F9AECE7F8E0138243
:102AF00012822DE331E03183208398E0918791E0C9
:102B000090871582168214829783ECE1F6E028E51F
:102B100032E0DF01A9011D9241505040E1F71092CF
:102B20007408109276081092750810927708109227
:102B300078082DE730E030937A082093790893E005
:102B400090937B08E4EFF5E011A213A212A284A3F4
:102B500085A316A20895CF93DF9300D000D0CDB700
:102B6000DEB7789484B5826084BD84B5816084BD0D
:102B700085B5826085BD85B5816085BD80916E001B
:102B8000816080936E00109281008091810082604C
:102B90008093810080918100816080938100809189
:102BA000800081608093800080919100826080939A
:102BB00091008091910081608093910080919000BC
:102BC0008160809390008091C10084608093C100F7
:102BD0008091C10082608093C1008091C1008160BA
:102BE0008093C1008091C30081608093C300809175
:102BF000C00082608093C0008091C2008160809399
:102C0000C20080917A00846080937A0080917A007B
:102C1000826080937A0080917A00816080937A004C
:102C200080917A00806880937A0010928E011092D1
:102C30007501109274018091D70081608093D70054
:102C400080EA8093D80089B5806189BD89B58260AA
:102C500089BD09B400FEFDCF61E070E080E090E046
:102C60000E94C5098091D8008F7C80618093D80034
:102C70008091E000807F8093E0008091E1008E7E73
:102C80008093E1008DE08093E200559A209A81ECD8
:102C900080937C0085B1806F85B984B1877E84B9CB
:102CA00084B1876E84B95E9A5F988AB1806D8AB963
:102CB000769A6E9881B3806F81BB899880B38D704E
:102CC00080BB80E58CBD81E08DBD0E94F8095F9AD4
:102CD0000E94F8095E985C98EDE4F2E084918EBD64
:102CE00000000DB407FEFDCF319602E0EA35F00793
:102CF000A9F75C9A81E88093640080916500816007
:102D0000809365000E94CF0C87FF15C05C9885EA10
:102D10008EBD00000DB407FEFDCF5C9A2E982F9853
:102D20002D988091640080628093640081E083BF6D
:102D3000889513BEFCCF809164008E7F80936400E1
:102D400080917A00806480937A0080917A0086FD79
:102D5000FCCF00917800109179000E94A009AB018E
:102D6000BC01C801B0E0A0E0DC01992788278C01F4
:102D70009D01040F151F261F371FC901B80120919F
:102D8000640021602093640061157105810591053F
:102D900011F00E944C273E9A3F9A81E08093760181
:102DA0000E94DA0E8FB7F894409177015091780124
:102DB0006091790170917A018FBF80918E08942F74
:102DC000981B80918F08882359F090939008109257
:102DD0008F0880E090E0892B29F30E940000E2CF69
:102DE00020918D08921740F49F5F921790F781E031
:102DF00083BF889513BEEDCFFF24F394F0928F0824
:102E000040938E082091890830918A082F5F3F4FA8
:102E100030938A0820938908EFE8F1E081118FEF61
:102E2000002481938193819381930394D1F78091BE
:102E30008B0880938C080E94CF0C80938B08909114
:102E40008001913009F48AC0B8F0923009F434C19D
:102E5000933011F40C94ED21EFE8F1E081E0A0E073
:102E6000B8E000800EBC8111012C1197A0FDFDCFB0
:102E70000192B9F70DB4ADCF90918C08909589234C
:102E800071F080917F01882319F08CE780937F0196
:102E900080917F01811107C081E080937F01809143
:102EA0007F01882341F08F5F80937F018D3719F474
:102EB00081E08093800144ED5EE061E170E08FE2AB
:102EC00090E00E949E0C46EB5EE06AE170E08BE2CF
:102ED00090E00E949E0C46EB5EE06AE170E089E4BF
:102EE00090E00E949E0C10917F01111111C046EBE1
:102EF0005EE06AE170E08AE390E00E949E0C46E6A4
:102F00005EE06EE270E08AE190E00E949E0CA4CF49
:102F100048E45EE06AE170E08AE390E00E949E0C83
:102F200045E25EE06EE270E08CE290E00E949E0C72
:102F3000812F6FE00E94CE278370E82E0FE410E00F
:102F4000F12CEF1409F488CF41E061E370E0C8018F
:102F50000E94EF0CF3940E5F1F4FF3CF80917E0120
:102F6000882319F0815080937E0180917D01882310
:102F700019F0815080937D0180E20E94E207811167
:102F800071C080E40E94E20781116FC088E00E9456
:102F9000E207811105C084E00E94E207882351F016
:102FA00080917C01813009F46FC082E080938001C0
:102FB0000E94DA0E47EB5CE068E070E088E090E0A9
:102FC0000E949E0C21E040E470E060E085E490E027
:102FD0000E94F80C21E040E470E060E087E490E0BB
:102FE0000E94F80C21E040E470E060E088E490E0AA
:102FF0000E94F80C80917E01882309F447C08FE479
:1030000090E049EA5CE065E170E00E949E0C8091EE
:103010007D018823F1F183E790E04BE95CE065E115
:1030200070E00E949E0C43E65CE061E170E08BE59D
:1030300090E00E949E0C80917C0120E0813061F143
:1030400041E35CE062E170E08CE590E00E94AF0C4F
:1030500020E04EE05CE069E270E084E590E00E94F0
:10306000AF0CFACE88E080937E0180E40E94E207F4
:10307000882319F088E080937D0180917C0191E0A4
:10308000892780937C0182CF83E090CF80E590E018
:10309000B8CF82E790E0C1CF4CED5BE062E170E039
:1030A0008CE590E00E94AF0C20E046EC5BE069E22A
:1030B00070E08AE590E0D3CF109174088091770892
:1030C000823308F05DC3012F10E088E00E94E20720
:1030D0008823D1F0C801880F991F880F991F845E3B
:1030E000994F0E94B20EF09278080E94CF0C83FF95
:1030F0001092780884E00E94E207882309F4C8C08F
:1031000081E080937708FEC00E94CF0C83FFEDCF53
:1031100080917808882319F08F5F8093780880E287
:103120000E94E2078823B9F010927808000F111F5F
:10313000000F111FF801E55EF94F83819481209102
:10314000790830917A082817390778F6821B930B93
:1031500094838383CACF80E40E94E2078823E1F04E
:1031600010927808000F111F000F111FF801E55E83
:10317000F94F838194812091790830917A08A901CF
:1031800063E0440F551F6A95E1F78417950708F02F
:10319000ACCF820F931FDCCF80E80E94E207882328
:1031A00069F18091750890917608892B09F49DCF7B
:1031B000000F111F000F111F055E194FD801119646
:1031C0006D917C9180917B080E94430FF80192835E
:1031D0008183609175087091760880917B080E94C8
:1031E000430F909376088093750810927808D80161
:1031F00011968D919C910E94940E77CF80E10E9450
:10320000E207882359F18091750890917608892BFF
:1032100009F46BCF000F111F000F111F055E194F2E
:10322000F8016181728180917B080E94160FD8019C
:1032300012969C938E931197609175087091760801
:1032400080917B080E94160F9093760880937508F2
:1032500010927808F80181819281CDCF8091780811
:103260008A3108F442CF000F111F000F111FF8011F
:10327000E55EF94F81819281813000E8900730F05E
:103280009F7792838183109278082FCF9068F9CF2F
:103290000E94CF0C82FF36C080E40E94E2078823A0
:1032A00009F4EBC010927708ECE6F8E024E930E08E
:1032B0008091740890E02817390760F0808191812F
:1032C000A281B38184839583A683B783215031097A
:1032D0003497EECFFC01EE0FFF1FEE0FFF1FE15EF4
:1032E000F94F21813281880F991F880F991FFC01A6
:1032F000E55EF94F328321838091790890917A08B5
:10330000948383830E94CF0C82FF109277080E94DF
:10331000CF0C83FD67C10E94CF0C82FD63C180E2A8
:103320000E94E2078823C1F0E0917408EE23A1F027
:10333000E150E093740824E0E29FF0011124E55E7F
:10334000F94F349785819681811530E89307C9F349
:10335000909376088093750880E40E94E2078823A2
:1033600009F44AC020917408211107C080911C06FD
:1033700090911D068115904821F48FEF820F8339BB
:1033800038F52F5F2093740830E0C901880F991F2A
:10339000880F991FFC01E55EF94F349745815681EE
:1033A000411560E85607C9F35093760840937508B5
:1033B000220F331F220F331FF901E55EF94F2181E0
:1033C00032812115304821F4845E994F0E94B20E5B
:1033D0008091750890917608892B71F4E0917B08B3
:1033E0008EE1E89FF0011124EC51F54F8591949105
:1033F000909376088093750880E80E94E2078823FE
:1034000009F49AC0E0917408E1117FC080911C0614
:1034100090911D068115904869F4F4E0EF9FD0016A
:103420001124A15EB94F11968D919C918115904800
:1034300009F06EC0EF5FE093740814E0E19FF001C3
:103440001124E55EF94F349765817681611520E896
:103450007207C9F380917B080E94430F909376080E
:10346000809375088091740834E0839FC001112413
:10347000845E994F0E94B20E4BC080E20E94E20728
:103480008823F1F0E0917408EE23D1F010927708D0
:103490008E2F90E0DC01AA0FBB1FAA0FBB1FA45EFA
:1034A000B94F85399105C8F4019614964D915D91F7
:1034B0006D917C9117974D935D936D937D93F1CFB3
:1034C00080917708823308F01DCF0E94CF0C82FFD5
:1034D00019CF809177088F5F14CE809179089091F1
:1034E0007A089093770880937608E150E093740807
:1034F00014E0E19FF0011124E55EF94F8181928192
:103500009093760880937508FDCEE43908F485CF52
:103510008091750890917608892B71F4E0917B0871
:103520004EE1E49FF0011124EC51F54F8591949107
:10353000909376088093750880E10E94E2078823C3
:1035400009F450C0E0917408E11136C080911C0666
:1035500090911D068115904861F464E0E69FD001CA
:103560001124A15EB94F11968D919C9181159048BF
:1035700029F5EF5FE093740884E0E89FF0011124DF
:10358000E55EF94F349765817681611590E879079A
:10359000C9F380917B080E94160F90937608809360
:1035A000750880917408A4E08A9FC0011124845E8C
:1035B000994F0E94B20E02C0E43978F280917508EA
:1035C00090917608892B71F4E0917B08BEE1EB9F26
:1035D000F0011124EC51F54F859194919093760868
:1035E0008093750840E860E170E090E080E00E9420
:1035F000AB0740E868E170E090E080E00E94AB0734
:1036000040E860E270E090E080E00E94AB0740E8B4
:1036100068E270E090E080E00E94AB0740E860E381
:1036200070E090E080E00E94AB0780918908909163
:103630008A0860E370E00E94DA27282EA0907408C0
:10364000B12CC501880F991F880F991FBC01655EB9
:10365000794F2B013EE4832E912C8091740890E0E9
:103660009C01245F3F4FA216B306F0F4D2011196DD
:103670000D911C91129713966D907C90A816B90627
:1036800039F40115110521F400917508109176089F
:103690000115B0E81B0709F024C325E243E06EE002
:1036A00070E0C4010E94430D2091740830E02901AC
:1036B000A1E04A1A5108C901880F991F880F991F64
:1036C000FC01E55EF94F3F014CEF42038001439F4F
:1036D000100D11241C830B830EE4A02EB12C1C01B1
:1036E00013E0211A3108809174088751990B48160C
:1036F00059060CF472C4EB81FC81E60DF71DE20D56
:10370000F31D00811181F301319780809180B80110
:1037100080917B080E94720F18160CF0D3C3D12C35
:10372000E82E880FFF082D2D30E060917908709108
:103730007A08C4010E94DA27E216F3060CF4F4C3F7
:1037400044E050E0421B530B9A01220F331F220F1B
:10375000331F2034310588F48FEF860F482F440F34
:10376000480F440F475F5AEF5603C00111248A0DDA
:103770009B1DB90102970E94AB07D394D394D3CF7A
:1037800080910C01813009F4D8C0B8F0823009F47E
:103790008FC2833009F026CF80E20E94E20788239F
:1037A00019F082E080930C0180E40E94E2078823F4
:1037B00009F48EC210920C018BC280E20E94E207D3
:1037C000882319F083E080930C0180E40E94E207D3
:1037D000882319F081E080930C0180E80E94E207C1
:1037E000882339F080910D01882319F0815080934E
:1037F0000D0180E10E94E207882399F080910D017C
:10380000843078F48230A1F5BE016F5F7F4F82E390
:1038100090E00E94DC0F8981833619F483E0809365
:103820000D0184E00E94E20781111092770888E080
:103830000E94E207882309F4D5CE80910D018230E1
:1038400009F442C0B8F4882359F1813009F0CACE96
:1038500080917408E4E08E9FC0011124845E994F2A
:10386000209171002D7F209371001092930521C04B
:103870008F5FD5CF833009F441C0843009F0B2CED8
:1038800082E390E09A83898364E6CE0101960E94E8
:10389000AC1180E280931B0682E080930D01A2CEE2
:1038A000809171008D7F80937100109293058CE15F
:1038B00096E0909392058093910590939005809364
:1038C0008F050E94E60D8ECE83E680931B060BE1EA
:1038D00016E032E3E32EF12CFA82E982D8016D91F1
:1038E0008D01CE0101960E94AC11BFEFEB1AFB0ACD
:1038F000E3E9EE16E2E0FE0679F774CEBE016F5FF3
:103900007F4F82E390E00E94DC0F8981833609F0CB
:1039100069CE0BE116E022E3E22EF12CC7010E94F2
:103920005527D8018D938D01BFEFEB1AFB0AE3E910
:10393000EE16E2E0FE0691F755CE80E20E94E20725
:1039400000910F01882321F0043011F410920C0132
:1039500080E40E94E207882329F0043019F482E011
:1039600080930C0180E80E94E207882349F080914F
:103970000E01882329F0043019F4815080930E0140
:1039800080E10E94E207882359F180910E01843082
:1039900038F5043039F58F5F80930E0188E00E947E
:1039A000E207882389F084E0043009F07EC1809129
:1039B0000E01823009F465C108F477C1833009F43F
:1039C00063C1843009F463C184E00E94E207882364
:1039D00009F408CE1092770884E080930F0102CE9C
:1039E0000430E1F280E20E94E207882341F08091F6
:1039F0000E01882309F466C0813009F4A4C080E474
:103A00000E94E207882351F280910E01882309F475
:103A1000F7C0813019F620917B08273008F0BECF1F
:103A200081E0820F80937B085FE0259F9001112445
:103A300079016FE0E60EF11CABE1B6E074E0179F90
:103A4000C0011124855E994F11966D917C9112975A
:103A50007F776115710571F150E040E0142FFA0194
:103A6000E20FF31FEE0FFF1FEA52F54FC590D490FF
:103A7000C616D70631F04F5F5F4F4F30510571F7D3
:103A800010E0F701E10FF11DEE0FFF1FEA52F54FB5
:103A90004591549112965C934E931197FC01349783
:103AA00045815681411510E85107C9F350937608B6
:103AB00040937508149643E758E04A175B0709F0EE
:103AC000C3CF6CCF2091790830917A08E6ECFAE008
:103AD00090E080E054915217130679F5863029F072
:103AE000FC01EE0FFF1FE853F54FE491F0E02E17B5
:103AF0003F0709F484CFF0937A08E09379088BE1CB
:103B0000E82E86E0F82ED70113968D919C91B9018D
:103B10000E94DA276E9FC0016F9F900D1124D7017C
:103B200014969C938E931397B4E0EB0EF11C43E72D
:103B300058E04E155F0539F762CF0196329687300F
:103B4000910541F65CCF80917B08282F30E021154C
:103B5000310509F454CF9FEF980F90937B084FE005
:103B6000849FC001112421503109429F7001439F5D
:103B7000F00C1124ABE1B6E054E0159FB001112424
:103B8000655E794F11964D915C9112975F77411563
:103B9000510571F130E020E0B22EF901E80FF91F74
:103BA000EE0FFF1FEA52F54FC590D490C416D5060C
:103BB00031F02F5F3F4F2F30310571F7B12CF701F6
:103BC000EB0DF11DEE0FFF1FEA52F54F25913491D9
:103BD00012963C932E931197FB01349725813681E1
:103BE000211540E83407C9F330937608209375080F
:103BF0001496E3E7F8E0EA17FB0709F0C3CFFFCE1E
:103C00002091790830917A08E6ECFAE090E080E0C3
:103C100054915217130679F5882329F0FC01EE0F11
:103C2000FF1FEC53F54FE491F0E02E173F0709F426
:103C3000B5CEF0937A08E09379088BE1E82E86E020
:103C4000F82ED70113968D919C91B9010E94DA2725
:103C50006E9FC0016F9F900D1124D70114969C9305
:103C60008E931397B4E0EB0EF11C43E758E04E152A
:103C70005F0539F793CE019632968730910541F66C
:103C80008DCE0E94DA0EA0CE0E94AC109DCE009385
:103C90000F0110920C0110920D0110920E01109262
:103CA000770881E0809380018FCE80930F018CCEC6
:103CB00080E20E94E207882319F081E080930C01E2
:103CC00080E40E94E207882319F083E080930C01CE
:103CD00084E00E94E207882309F484CC10927708DC
:103CE00081CCB80180917B080E94720F18166CF588
:103CF000312CC82E880FDD087401E2E0EE1AF108BD
:103D0000832D90E0C816D9060CF44EC024E030E0B4
:103D1000281B390B220F331F220F331F203431058C
:103D200088F46091790870917A08C3010E94DA27BB
:103D30006150462F440F460F440F475FB901C7013A
:103D40000E94AB0733943394DBCF882369F1312C85
:103D5000282F332721950CF430956901740132E046
:103D6000E31AF108232D30E0C216D306ECF0245FED
:103D70003F4F220F331F220F331F203431058CF4A5
:103D80006091790870917A08C3010E94DA27615026
:103D9000462F440F460F440F475FB901C7010E94E9
:103DA000AB0733943394DECF6114710491F18091A9
:103DB000740890E0A816B90611F548E1421510F113
:103DC0006091790870917A08C3010E94DA27FF2474
:103DD000FA94F60E80917B08B80117FD4FC00E943F
:103DE000950F682F70E0CC24C394EF2C04EC17E0FF
:103DF0002F2D44E459E0C4010E94830A0AC08A15A9
:103E00009B05F0F2809175089091760808171907C4
:103E1000B9F6809174088A151B04E9F458E152152B
:103E2000D0F4E0917508F091760820917B08611438
:103E3000710489F5BF01822F0E94950F682F70E0F1
:103E4000CC24C394E12C04EC17E020E040EC54E0D7
:103E5000C4010E94830A6091790870917A08C301B5
:103E60000E94DA2776E0679F800C911C11248FEF67
:103E7000A81AB80A94E0490E511CEFCB0E94950F86
:103E8000682F70E0CC24C394EF2C04EC17E02F2DA6
:103E900042E456E0B0CF6091790870917A08C3018E
:103EA0000E94DA27FF24FA94F60EBF01822F0E94A7
:103EB000950F682F70E0CC24C394EF2C04EC17E02E
:103EC0002F2DC4CF882381F1D12C682F77276195BE
:103ED0000CF470957B012D2D30E060917908709184
:103EE0007A08C4010E94DA27E216F306ECF0245F98
:103EF0003F4F220F331F220F331F203431058CF424
:103F00008FEF860F482F440F480F440F475F7AEF1B
:103F10007603C00111248A0D9B1DB90102970E94EE
:103F2000AB07D394D394D7CF57FC2BC060917908BB
:103F300070917A08C4010E94DA27FF24FA94F60EE1
:103F400080917B08B80117FD30C00E94950FE82FC3
:103F5000F0E06091790870917A08C4010E94DA2734
:103F60000AEF0603C0011124CC24C394EF2C04EC07
:103F700017E02F2D44E459E0BF018A0D9B1D0E94DC
:103F8000830A6091790870917A08C4010E94DA2747
:103F90002AEF2603B0011124A60EB71E31E0431A02
:103FA000510844E0641A71089ECB0E94950FE82FD7
:103FB000F0E06091790870917A08C4010E94DA27D4
:103FC0001AEF1603C0011124CC24C394EF2C04EC87
:103FD00017E02F2D42E456E0CFCF8091770882334F
:103FE00009F053C000E020E44DE470E060E083E3BA
:103FF00090E00E94210D01E028E04CE470E060E0D8
:1040000084E390E00E94210D20E44CE470E060E045
:1040100084E390E00E94430D20E04BEB54E062E02B
:1040200070E085E790E00E94BF0C20E046EB54E092
:1040300062E070E089E790E00E94BF0C86E3809325
:1040400081088093800800938208109283086EEAAA
:1040500074E08CE798E00E94CE081AE31093810880
:1040600010938008FBE0FF2EF092820800938308F3
:1040700080910C01813009F4D6C008F495C08230DB
:1040800009F479C1833009F4A0C100E020E44FE1D4
:1040900070E060E090E080E00E94210D21E040E4CB
:1040A00070E060E08DE190E00E94F80C43E65CE097
:1040B00063E070E085E090E00E949E0C20E041E328
:1040C0005CE064E070E086E090E00E94AF0C01E00C
:1040D00027E04CE16CE170E090E080E00E94210D6F
:1040E00011E010938108109380088CE1809382087E
:1040F0001092830861E573E08CE798E00E94CE0897
:1041000060917B0870E06F5F7F4F8CE798E00E94C2
:10411000541027E04CE165E270E090E080E00E94FE
:10412000210D109381081093800885E28093820806
:104130001092830880917408893030F46FE473E042
:104140008CE798E00E94CE0880917408833630F4A2
:104150006DE473E08CE798E00E94CE0860917408EB
:1041600070E06F5F7F4F8CE798E00E94541080E111
:10417000809381088093800885E28093820866E9B5
:1041800070E08CE798E00E94541040E06AE270E032
:104190008EE090E00E94D70C47E153E061E370E0CD
:1041A00081E090E00C9485176DE974E08CE798E06D
:1041B0000E94CE086BE874E08CE798E00E94CE087D
:1041C00010938108109380088FE1809382086BE739
:1041D00074E08CE798E00E94CE08BE016F5F7F4FCD
:1041E00082E390E00E94DC0F898168E574E0833609
:1041F00041F469E674E08CE798E00E94CE086BE534
:1042000074E08CE798E00E94CE08E0910D01F0E0A8
:10421000ED5AFB4F649170E021E045E087E390E0C8
:104220000E94F80C32CF6BE474E08CE798E00E94B7
:10423000CE0880910F01811182C04BEB54E06CE0FD
:1042400070E085E590E00E949E0C46EB54E06CE047
:1042500070E080E790E00E949E0C01E027E044E1DE
:104260006BE070E08AE590E00E94210D8EE580937E
:10427000810880938008F092820810928308409110
:10428000790850917A0870E060E02AE08CE798E0C5
:104290000E94081081E0809383088AE3809381085C
:1042A00080938008E3E1FE2EF092820863E474E0DC
:1042B0008CE798E00E94CE0810910F01113009F0B0
:1042C00050C04BEB54E064E170E085E590E00E9463
:1042D0009E0C46EB54E064E170E087E690E00E94BB
:1042E0009E0C01E027E04BE063E170E08AE590E09E
:1042F0000E94210D8EE58093810880938008F092C2
:1043000082081092830860917B0870E06F5F7F4F96
:104310008CE798E00E945410109383088AE38093FE
:104320008108809380088FE18093820868E174E0BF
:104330008CE798E00E94CE08E0910E0168CF409192
:10434000790850917A0870E060E02AE08CE798E004
:104350000E94081065E571E08CE798E00E94621009
:1043600099CF60917B0870E06F5F7F4F8CE798E09A
:104370000E945410D3CF88E38093810880938008F3
:1043800066E074E08CE798E00E94CE0864EF73E08A
:104390008CE798E00E94CE0866EE73E08CE798E028
:1043A0000E94CE0866ED73E08CE798E00E94CE088C
:1043B00064EC73E08CE798E00E94CE086FEA73E04B
:1043C0008CE798E00E94CE0860CE88E38093810855
:1043D0008093800868E573E0F3CF80911A068233FA
:1043E00008F0B3C188E00E94E207882359F14091A8
:1043F000160650911706FA0163E0F695E7956A955F
:10440000E1F72091150674E0EE0FFF1F7A95E1F7B2
:10441000EC50FA4FE20FF11D21814770552781E0E2
:1044200090E002C0880F991F4A95E2F7422F50E0B2
:1044300048235923452B09F43EC18095822381836B
:1044400010927B010E94CF0C83FF3AC180E80E944A
:10445000E207882379F0809116069091170600975D
:1044600049F00197909317068093160680917B017F
:104470000E94B50F80E10E94E2078823A1F080919D
:10448000160690911706209119062150330B8217BA
:10449000930748F40196909317068093160680912F
:1044A0007B010E94B50F80E20E94E207882359F049
:1044B00080911506882339F08150809315068091EC
:1044C0007B010E94B50F80E40E94E207882381F0FF
:1044D00080911506209118062150330B8217130680
:1044E0003CF48F5F8093150680917B010E94B50F8D
:1044F00084E00E94E207882319F081E080931A0685
:1045000080911A06823348F40E94CF0C82FF05C0C6
:1045100080911A068F5F80931A060E94CF0C82FF4B
:1045200010921A0643E65CE063E070E087E090E0FA
:104530000E949E0C20E04CED5BE064E070E088E0BF
:1045400090E00E94AF0C01E027E04FE16AE170E0EB
:1045500090E080E00E94210D21E040E470E060E006
:1045600080E290E00E94F80C2091150680911606DA
:10457000909117062A3008F07FC20A9708F481C28A
:1045800091E082E0890F80938108809380088AE11E
:10459000809382081092830869E571E08CE798E0C7
:1045A0000E9462104AE050E0609115068CE798E0A6
:1045B0000E945B106CE571E08CE798E00E9462104D
:1045C000409116065091170670E060E02AE08CE7F3
:1045D00098E00E94081020E04BEF52E064E270E0A7
:1045E00083E090E00E94AF0C209119062C5F40916F
:1045F00018064C5F6CE270E086E090E00E94430D8C
:10460000512C80911906581608F040C2052D10E073
:104610004801880C991C880C991C5401F3E0AF0EDA
:10462000B11C41E0B50182E290E00E94EF0C852DC3
:10463000877022242394312C02C0220C331C8A95CB
:10464000E2F7412C652C66946694669420E1629EA4
:1046500030011124A3014C505A4F3A01025D1F4F03
:1046600080911806481608F00FC2E42CF12C67015F
:10467000CC0CDD1CCC0CDD1CF301EE0DFF1D81818B
:1046800090E082219321892B71F020E046EF52E0E7
:10469000B401C60183960E94AF0C41E0B801C70186
:1046A00008960E94EF0C41E0B501C60186960E9473
:1046B000EF0C4394D5CF822B8183F0927B01C2CE45
:1046C00080E80E94E207882359F0809116069091B5
:1046D0001706009729F00197909317068093160606
:1046E00080E10E94E207882381F080911606909174
:1046F0001706209119062150330B8217930728F4CF
:104700000196909317068093160680E20E94E207B6
:10471000882339F080911506882319F08150809301
:10472000150680E40E94E207882309F4E1CE809117
:104730001506209118062150330B821713060CF032
:10474000D7CE8F5F80931506D3CE8091100188233A
:1047500009F455C0813009F0E5CE80E20E94E207FD
:1047600010911301882321F0143011F410921001DC
:1047700080E40E94E207882321F0143011F41092A3
:10478000100180E80E94E207882349F0809112011D
:10479000882329F0143019F481508093120180E1AC
:1047A0000E94E207882309F400C18091120183303E
:1047B00008F0FBC0143009F0FBC08F5F809312013A
:1047C00088E00E94E207882371F084E0143009F049
:1047D00041C180911201823009F43FC108F439C10E
:1047E000833009F43DC184E00E94E207882309F484
:1047F00099CE10921A0684E08093130193CE80E242
:104800000E94E2078111F092100180E40E94E20709
:10481000882319F081E08093100180E80E94E2076C
:104820008823B9F080911101882399F0833009F031
:1048300060C0BE016F5F7F4F82E593E00E94DC0F96
:104840008981833621F482E08093110102C01092A5
:10485000110180E10E94E207882399F08091110103
:10486000843078F4811149C0BE016F5F7F4F82E5CB
:1048700093E00E94DC0F89818336E9F581E0809323
:10488000110184E00E94E207811110921A0688E06B
:104890000E94E207882309F445CE809111018230FD
:1048A00009F474C060F5882309F455C0813009F01B
:1048B00039CEBE016F5F7F4F82E593E00E94DC0F2F
:1048C0008981833609F02ECE04EF15E042E5E42E0F
:1048D00043E0F42EC7010E945527D8018D938D0126
:1048E000BFEFEB1AFB0AE9E7EE16E3E0FE0691F7ED
:1048F00019CE8150A9CF83E0C2CF8F5FC0CF833064
:10490000D1F0843009F00ECEA4EFB5E0FD01818135
:1049100080958183319656E0E430F507C1F75196D2
:104920008C915197809551968C9351971196EA17D7
:10493000FB07A9F7F7CDE5EFF5E0119266E0E5306A
:10494000F607D9F7E5E0F6E085E196E011928E17DB
:104950009F07E1F7E7CD83E68093F40504EF15E0C8
:1049600052E5E52E53E0F52EFA82E982D8016D91E9
:104970008D01CE0101960E94AC11BFEFEB1AFB0A2C
:10498000E9E7EE16E3E0FE0679F7CCCD82E593E0A9
:104990009A83898364E6CE0101960E94AC1180E27D
:1049A0008093F40510921101BDCD143009F408CFA5
:1049B00080E20E94E207882331F08091120188236F
:1049C000C1F0813039F180E40E94E207882309F4C4
:1049D000F7CE80911201882399F1813009F0F0CE51
:1049E00080911906803108F0EBCE8F5F8093190615
:1049F000E7CE80911806823018F081508093180617
:104A000080911506909118068913DDCF815080930F
:104A10001506D9CF80911906823018F08150809305
:104A200019068091160690911706209119062817ED
:104A3000190649F601979093170680931606C3CF7F
:104A400080911806803108F0BBCE8F5F80931806E6
:104A5000B7CE8E5F80931301C6CE0E94AC10C3CE3A
:104A600010931301109210011092120110921A0665
:104A700081E080938001B7CE0A9708F481CD91E060
:104A800001C094E080E07ECD5394BBCD60911606CA
:104A900070911706660F771F660F771F61507109B7
:104AA0008091150654E0859FC001112482962091C3
:104AB000890830918A082F733327213208F4ECC01B
:104AC00025E045E00E94430D47E153E063E370E0D9
:104AD00086E690E00E949E0C80911A06823311F0C7
:104AE0000C942C1700E020E44BE470E060E085E3D8
:104AF00090E00E94210D01E028E04AE470E060E0CF
:104B000086E390E00E94210D20E44AE470E060E03A
:104B100086E390E00E94430D20E04BEB54E062E01E
:104B200070E085E790E00E94BF0C20E046EB54E087
:104B300062E070E089E790E00E94BF0C88E3809318
:104B4000810880938008009382081092830867EEA2
:104B500072E08CE798E00E94CE088CE38093810895
:104B6000809380081BE01093820800938308809153
:104B70001001882309F496C0813011F00C942C1791
:104B80006BE872E08CE798E00E94CE0880911301F8
:104B9000823009F0C8C04BEB54E06CE070E087E570
:104BA00090E00E949E0C46EB54E06CE070E082E7DF
:104BB00090E00E949E0C01E027E044E16BE070E091
:104BC0008CE590E00E94210D80E68093810880931F
:104BD000800810938208109283084AE050E06091A8
:104BE00018068CE798E00E945B1081E080938308B0
:104BF0008CE3809381088093800813E110938208EE
:104C00006EE772E08CE798E00E94CE088091130175
:104C1000833009F097C04BEB54E064E170E087E526
:104C200090E00E949E0C46EB54E064E170E082E765
:104C300090E00E949E0C01E027E044E163E170E017
:104C40008CE590E00E94210D80E68093810880939E
:104C5000800810938208109283084AE050E0609127
:104C600019068CE798E00E945B1081E0809383082E
:104C70008CE380938108809380088FE18093820881
:104C80006AE572E08CE798E00E94CE08E09112019C
:104C9000F0E0ED5AFB4F3DC020E04FEE52E00E94A5
:104CA000AF0C12CF67ED72E08CE798E00E94CE085F
:104CB000BE016F5F7F4F82E593E00E94DC0F898128
:104CC00064EB72E0833641F465EC72E08CE798E0C7
:104CD0000E94CE0867EB72E08CE798E00E94CE0855
:104CE0008CE3809381088093800887E28093820818
:104CF00067EA72E08CE798E00E94CE0869E972E00A
:104D00008CE798E00E94CE08E0911101F0E0EC56AB
:104D1000FD4F649170E021E045E089E390E00E945E
:104D2000F80C0C942C174AE050E0609118068CE7C0
:104D300098E00E945B1067E872E08CE798E00E94C0
:104D4000CE0853CF4AE050E0609119068CE798E016
:104D50000E945B106AE772E08CE798E00E94CE0840
:104D600084CF8F929F92AF92BF92CF92DF92EF92B9
:104D7000FF92CF93DF93EC01688179818A819B81D7
:104D8000611571058105910521F464E279ED8BE5EA
:104D900097E02DE133EF41E050E00E946B2749019D
:104DA0005A019B01AC01A7EAB1E40E948A276B017A
:104DB0007C01ACEEB4EFA50194010E949827C60EC9
:104DC000D71EE81EF91EF7FE06C081E0C81AD108FA
:104DD000E10880E8F80AC882D982EA82FB82C7012A
:104DE000B6019F77DF91CF91FF90EF90DF90CF904A
:104DF000BF90AF909F908F9008958F929F92AF92A7
:104E0000BF92CF92DF92EF92FF9260911401709166
:104E100015018091160190911701611571058105A9
:104E2000910521F464E279ED8BE597E02DE133EF14
:104E300041E050E00E946B2749015A019B01AC01FF
:104E4000A7EAB1E40E948A276B017C01ACEEB4EFC3
:104E5000A50194010E949827C60ED71EE81EF91ED0
:104E6000F7FE06C081E0C81AD108E10880E8F80A18
:104E7000C0921401D0921501E0921601F092170130
:104E8000C701B6019F77FF90EF90DF90CF90BF9062
:104E9000AF909F908F9008956093140170931501C7
:104EA00080931601909317010895F999FECF92BD52
:104EB00081BDF89A992780B50895262FF999FECFDC
:104EC0001FBA92BD81BD20BD0FB6F894FA9AF99A27
:104ED0000FBE01960895052E97FB1EF400940E94C4
:104EE000822757FD07D00E949D2707FC03D04EF470
:104EF0000C94822750954095309521953F4F4F4F08
:104F00005F4F089590958095709561957F4F8F4F75
:104F10009F4F08950E94BF27A59F900DB49F900DAD
:104F2000A49F800D911D11240895B7FF0C948A272A
:104F30000E948A27821B930B0895A1E21A2EAA1BB6
:104F4000BB1BFD010DC0AA1FBB1FEE1FFF1FA21739
:104F5000B307E407F50720F0A21BB30BE40BF50B36
:104F6000661F771F881F991F1A9469F760957095BF
:104F7000809590959B01AC01BD01CF010895A29F42
:104F8000B001B39FC001A39F700D811D1124911D1D
:104F9000B29F700D811D1124911D0895991B79E018
:104FA00004C0991F961708F0961B881F7A95C9F7B9
:104FB00080950895AA1BBB1B51E107C0AA1FBB1F08
:104FC000A617B70710F0A61BB70B881F991F5A9595
:104FD000A9F780959095BC01CD010895EE0FFF1FB4
:0C4FE0000590F491E02D0994F894FFCFA7
:104FEC00FFFFFFFF00E100000000000000000004D4
:104FFC000000000401000000000103070F1F3F7FA9
:10500C0000C18081000000000000001F09FE094063
:10501C0009350986094409620900000000740DF283
:10502C0008CF0DCE0D00000000730D0D0A00307876
:10503C000030002000206D7300587E003A597E002D
:00000001FF
