:100000000C94D0070C94F8070C94F8070C94F8079C
:100010000C94F8070C94F8070C94F8070C94F80764
:100020000C94F8070C94F8070C945B170C94CA17FF
:100030000C94F8070C94F8070C94F8070C94F80744
:100040000C94F8070C94F8070C94F8070C94F80734
:100050000C94F8070C94F8070C94F8070C94FC190E
:100060000C94F8070C94F8070C94F8070C94F80714
:100070000C94F8070C94F8070C94F8070C94F80704
:100080000C94461A0C94F8070C94F8070C94F80793
:100090000C94F8070C94F8070C94F8070C94F807E4
:1000A0000C94F8070C94F8070C94F8073000300013
:1000B00052616E67652000546F20696E636C7564D1
:1000C00065206120726573742C0A73656C656374B6
:1000D00020616E206578697374696E670A6E6F744B
:1000E00065207468656E20707265737320616E643C
:1000F0000A686F6C642074686520412062757474AE
:100100006F6E0A746F20746F67676C652E00422BE8
:10011000522020496E736572742061206E6F746581
:100120000A0A00422B4C202044656C657465206EE1
:100130006F74650A00412B4420204D6F7665206462
:100140006F776E0A00412B5520204D6F7665207524
:10015000700A00412B522020457874656E64206E31
:100160006F74650A00412B4C2020536872696E6BD6
:10017000206E6F74650A00436C6561722054756E61
:10018000650A4578706F727420746F2053657269C8
:10019000616C0A52657475726E20746F204D656EC5
:1001A000750052616E67653A200054656D706F3A54
:1001B00020000A0A00436C65617220454550524F89
:1001C0004D0A004C6F61642066726F6D204545508A
:1001D000524F4D0A005361766520746F204545509B
:1001E000524F4D0A00506C61792066726F6D20632A
:1001F0007572736F720A00506C61792066726F6D50
:100200002073746172740A00544F4F4C424F58006F
:1002100030050E1111110E0000000000000000005A
:1002200000000000000000000000000000000000CE
:1002300000000000000000000000000000000000BE
:1002400000000E1111111111111111110E000000F9
:10025000000000000000000000000000000000009E
:10026000000000000000000000000000000000008E
:1002700000000E1111111111111111111111111193
:1002800011110E000000000000000000000000003E
:10029000000000000000000000000000000000005E
:1002A00000000E1111111111111111111111111163
:1002B00011111111111111110E00000000000000A8
:1002C000000000000000000000000000000000002E
:1002D00000000E1111111111111111111111111133
:1002E00011111111111111111111111111110E0012
:1002F00000000000000000000000000000000000FE
:1003000000000E1111111111111111111111111102
:1003100011111111111111111111111111111111CD
:10032000111111110E00000000000000000000007B
:1003300000000E11111111111111111111111111D2
:10034000111111111111111111111111111111119D
:10035000111111111111111111110E0000000000E5
:1003600000000E11111111111111111111111111A2
:10037000111111111111111111111111111111116D
:10038000111111111111111111111111111111115D
:100390000E0030050E1115110E00000000000000C7
:1003A000000000000000000000000000000000004D
:1003B000000000000000000000000000000000003D
:1003C000000000000E1115151515151515110E005C
:1003D000000000000000000000000000000000001D
:1003E000000000000000000000000000000000000D
:1003F000000000000E11151515151515151515150C
:10040000151515110E00000000000000000000008E
:1004100000000000000000000000000000000000DC
:10042000000000000E1115151515151515151515DB
:10043000151515151515151515110E0000000000E0
:1004400000000000000000000000000000000000AC
:10045000000000000E1115151515151515151515AB
:100460001515151515151515151515151515151140
:100470000E0000000000000000000000000000006E
:10048000000000000E11151515151515151515157B
:10049000151515151515151515151515151515150C
:1004A0001515151515110E000000000000000000C4
:1004B000000000000E11151515151515151515154B
:1004C00015151515151515151515151515151515DC
:1004D0001515151515151515151515110E00000016
:1004E000000000000E11151515151515151515151B
:1004F00015151515151515151515151515151515AC
:10050000151515151515151515151515151515159B
:1005100015110E000E1F1F1F0E000000000000002E
:1005200000000000000000000000000000000000CB
:1005300000000000000000000000000000000000BB
:10054000000000000E1F1F1F1F1F1F1F1F1F0E0078
:10055000000000000000000000000000000000009B
:10056000000000000000000000000000000000008B
:10057000000000000E1F1F1F1F1F1F1F1F1F1F1F18
:100580001F1F1F1F0E0000000000000000000000E1
:10059000000000000000000000000000000000005B
:1005A000000000000E1F1F1F1F1F1F1F1F1F1F1FE8
:1005B0001F1F1F1F1F1F1F1F1F1F0E0000000000F7
:1005C000000000000000000000000000000000002B
:1005D000000000000E1F1F1F1F1F1F1F1F1F1F1FB8
:1005E0001F1F1F1F1F1F1F1F1F1F1F1F1F1F1F1F1B
:1005F0000E000000000000000000000000000000ED
:10060000000000000E1F1F1F1F1F1F1F1F1F1F1F87
:100610001F1F1F1F1F1F1F1F1F1F1F1F1F1F1F1FEA
:100620001F1F1F1F1F1F0E00000000000000000002
:10063000000000000E1F1F1F1F1F1F1F1F1F1F1F57
:100640001F1F1F1F1F1F1F1F1F1F1F1F1F1F1F1FBA
:100650001F1F1F1F1F1F1F1F1F1F1F1F0E00000018
:10066000000000000E1F1F1F1F1F1F1F1F1F1F1F27
:100670001F1F1F1F1F1F1F1F1F1F1F1F1F1F1F1F8A
:100680001F1F1F1F1F1F1F1F1F1F1F1F1F1F1F1F7A
:100690001F1F0E0030050E1F1F1F0E000000000060
:1006A000000000000000000000000000000000004A
:1006B000000000000000000000000000000000003A
:1006C0000000000000000E1F1F1F1F1F1F1F1F1F05
:1006D0000E0000000000000000000000000000000C
:1006E000000000000000000000000000000000000A
:1006F0000000000000000E1F1F1F1F1F1F1F1F1FD5
:100700001F1F1F1F1F1F0E00000000000000000021
:1007100000000000000000000000000000000000D9
:100720000000000000000E1F1F1F1F1F1F1F1F1FA4
:100730001F1F1F1F1F1F1F1F1F1F1F1F0E00000037
:1007400000000000000000000000000000000000A9
:100750000000000000000E1F1F1F1F1F1F1F1F1F74
:100760001F1F1F1F1F1F1F1F1F1F1F1F1F1F1F1F99
:100770001F1F0E000000000000000000000000002D
:100780000000000000000E1F1F1F1F1F1F1F1F1F44
:100790001F1F1F1F1F1F1F1F1F1F1F1F1F1F1F1F69
:1007A0001F1F1F1F1F1F1F1F0E0000000000000043
:1007B0000000000000000E1F1F1F1F1F1F1F1F1F14
:1007C0001F1F1F1F1F1F1F1F1F1F1F1F1F1F1F1F39
:1007D0001F1F1F1F1F1F1F1F1F1F1F1F1F1F0E0059
:1007E0000000000000000E1F1F1F1F1F1F1F1F1FE4
:1007F0001F1F1F1F1F1F1F1F1F1F1F1F1F1F1F1F09
:100800001F1F1F1F1F1F1F1F1F1F1F1F1F1F1F1FF8
:100810001F1F1F1F0E00207D3B0A00002C005B5D88
:100820002050524F474D454D203D207B00636F6E59
:1008300073742075696E74385F74207069637475A1
:10084000726500544F4E45535F454E44207D3B003A
:10085000002C20002C00636F6E73742075696E7419
:1008600031365F74207468656D655B5D2050524F52
:10087000474D454D203D207B0003081F051F1F15D8
:100880001B1F11111F110E1F15111F05011F111D17
:100890001F041F001F0010101F1F041B1F10101F1C
:1008A000061F1F011F1F111F1F05071F311F1F05D7
:1008B0001B17151D011F011F101F0F100F1F0C1FED
:1008C0001B041B071C071915130C121E1F120C1EEC
:1008D00012120C121F0C1A14041F052E2A1E1F02BE
:1008E0001C001D00201D001F041A011F001E041EF5
:1008F0001E021E1E121E3E120C0C123E1E0206147A
:10090000120A020F121E101E0E100E1E081E1A04CE
:100910001A2E281E1A12161F111F021F001D15174E
:1009200011151F07041F17151D1F151D01011F1F7E
:10093000151F17151F001700001000081C082018AD
:1009400000001400080B000202020100090400006C
:100950000102020000052400100105240101010428
:100960002402060524060001070581031000400942
:10097000040100020A00000007050202400000070F
:100980000583024000000403090412010002EF0283
:100990000140412336800001010203014172647568
:1009A000696E6F204C4C430041726475696E6F2014
:1009B0004C656F6E6172646F00D5F08D14A1C881B3
:1009C000CFD9F1AF20000705040E1F001F0E04054C
:1009D000071436773614422B202020202020496D22
:1009E00061676520646F776E0A00422B202020200B
:1009F0002020496D6167652075700A00412B202019
:100A000020202020546F67676C65202B206D6F7647
:100A1000650A00412B202020202020546F67676C3E
:100A200065202B206D6F76650A0041202020202054
:100A3000202020546F67676C6520706978656C0AA8
:100A4000000C142028304578706F727420746F2069
:100A500053657269616C0A52657475726E20746FA9
:100A6000204D656E75002070780053697A652059B5
:100A70003A20002070780053697A6520583A2000A7
:100A80000C141C283038496E7665727420496D61EB
:100A900067650A00436C65617220416C6C20496D8A
:100AA000616765730A00436C65617220496D616717
:100AB000650A000A0A00436C656172204545505280
:100AC0004F4D0A004C6F61642066726F6D20454582
:100AD00050524F4D0A005361766520746F20454592
:100AE00050524F4D0A00544F4F4C424F580003058F
:100AF0001F0E040305040E1F1A0D00003E083E00E1
:100B0000182418003E0018283E00003E7F41554B37
:100B10007F3E00001F05010C120C001E0400001F88
:100B2000061F000C1A14001E061C001E101E0505D0
:100B3000110000001103030707071A051F0906002B
:100B40001F051A001F1511000F100F001F001F15A1
:100B500011000F181C0F11073E7F41554B7F3E00BF
:100B6000081C08001436773614FA00C800AF009647
:100B7000007D0064004B0032001F00210025002989
:100B8000002C00310037003E004100490052005760
:100B90000062006E007B003E004100490052005799
:100BA0000062006E007B0083009300A500AF00C4CC
:100BB00000DC00F7007B0083009300A500AF00C4B9
:100BC00000DC00F700060126014A015D018801B83A
:100BD00001EE01F700060126014A015D018801B816
:100BE00001EE010B024B029302BA0210037003DC08
:100BF00003EE010B024B029302BA0210037003DCF6
:100C00000317049704270575052006E006B807DCDE
:100C10000317049704270575052006E006B8072D7D
:100C2000082D094D0AEA0A400CC00D6F0FB8072DB8
:100C3000082D094D0AEA0A400CC00D6F0F5A105BCF
:100C4000129A14D4158018801BDE1E6F0F5A105B89
:100C5000129A14D4158018801BDE1EB420B52434DB
:100C600029A72B00310037BC3D14077C7E0B0B7E7F
:100C70007C007F7F19396F460001017F7F010110E1
:100C8000120000000080C060A0C8ECDCBC78F0E07E
:100C90000000D8DA3BF5EE1F6F371B0D0600010090
:100CA0000000000000000000000000000000000044
:100CB0000021077F7F060C067F7F003F7F40407F3B
:100CC0003F00266F49497B3200417F7F41003E7FD4
:100CD000414163221012005050501090407EA21CDF
:100CE0004050505050000015151007C852911FF188
:100CF0000E011515150000000000000001010100A3
:100D00000000000000001214FE01010101010101B8
:100D1000010101010101010101FEFF0000000000CD
:100D20000000000000000000000000FF07080808A5
:100D30000808080808080808080808080807060B33
:100D4000FFFE7CB85020050201000000060B205079
:100D5000B87CFEFF000000010205343280808080F4
:100D600080808080808080808080BFA1ED0DEDED4F
:100D70000D01E1ADA1A1A1A1A1A1A1A1A1A1E101AB
:100D800001E101EDA1BF8080808080808080808033
:100D9000FF00007A007A7A7A7A7A7A7A7A7A7A7A9C
:100DA0007A7A7A0000FE00FA3ABABABABA3A3AFA4D
:100DB000FAFAFAFAFAFAFAFAFAFA3ABABABA3A3A93
:100DC00000FA00FF0101FF0000FF00FFFFFFFFFF2F
:100DD000FFFFFFFFFFFF0000FC00FCE0E0EFEF6F14
:100DE0006A65607C7C7C7C7C7C7C7C7C7C60606FCD
:100DF000EFEA05E00000FE0300007F40405F405F37
:100E00005F5F5F5F5F5F5F5F5F5F40404F405F5F5F
:100E10005F5F5F5555555555555555555555555564
:100E2000555555555F5F405F40407F000000F8FC1E
:100E300004048C8800F8FC0404FCF800FCFC048C1E
:100E4000F87000FCFC2424040400FCFC64E4BC18DE
:100E5000000010180C04000098BC2424ECC800000A
:100E600000000809F9F9090800F0F90909F9F0008A
:100E7000F1F90909F8F000F9F90101010100F9F9A6
:100E80004848F9B100F0F80808F8F00018B9E1E1B5
:100E9000B918000000000000030300000001030275
:100EA0000203010001030202030100030302020224
:100EB0000200030302020301000103020203010016
:100EC000030300000303000021080F0F08080006B9
:100ED000090B06000E03030E000F090F06000F0F8B
:100EE000000F02030F000E0F090D000E10BEBDBE55
:100EF000BDBEBDBEBDBEBDBEBDBE00000400040083
:100F00000400040004000400004E080F0D07020056
:100F10000F050F0A000F0D0900020B0D00020B0D4B
:100F200000000000000F0D0702000F0F0808000E60
:100F300003030E00030E0E0300000006090B06005B
:100F40000F02030F00000000010F0F010E03030E3C
:100F5000000F0D0702000F0D090E10A7C7A7C7A7A6
:100F6000C7A7C7A7C7A7C7A7000707070707070798
:100F70000707070707070024080E1F1F1F0E0000A2
:100F80000000000000000000001F0E040000000030
:100F90000000000000040E1F00040E1F0000DA1AFB
:100FA00011241FBECFEFDAE0DEBFCDBF11E0A0E01D
:100FB000B1E0E2E0F5E502C005900D92A636B1077A
:100FC000D9F729E0A6E6B1E001C01D92A837B20723
:100FD000E1F717E0C0EDD7E004C02197FE010E94C1
:100FE000792ACF3CD107C9F70E94471B0C947F2A6E
:100FF0000C94000080917C0108957F928F929F92C3
:10100000AF92BF92CF92DF92EF92FF920F931F9316
:10101000CF93DF939C01DB01FA0174913196E49147
:10102000870F911D972E803891051CF080E8982E2F
:10103000921AED0183E0D595C7958A95E1F78C2E3C
:1010400091E08E2F877009F490E0E695E695E6959D
:101050009E0FFE01E90FF11D399714F098E09C1BDB
:101060004E5F5F4F8A2F8770782E8E011695102F56
:10107000002717950795020F131FC82E880FDD084C
:101080007919E92DE70FFF27FF1F5F01882D8C1BC2
:10109000891708F03BC0B8016B567E4FF12CE12C4C
:1010A000E91470F5FA01EE0DFF1DA491B0E00C2CCF
:1010B00002C0AA0FBB1F0A94E2F7249130E00C2C67
:1010C00002C0220F331F0A94E2F72095309587FC67
:1010D00005C0FB01808182238A2B8083772051F019
:1010E000F6E0F8153CF0FB01E058FF4F80818323C8
:1010F0008B2B80832FEFE21AF20A6F5F7F4FD0CFE6
:101100004A0D5B1D00581F4F8394C0CFDF91CF91D4
:101110001F910F91FF90EF90DF90CF90BF90AF9015
:101120009F908F907F900895480F592F511D14164E
:10113000150684F5803891056CF597FF02C090E0A4
:1011400080E04138510514F040E850E0481BFB01B5
:10115000E770FF2721E001C0220FEA95EAF777FF49
:1011600002C0695F7F4FFB0133E0F595E7953A9543
:10117000E1F7F695FE2FEE27F795E795E80FF91FB3
:10118000EB56FE4F415030F08191DF011197822BD9
:101190008C93F8CF0895E5E9F1E0A0E0B8E0008095
:1011A0000EBC8111012C1197A0FDFDCF0192B9F762
:1011B0000DB4089590917309982329F490917209C0
:1011C000982381E009F480E00895FC018091940166
:1011D000882311F13FB7F89482E08093E9002091D1
:1011E000F200822F90E01816190614F481E090E0C6
:1011F000882339F0289844E6409393014091F10008
:101200004083222339F02091F200211103C02BE604
:101210002093E8003FBF08958FEF9FEF08952FB709
:10122000F89483E08093E9009091E800892F807220
:1012300095FF04C09091F20080E4891B2FBF0895B0
:1012400080918B0181110DC082E08093870184E041
:101250008093880110928A011092890181E0809325
:101260008B0187E891E008954091760150917701D4
:10127000209174013091750142175307B4F4909195
:10128000E8009570E1F39091E80092FD19C0809319
:10129000F100809176019091770101968F739927E3
:1012A000892B19F48EEF8093E8008091760190915C
:1012B00077010196909377018093760181E00895FC
:1012C00080E00895DF92EF92FF920F931F93CF93E8
:1012D000DF93D82E8A01EB017B01E40EF51ECE15BB
:1012E000DF0559F0D7FE12C0FE0184910E94340937
:1012F00021968111F4CF0FEF1FEFC801DF91CF913D
:101300001F910F91FF90EF90DF9008958881EECFAD
:101310000F931F93CF93DF931F92CDB7DEB782E079
:10132000898342E450E064E479E080E80E94620945
:101330000E942009DC0112960D911C9101151105E6
:1013400089F0D801ED91FC910280F381E02DBE017E
:101350006F5F7F4FC801099597FD04C0F8010085B4
:101360001185ECCF89810F90DF91CF911F910F9163
:101370000895615030F02091F100FC012083019626
:10138000F8CF289884E6809393010895EF92FF9216
:101390000F931F93CF93DF938C017B01D0E0C0E0CC
:1013A000F701EC0FFD1F6491662361F0D801ED9108
:1013B000FC910190F081E02DC8010995892B11F075
:1013C0002196EECFCE01DF91CF911F910F91FF902B
:1013D000EF900895AF92BF92CF92DF92EF92FF927B
:1013E0000F931F93CF93DF936C017B018B01040F4D
:1013F000151FEB015E01AE18BF08C017D10759F0E9
:101400006991D601ED91FC910190F081E02DC6012A
:101410000995892B79F7C501DF91CF911F910F9124
:10142000FF90EF90DF90CF90BF90AF900895CF9353
:10143000DF931F92CDB7DEB76983DC01ED91FC919C
:101440000280F381E02D41E050E0BE016F5F7F4FED
:1014500009950F90DF91CF91089583E08093E90083
:101460008091F200882319F08AE38093E8000895C0
:101470000E940F0990E00895CF93DF931F92CDB79C
:10148000DEB7FC018485958597FD08C02FEF3FEFFF
:10149000358724870F90DF91CF910895CE01019673
:1014A0000E94E508019719F4898190E0F3CF8FEF4E
:1014B0009FEFF0CF0F931F93CF93DF931F92CDB782
:1014C000DEB78C01FC018485958597FF0BC0CE01AA
:1014D00001960E94E508019771F4898190E0F80176
:1014E00095878487F801848595850F90DF91CF914A
:1014F0001F910F9108958FEF9FEFF1CFFC0184852D
:10150000958597FD0BC09FB7F89482E08093E90022
:101510008091F2009FBF90E0019608959FB7F894E4
:1015200082E08093E9008091F2009FBF90E00895EF
:101530003FB7F8948091700190917101A091720170
:10154000B091730126B5A89B05C02F3F19F00196F5
:10155000A11DB11D3FBFBA2FA92F982F8827BC010D
:10156000CD01620F711D811D911D42E0660F771F35
:10157000881F991F4A95D1F708958F929F92AF9235
:10158000BF92CF92DF92EF92FF926B017C010E949B
:10159000980A4B015C01C114D104E104F104B9F0D3
:1015A0000E94980A681979098A099B09683E734064
:1015B0008105910580F321E0C21AD108E108F10804
:1015C00088EE880E83E0981EA11CB11CE4CFFF902A
:1015D000EF90DF90CF90BF90AF909F908F90089545
:1015E0008F929F92AF92BF92CF92DF92EF92FF9233
:1015F0000F931F93CF93DF936C017B018A0180913E
:101600000B01882309F45CC080919401882309F4BC
:1016100057C080917A0180FF05C08091E000826010
:101620008093E000E801B12C8AEFA82E93E0892E88
:101630002AE3922E209711F4BB20D9F10E940F09C2
:1016400081110AC0AA94AA20D9F161E070E080E07B
:1016500090E00E94BD0AEECF8C171D0611F00CF031
:101660008C2F9FB7F8948092E9002091E80025FD27
:1016700002C09FBFDFCF282F30E0C21BD30BF70182
:10168000815020F041914093F100FACFE20EF31E19
:10169000BB2021F09092E800B12CEBCF8091E800C4
:1016A00085FDE7CF9092E800BB24B394209709F31F
:1016B000F3CF5D9884E680937901101611063CF013
:1016C00081E090E0F6019383828310E000E0C8019E
:1016D000DF91CF911F910F91FF90EF90DF90CF900E
:1016E000BF90AF909F908F9008956F927F928F924E
:1016F0009F92AF92BF92CF92DF92EF92FF920F93A1
:101700001F93CF93DF934C01CB013A017C2DFA015B
:10171000649131965491F2E06F0E711CC62FD0E0A7
:10172000211102C0EE2009F1E1E0F0E0352F377021
:1017300011F4F0E0E0E0A52FA695A695A695AE0FD2
:10174000BF2FB11DAC9FF001AD9FF00DBC9FF00D00
:101750001124733009F08BC0EE0FFF1F2E9FD001B4
:101760002F9FB00D11246A0E7B1ED401AC0FBD1F3C
:101770001A161B060CF06CC020E8821691040CF0BF
:1017800067C09C01250F311D121613060CF060C0B6
:10179000803491050CF05CC06114710409F458C0E8
:1017A000382F3770FC0197FD379623E0F595E795C4
:1017B0002A95E1F72E2F97FF04C0332311F02FEF66
:1017C0002E0FEE27FF27E819F90997FC02C0F0E079
:1017D000E0E090E89819A038B1050CF4962F9E1B14
:1017E000A22F022E000CBB0B4A2F40952F3F0CF06E
:1017F00040E0DD24D394852F877009F4D12C5695D1
:1018000056955695D50EAD0DB11D19971CF058E0A3
:10181000D52ED21AD41A240F50E82503D001112452
:10182000A80DB91DAE0FBF1F649FE00DF11D11245F
:101830006E0E7F1EE32E032E000CFF08733009F49A
:1018400023C108F5713009F4D6C0723009F484C0A0
:10185000DF91CF911F910F91FF90EF90DF90CF908C
:10186000BF90AF909F908F907F906F9008950115DB
:10187000110509F473CFEE9ED001EF9EB00D112437
:101880000A0F1B1F6BCF7A3FB1F10D2D020F7B3F6B
:10189000F9F62017E9F2BD016B567E4FD12CC12C11
:1018A000C91608F0A2C0F301EC0DFD1DE491F0E0B3
:1018B000AF010E2C02C0440F551F0A94E2F727FD1A
:1018C00006C0FB018081142F109581238083332370
:1018D00061F0273054F45B01F0E8AF0EB11C452FE6
:1018E0004095F501808184238083FFEFCF1ADF0AC2
:1018F0006F5F7F4FD5CF0D2D020F201709F4A8CFB2
:10190000BD016B567E4FD12CC12CC91608F067C0A3
:10191000F301EC0DFD1DE491F0E0AF010E2C02C0CF
:10192000440F551F0A94E2F727FD04C0FB01808194
:10193000842B8083332351F0273044F45B01F0E89B
:10194000AF0EB11CF5018081852B8083FFEFCF1A8C
:10195000DF0A6F5F7F4FD9CF6FEF70E0032E02C0B9
:10196000660F771F0A94E2F760957095972E8D2C7D
:10197000820E281509F46CCF8D010B561E4FD12C09
:10198000C12CC91630F5F301EC0DFD1DE491F0E01A
:10199000AF010E2C02C0440F551F0A94E2F727FD39
:1019A00005C0F80180818623842B8083332359F07E
:1019B00027304CF45801F0E8AF0EB11CF5018081DE
:1019C0008921852B8083FFEFCF1ADF0A0F5F1F4F1E
:1019D000D8CF2F5F6C0E7D1EA058BF4FCACF2F5F90
:1019E0006C0E7D1EA058BF4F88CF2F5F6C0E7D1EE2
:1019F000A058BF4F4ECF0E0F1F1F8D2D820F2817DF
:101A000009F426CFBD016B567E4FD12CC12CC916CF
:101A100098F5F801EC0DFD1DA490B12C0E2C02C020
:101A2000AA0CBB1C0A94E2F7A094B094F301EC0D4D
:101A3000FD1D8490912C0E2C02C0880C991C0A94D8
:101A4000E2F727FD08C0FB014081E42FEA214E2F79
:101A50004829FB014083332349F027303CF4FB0144
:101A6000E058FF4FA080BA20B928B082FFEFCF1A0C
:101A7000DF0A6F5F7F4FCBCF2F5F6C0E7D1E0C0F89
:101A80001D1FA058BF4FBBCFE92EF12CE60DF71D4F
:101A9000AB56BE4F60E870E06E197F09CE19DF09C2
:101AA000AE01440F551FC1E0D0E07E01032E01C0FE
:101AB000EE0C0A94EAF7192F0D2D892E932ECF9351
:101AC000DF93ED01EF96EF962296A590C5909920B1
:101AD00059F0AE9C5001CE9C600127302CF4F88068
:101AE000D094FD20FB28F99222233AF0FC90C09478
:101AF000FC20FA28FD920C947E0D11961A9529F778
:101B00000A9551F0182D23951124E40FF11DA60F0D
:101B1000B11DC60FD11DD9CFDF91CF91112498CE21
:101B2000CF92EF920F931F9322E0C22EE12C10E090
:101B300000E020E00E94750B1F910F91EF90CF9075
:101B40000895CF92EF920F931F933AEFC32EE12C9B
:101B500010E000E00E94750B1F910F91EF90CF9065
:101B60000895CF92EF920F931F933BEFC32EE12C7A
:101B700010E000E00E94750B1F910F91EF90CF9045
:101B80000895BC0190E080E00C94BD0A8FB180956F
:101B9000807F669B88601C9B8460089520E191E0B3
:101BA00061FD94E060FD990F62FD9295687F269F2C
:101BB000D0011124A80FAB56BE4F8C9140FF03C03B
:101BC000892B8C93089590958923FBCF80389105BC
:101BD00028F46034710510F40C94CE0D0895DF9252
:101BE000EF92FF920F931F93CF93DF937C01D22E3E
:101BF0008B01040F111DEB0177FF02C0D0E0C0E0A4
:101C0000C8010134110514F080E490E0C817D90729
:101C10003CF44D2DBE01C7010E94E60D2196F0CF88
:101C2000DF91CF911F910F91FF90EF90DF9008957A
:101C3000CF92DF92EF92FF920F931F93CF93DF9398
:101C40006B01122FEC017C01E40EF11CCE15DF05B7
:101C500044F4202F412FB601CE010E94EF0D2196B2
:101C6000F5CFDF91CF911F910F91FF90EF90DF9013
:101C7000CF900895EF92FF920F931F93CF93DF932E
:101C80007C018B01C42FD22F6034710510F40E94A7
:101C90009408B8016D0F711D6150710960347105B0
:101CA00020F44C2FC7010E94940821E04D2FB80169
:101CB000C7010E94EF0DC7018C0F911D21E04D2F30
:101CC000B8010197DF91CF911F910F91FF90EF9095
:101CD0000C94EF0D0895CF93DF93EC016A3059F423
:101CE0008D818C838E819985890F8E8381E090E030
:101CF000DF91CF9108959C81603219F49E5F9C839F
:101D0000F5CF6E3711F49F5FFACF262F6E816F5F8C
:101D10002A3398F4203370F52B3271F140F42132DC
:101D200069F198859D5F8C81890F8C83DFCF2C3280
:101D300039F12E32B1F72FE30DC02B3530F42134B9
:101D4000B8F42A3371F722E405C08FE9820F2754D3
:101D50008A3138F7062E000C770B892F990F990BD3
:101D60003F8149E758E0313069F40E94A10DD9CF95
:101D70002154F0CF2C5FEECF20E4ECCF2EE3EACF5E
:101D800021E4E8CF0E94B10DCCCF089590E080E02F
:101D9000089520919905E0919705F0919805CF015C
:101DA00002969093980580939705222319F08591C8
:101DB00094910895808191810895CF92DF92EF925E
:101DC000FF92CF93DF930E94C90E811520E89207FE
:101DD00091F4809171008D7F809371001092910039
:101DE0004698479810926801DF91CF91FF90EF904D
:101DF000DF90CF90089521E020936801813020E8A2
:101E0000920751F4809195059091960590939805CD
:101E1000809397050E94C90E97FD05C02091670128
:101E2000222309F45AC020916601211156C021E0F5
:101E300020936901813020E8920710F090E080E063
:101E4000EC01DF77209709F04BC081E080936A01B5
:101E500046983FE9C32E3FE0D32EE12CF12CCAEF88
:101E6000D0E0E091F805F091F9050995811103C0E2
:101E700081E080936A0180916901882329F0809133
:101E80006A01882309F43FC047980E94C90E009751
:101E9000F1F19C01DE010E944A2ADC01CB0129E01C
:101EA000B595A795979587952A95D1F710929000AB
:101EB0002AE020939100D0929900C09298008093DC
:101EC0006B0190936C01A0936D01B0936E018091B2
:101ED000710082608093710087CF10926901AACF50
:101EE0009E0150E040E060E472E48FE090E00E94E8
:101EF000F62969017A0181E0C81AD108E108F108E0
:101F000010926A01AECF4699BFCF479ABECF8FEFEE
:101F10009FEFDC01CBCF9C01E1E7F0E090819D7F5A
:101F2000908310929905EAEEF5E0F0939805E0931E
:101F30009705F0939605E0939505318320838BE414
:101F400090E09383828380E090E8958384830C946F
:101F5000DD0EFC0180915C0990915D092081318149
:101F6000211540E8340781F4A0915B0944E0A49F67
:101F7000D0011124AA5FB84F12963C932E9311976B
:101F8000918380830C948B0F9183808382819381D2
:101F9000892B31F480916009909161099383828348
:101FA000089580918601823029F18091010720E215
:101FB000829FC001112486509A4F21E030E0FC013D
:101FC000E20FF31F10822F5F3F4F21313105B9F728
:101FD00030E020E0FC01E20FF31F118A2F5F3F4F3A
:101FE00020313105B9F71092FD061092FC061092CF
:101FF000FB0608952091600930916109E2E0F7E065
:102000008AE599E0128211823483238334968E17F5
:102010009F07C1F783E08093620980E090E8909386
:10202000040780930307E1EEFBE085919491909380
:102030005D0980935C0910925B0908957F779FE0AA
:10204000899FA001112430E020E0FA01E20FF31F84
:10205000EE0FFF1FE758F44FA591B4916A177B0765
:1020600091F4211109C09EE1899FF0011124E758E4
:10207000F44F859194910895F9013197E40FF51F7C
:10208000EE0FFF1FF4CF2F5F3F4F2F303105E9F6E2
:1020900080E090E008957F779FE0899FA001112460
:1020A00030E020E0FA01E20FF31FEE0FFF1FE758C8
:1020B000F44FA591B4916A177B07A1F42E3049F42F
:1020C0009EE1899FF0011124EB56F44F8591949184
:1020D0000895F9013196E40FF51FEE0FFF1FE75841
:1020E000F44FF4CF2F5F3F4F2F303105D9F680E00A
:1020F00090E008957F779FE0899FA001112430E050
:1021000020E0822FFA01E20FF31FEE0FFF1FE758C6
:10211000F44FA591B4916A177B0741F4223010F473
:10212000835008952C3038F08B5008952F5F3F4F27
:102130002F30310531F780E008957F779FE0899F48
:10214000A001112430E020E0922FFA01E20FF31FEA
:10215000EE0FFF1FE758F44FA591B4916A177B0764
:1021600029F4990F990F8AE3891B08952F5F3F4F38
:102170002F30310549F780E008952091010730E0C4
:102180004091FC065091FD06BA0193E07695679563
:102190009A95E1F7E091FB06220F331F260F371FB8
:1021A000A4E0220F331FAA95E1F726503A4FE20F21
:1021B000F32FF11D91819A012770332741E050E000
:1021C00001C0440F2A95EAF7811104C040954923C4
:1021D00041830895492BFCCFCF93DF93EB010E94FD
:1021E000E0298883CE01DF91CF910895FB01019012
:1021F0000020E9F73197AF01461B570BDC01ED9149
:10220000FC910280F381E02D0994CF93DF93BC0110
:102210008AE995E00E94C609EC016BE471E08AE965
:1022200095E00E94F6108C0F9D1FDF91CF910895CD
:102230008F929F92AF92BF92EF92FF920F931F9354
:10224000CF93DF93CDB7DEB7A1970FB6F894DEBF7B
:102250000FBECDBF7C01FA01CB0119A2223008F4D8
:102260002AE08E010F5D1F4F822E912CB12CA12CE4
:10227000BF01A50194010E94282AF901CA016A3010
:102280000CF5605DD8016E938D01232B242B252B3B
:1022900079F790E080E0109721F0BD01C7010E941E
:1022A000F610A1960FB6F894DEBF0FBECDBFDF913A
:1022B000CF911F910F91FF90EF90BF90AF909F90A3
:1022C0008F900895695CDECFAB01770F660B770BBB
:1022D0002AE00C941811242F462F50E070E060E0A3
:1022E0000C9418110C94F610CF93C82F6EE471E083
:1022F0008AE995E00E947211C03130F461E571E025
:102300008AE995E00E94721140E150E06C2F8AE961
:1023100095E0CF910C946B11CF93DF93EC016EE4B9
:1023200071E08AE995E00E947211C11580E1D80739
:10233000C8F461E571E08AE995E00E947211CF3F2F
:10234000D10509F078F461E571E08AE995E00E9431
:102350007211C031D10530F461E571E08AE995E090
:102360000E947211AE0170E060E020E18AE995E020
:10237000DF91CF910C9418117F928F929F92AF9220
:10238000BF92CF92DF92EF92FF920F931F93CF9362
:10239000DF93CDB7DEB728970FB6F894DEBF0FBE38
:1023A000CDBF809186018230B9F0833009F466C0D8
:1023B00028960FB6F894DEBF0FBECDBFDF91CF9148
:1023C0001F910F91FF90EF90DF90CF90BF90AF9053
:1023D0009F908F907F90089586E598E00E94051168
:1023E00032E0E32E37E0F32E10E000E0F7018181C8
:1023F0009281C380D4808115F0E89F0741F110F0ED
:1024000090E080E00E948C1164E578E08AE995E034
:102410000E94C609C6010E948C1161E578E08AE934
:1024200095E00E94C6090115110549F0C8018770A1
:102430009927892B21F480E598E00E9405110F5F10
:102440001F4F84E0E80EF11C0639110579F683E48C
:1024500098E028960FB6F894DEBF0FBECDBFDF918F
:10246000CF911F910F91FF90EF90DF90CF90BF9091
:10247000AF909F908F907F900C94051188E0E8E1D9
:10248000F1E0DE01119601900D928A95E1F78091BD
:10249000FF06E82FE770982E9694969496947724EA
:1024A0007A94EE2349F0939481E090E08C0F9D1F85
:1024B0008E0F911DFC0170802AEFC22E25E0D22ED6
:1024C000F12CE12CE92DE150FF0B5F01EE20E1F052
:1024D0005091FE06960140E0491509F462C081E082
:1024E00090E06FEF680F651758F4BC016F5F7F4F86
:1024F000820F931FFC018081811106C0CB01F1CFB7
:102500004F5F205F3F4FE8CF6DE278E08AE995E0CA
:102510000E94C609B7016F5F7F4F8AE995E00E946C
:1025200064118EE198E00E94051110E000E00915A9
:10253000A0F5812C8091FE06881600F5E091010738
:10254000F0E0EE0FFF1FE00FF11F94E0EE0FFF1F12
:102550009A95E1F7E650FA4FE80DF11D81810A15D1
:102560001B0554F40E9474116CE178E08AE995E04F
:102570000E94C6098394DECF8721F4CF8091FF06A5
:1025800086958150990B0817190724F48BE198E080
:102590000E9405110F5F1F4FCACF86E198E00E948D
:1025A0000511FFEFEF1AFF0A20E2C20ED11C88E0EE
:1025B000E816F10409F08ACFFBCE2F923F924F929A
:1025C0005F926F927F928F929F92AF92BF92CF92C3
:1025D000DF92EF92FF920F931F93CF93DF9300D080
:1025E0001F92CDB7DEB740E860E170E090E080E098
:1025F0000E94940840E868E170E090E080E00E946A
:10260000940840E860E270E090E080E00E94940866
:1026100040E868E270E090E080E00E94940840E8C2
:1026200060E370E090E080E00E949408809170097F
:102630009091710960E370E00E94652A382EF09055
:102640005B09AEE4AA2EB12CB4E04B2E512C16E05F
:10265000212E80915B099CE0980FF916F8F424E094
:10266000F29EF0011124ED5FF84F6080718082804E
:1026700093808F1107C06114710421F460905C098C
:1026800070905D09611430E8730609F073C025E2AB
:1026900043E06EE070E0C5010E943A0E20915B09B4
:1026A00030E0290191E0491A5108C901880F991FAA
:1026B000880F991FAC014E5F584F3A014CEF42030F
:1026C000B001439F700D11247B836A837EE4A72EA3
:1026D000B12C1C0173E0271A310880915B098751E6
:1026E000990B481659060CF4B7C1EA81FB81E60D37
:1026F000F71DE20DF31D00811181F30131978080F8
:102700009180B801809162090E947A1018160CF02D
:1027100017C1F12CC82E880FDD082F2D30E06091F5
:10272000600970916109C4010E94652AC216D3062E
:102730000CF438C184E090E0821B930B9C01220FC3
:10274000331F220F331F2034310588F48FEF860F9B
:10275000482F440F480F440F475F5AEF5603C001FC
:1027600011248A0D9B1DB90102970E949408F394CD
:10277000F394D3CFB301809162090E947A101816A6
:1027800064F5E12C082F880F110B650142E0C41A93
:10279000D1088E2D90E0081719070CF44CC0920157
:1027A000281B390B220F331F220F331F2034310512
:1027B00088F46091600970916109C4010E94652AE2
:1027C0006150462F440F460F440F475FB901C601C1
:1027D0000E949408E394E394DCCF882361F1E12C18
:1027E000682F772761950CF470956B018501025075
:1027F00011092E2D30E0C216D306ECF0245F3F4FB6
:10280000220F331F220F331F203431058CF46091C7
:10281000600970916109C4010E94652A6150462FC8
:10282000440F460F440F475FB901C8010E94940846
:10283000E394E394DECF8114910481F180915B09EC
:10284000F81223C078E1731510F1209162096091AC
:10285000600970916109C4010E94652ADD24DA943F
:10286000D60EB301822F77FC47C00E949D10682FBF
:1028700070E0CC24C394ED2C04E115E02D2D44E947
:1028800056E0C5010E94750B09C08F15F0F28091CA
:102890005C0990915D0986159705B9F680915B09F1
:1028A0008F111DC088E18315D0F4E0915C09F0918F
:1028B0005D09209162098114910459F5BF01822FAD
:1028C0000E949D10682F70E0CC24C394E12C04E199
:1028D00015E020E040E152E0C5010E94750B6091D7
:1028E000600970916109C4010E94652A629DA00C73
:1028F000B11C1124F394ADCE0E949D10682F70E09E
:10290000CC24C394ED2C04E115E02D2D42E953E0D5
:10291000B8CF6091600970916109C4010E94652A75
:10292000DD24DA94D60EBF01822F0E949D10682FFD
:1029300070E0CC24C394ED2C04E115E02D2DCACF1A
:10294000882381F1F12C682F772761950CF470951D
:102950006B012F2D30E06091600970916109C40115
:102960000E94652AC216D306ECF0245F3F4F220F67
:10297000331F220F331F203431058CF48FEF860F65
:10298000482F440F480F440F475F7AEF7603C0018A
:1029900011248A0D9B1DB90102970E949408F3949B
:1029A000F394D7CF57FC2CC0209162096091600945
:1029B00070916109C4010E94652AFF24FA94F60E01
:1029C000B801822F17FD30C00E949D10E82FF0E063
:1029D0006091600970916109C4010E94652A2AEF23
:1029E0002603C0011124CC24C394EF2C04E115E08C
:1029F0002F2D44E956E0BF018A0D9B1D0E94750BE7
:102A00006091600970916109C4010E94652A4AEFD2
:102A10004603B0011124A60EB71E51E0451A510815
:102A200064E0661A710859CE0E949D10E82FF0E00C
:102A30006091600970916109C4010E94652A3AEFB2
:102A40003603C0011124CC24C394EF2C04E115E01B
:102A50002F2D42E953E0CFCF80915E09823309F0F8
:102A600053C000E020E44DE470E060E083E390E0D8
:102A70000E94180E01E028E04CE470E060E084E37E
:102A800090E00E94180E20E44CE470E060E084E3E3
:102A900090E00E943A0E20E043EF5AE062E070E0DE
:102AA00085E790E00E94B10D20E04EEE5AE062E032
:102AB00070E089E790E00E94B10D86E38093680999
:102AC000809367090093690910926A0968E072E0CF
:102AD00083E699E00E94C6091AE3109368091093EF
:102AE00067099BE0F92EF092690900936A098091C9
:102AF0000C01813009F4ECC008F4ABC0823009F459
:102B00008FC1833009F4B6C100E020E44FE170E0EA
:102B100060E090E080E00E94180E21E040E470E068
:102B200060E08DE190E00E94EF0D46E05DE063E043
:102B300070E085E090E00E94900D20E044ED5CE0C4
:102B400064E070E086E090E00E94A10D01E027E0E3
:102B50004CE16CE170E090E080E00E94180E11E022
:102B600010936809109367098CE1809369091092AA
:102B70006A0960EB70E083E699E00E94C609609103
:102B8000620970E06F5F7F4F83E699E00E946411F5
:102B900027E04CE165E270E090E080E00E94180ED2
:102BA000109368091093670985E280936909109270
:102BB0006A0980915B09893030F46EEA70E083E63F
:102BC00099E00E94C60980915B09833630F46CEA73
:102BD00070E083E699E00E94C60960915B0970E0AD
:102BE0006F5F7F4F83E699E00E94641180E18093DC
:102BF00068098093670985E28093690966E970E056
:102C000083E699E00E94641140E06AE270E08EE0A1
:102C100090E00E94CE0D48EF5AE061E370E081E061
:102C200090E00E94900D0F900F900F90DF91CF9148
:102C30001F910F91FF90EF90DF90CF90BF90AF90DA
:102C40009F908F907F906F905F904F903F902F90CC
:102C5000089567EF71E083E699E00E94C60965EE8A
:102C600071E083E699E00E94C60910936809109309
:102C700067098FE18093690965ED71E083E699E06A
:102C80000E94C609BE016F5F7F4F89E190E00E94FC
:102C9000EC10898162EB71E0833641F463EC71E002
:102CA00083E699E00E94C60965EB71E083E699E04E
:102CB0000E94C609E0910D01F0E0EF5BF54F6491D1
:102CC00070E021E045E087E390E00E94EF0D1CCF2B
:102CD0006AEA71E083E699E00E94C60980910F01DB
:102CE000811182C043EF5AE06CE070E085E590E02E
:102CF0000E94900D4EEE5AE06CE070E080E790E0AC
:102D00000E94900D01E027E044E16BE070E08AE56D
:102D100090E00E94180E8EE5809368098093670901
:102D2000F092690910926A09409160095091610915
:102D300070E060E02AE083E699E00E94181181E0EB
:102D400080936A098AE3809368098093670983E125
:102D5000F82EF092690962EA71E083E699E00E9438
:102D6000C60910910F01113009F050C043EF5AE02D
:102D700064E170E085E590E00E94900D4EEE5AE02F
:102D800064E170E087E690E00E94900D01E027E0AA
:102D90004BE063E170E08AE590E00E94180E8EE55A
:102DA0008093680980936709F092690910926A0913
:102DB0006091620970E06F5F7F4F83E699E00E9447
:102DC000641110936A098AE3809368098093670904
:102DD0008FE18093690967E771E083E699E00E94DB
:102DE000C609E0910E0168CF4091600950916109D8
:102DF00070E060E02AE083E699E00E94181163E544
:102E000071E083E699E00E94721199CF60916209A6
:102E100070E06F5F7F4F83E699E00E946411D3CF2B
:102E200088E3809368098093670965E671E083E62B
:102E300099E00E94C60963E571E083E699E00E948B
:102E4000C60965E471E083E699E00E94C60965E37E
:102E500071E083E699E00E94C60963E271E083E6CF
:102E600099E00E94C6096EE071E083E699E00E9455
:102E7000C6094ACE88E3809368098093670967EBA7
:102E800070E0F3CFFF920F931F93CF93DF93EC018A
:102E9000F62E08811981C8010E94E029F81621F058
:102EA0006F2DC8010E94E829CE01DF91CF911F91BB
:102EB0000F91FF9008951F920F920FB60F92112459
:102EC0008F939F938091E1009091E100937F909385
:102ED000E10083FF0FC01092E90091E09093EB00B6
:102EE0001092EC0092E39093ED001092940198E020
:102EF0009093F00082FF22C093E09093E9009091BC
:102F0000F200992319F09AE39093E80090917901E7
:102F1000992341F090917901915090937901911109
:102F200001C05D9A90919301992341F09091930192
:102F3000915090939301911101C0289A84FF18C079
:102F40008091E2008E7E81608093E2008091E100BA
:102F50008F7E8093E10080917A018E7E80618093E4
:102F60007A019F918F910F900FBE0F901F9018952F
:102F700080FFF7CF8091E2008E7E80618093E20037
:102F80008091E1008E7E8093E10080917A018E7EB7
:102F90008160E5CF1F920F920FB60F921124CF924E
:102FA000DF92EF92FF920F931F932F933F934F93D4
:102FB0005F936F937F938F939F93AF93BF93EF93A1
:102FC000FF93CF93DF93CDB7DEB76C97DEBFCDBF56
:102FD0001092E9008091E80083FF25C068E0CE01EF
:102FE00045960E94B90982EF8093E8008D8987FF9A
:102FF00039C09091E80090FFFCCF982F907609F0AF
:1030000034C19E894F89588D2F89F88C911131C018
:10301000803861F580917B018093F1001092F1007E
:103020008EEF8093E8006C960FB6F894DEBF0FBE6B
:10303000CDBFDF91CF91FF91EF91BF91AF919F9164
:103040008F917F916F915F914F913F912F911F9140
:103050000F91FF90EF90DF90CF900F900FBE0F90E9
:103060001F9018959EEF9093E800C7CF1092F10043
:10307000D5CF913059F48111D3CF4130510581F62C
:1030800080917B018D7F80937B01CACF933049F47F
:103090008111C6CF4130510519F680917B018260C4
:1030A000F2CF953041F48091E80080FFFCCF20689A
:1030B0002093E300B5CF963009F0A9C00B8D1C8D8D
:1030C00022E01092E9001092770110927601F2123C
:1030D0002EC010927501109274010E9488091F82FF
:1030E00099E09983FA8291E09E8390EA98879AEF1B
:1030F00099872091760130917701275F3F4F3C837C
:103100002B838D831092E900109277011092760143
:10311000109375010093740149E050E0BE016F5FA8
:103120007F4F80E00E9462090E94880979CF109346
:103130007501009374010E942009DC0112960D9123
:103140001C910115110509F451C1D801ED91FC91B3
:103150000480F581E02DBE016B5E7F4FC8010995AB
:10316000009709F03EC1F80100851185EACFF3E030
:10317000FF120EC08F89882309F440C0823061F4A9
:1031800040E860E188EA99E00E94A71A811148CFDF
:1031900081E28093EB0047CF813029F440E86BE077
:1031A0008CE999E0F1CF833099F70E942009DC0186
:1031B0001296ED90FC908E010F5F1F4F6801E11495
:1031C000F10479F0D701ED91FC910680F781E02DB3
:1031D000B801C7010995080F111DF701E084F184BA
:1031E000EECFD8011C92F60101900020E9F731974B
:1031F000BF016C197D0940E0C601C6CF66E879E0E1
:10320000FB01449150E080E80E94620909CF9730A9
:1032100009F4BECF983021F481E08093F10000CF13
:10322000993009F0FDCE837009F0B2CFE1E2F1E010
:1032300081E031E096E32191222371F08093E9004F
:103240003093EB00DF0111972C912093EC009093C9
:10325000ED008F5F873079F78EE78093EA00109258
:10326000EA008F8980939401DBCE8B8D9C8D109228
:10327000E900109277011092760190937501809386
:103280007401898D811192C08E899D89913A49F48A
:10329000813209F07DCF47E050E064E071E080E0EA
:1032A000B3CF913209F074CF833269F48F89988D4E
:1032B000B0E0A0E08093000190930101A09302018F
:1032C000B0930301ADCE803269F48091E80082FFB3
:1032D000FCCF67E084E091E00E94B9098BEF809316
:1032E000E8009ECE823209F09BCE8F8980930B013D
:1032F000EEEFFFE7859194918B3F9C4D51F1E0E01B
:10330000F8E08091040190910501A0910601B0912F
:103310000701803B9440A105B105F1F480910B01B8
:1033200080FD1AC0EE3F8AE0F80789F587E797E746
:1033300091838083809160008093780188E19BE095
:103340000FB6F894A895809360000FBE909360002C
:1033500067CEEEEFFAE0D5CF80819181873797472E
:1033600009F05ECEA895809160008861809360002E
:103370008091780180936000EE3F2AE0F20789F0A7
:103380008091FE0A9091FF0A9183808349CE8081CB
:1033900091818737980751F29093FF0A8093FE0A34
:1033A000C5CF1092FF0A1092FE0A3ACE0E94200961
:1033B000DC0112960D911C910115110509F4E8CE5E
:1033C000D801ED91FC910190F081E02DBE016B5E82
:1033D0007F4FC8010995811123CEF8010085118521
:1033E000EBCF181619060CF41BCED2CEF1E0FF126B
:1033F000BECE6AE879E004CF1F920F920FB60F920B
:1034000011242F933F938F939F93AF93BF938091FA
:103410007D0190917E01A0917F01B091800130915A
:103420006F0123E0230F2D3758F50196A11DB11D23
:1034300020936F0180937D0190937E01A0937F0183
:10344000B09380018091700190917101A0917201FF
:10345000B09173010196A11DB11D809370019093ED
:103460007101A0937201B0937301BF91AF919F91CD
:103470008F913F912F910F900FBE0F901F90189535
:1034800026E8230F0296A11DB11DD2CF1F920F92E5
:103490000FB60F9211242F933F934F935F936F9327
:1034A0007F938F939F93AF93BF93EF93FF938091FD
:1034B0006B0190916C01A0916D01B0916E01892B0F
:1034C0008A2B8B2B09F440C080916A0181110BC0BB
:1034D00088B190E4892788B980916901882319F01F
:1034E00088B1805888B980916B0190916C01A0914E
:1034F0006D01B0916E01181619061A061B069CF490
:1035000080916B0190916C01A0916D01B0916E0161
:103510000197A109B10980936B0190936C01A0936D
:103520006D01B0936E01FF91EF91BF91AF919F91AB
:103530008F917F916F915F914F913F912F910F905C
:103540000FBE0F901F9018950E94DD0EECCFEF92EA
:10355000FF920F931F93CF93DF93F82E192FE62E30
:10356000042F81E0860F880F0E94340983E00E94B7
:103570003409CF2DD12FEC0EFD2EF11CCE15DF0519
:10358000B9F007FF13C0FE0184910E943409182F7F
:1035900080E00E943409812321968111EFCFDF91D1
:1035A000CF911F910F91FF90EF9008958881EDCFFB
:1035B00081E0F5CFEAE9F5E01382128288EE93E02C
:1035C000A0E0B0E084839583A683B7838BE291E08B
:1035D000918380838FEF9FEF95878487EDE6F9E0F5
:1035E0001582168280E1878314821382118629E472
:1035F00031E0318320832AEF37E03093F9052093BF
:10360000F80520E030E83093F7052093F60546985A
:103610003E9A47983F9AE3E6F9E0138212822DE33F
:1036200031E03183208398E0918791E09087158283
:10363000168214829783E3E0F7E028E532E0DF01A9
:10364000A9011D9241505040E1F710925B09109280
:103650005D0910925C0910925E0910925F092DE7D6
:1036600030E0309361092093600993E09093620900
:103670001092FB061092FD061092FC068093FE0647
:103680008093FF0610920007109201070895CF93D0
:10369000DF93CDB7DEB728970FB6F894DEBF0FBE25
:1036A000CDBF789484B5826084BD84B5816084BDCB
:1036B00085B5826085BD85B5816085BD80916E00D0
:1036C000816080936E001092810080918100826001
:1036D000809381008091810081608093810080913E
:1036E000800081608093800080919100826080934F
:1036F0009100809191008160809391008091900071
:103700008160809390008091C10084608093C100AB
:103710008091C10082608093C1008091C10081606E
:103720008093C1008091C30081608093C300809129
:10373000C00082608093C0008091C200816080934D
:10374000C20080917A00846080937A0080917A0030
:10375000826080937A0080917A00816080937A0001
:1037600080917A00806880937A0010929401109280
:103770007B0110927A018091D70081608093D700FD
:1037800080EA8093D80089B5806189BD89B582605F
:1037900089BD09B400FEFDCF61E070E080E090E0FB
:1037A0000E94BD0A8091D8008F7C80618093D800F0
:1037B0008091E000807F8093E0008091E1008E7E28
:1037C0008093E1008DE08093E200559A209A81EC8D
:1037D00080937C0085B1806F85B984B1877E84B980
:1037E00084B1876E84B95E9A5F988AB1806D8AB918
:1037F000769A6E9881B3806F81BB899880B38D7003
:1038000080BB80E58CBD81E08DBD85E090E00E94AD
:10381000C10D5F9A85E090E00E94C10D5E985C98B2
:10382000E9EBF9E084918EBD00000DB407FEFDCFF9
:10383000319609E0E63CF007A9F75C9A81E88093AD
:1038400064008091650081608093650080E00E9443
:10385000CB080E94C60D02E010E087FF15C05C98FF
:1038600085EA8EBD00000DB407FEFDCF5C9A2E9850
:103870002F982D988091640080628093640081E08D
:1038800083BF889513BEFCCF0E94C60D82FF3EC049
:103890002D980E94C60D84788438B9F42D9A88EC4E
:1038A00090E00E94C10D2F981A8309836FEFCE011B
:1038B00001960E94421784EF91E00E94C10D2F9A59
:1038C0000E94C60D84788438D9F30E94C60D847195
:1038D0008431B9F42D9A88EC90E00E94C10D2E98A5
:1038E0001A83098360E0CE0101960E94421784EF9B
:1038F00091E00E94C10D2E9A0E94C60D8471843100
:10390000D9F388EC90E00E94C10DBECF2D9A3E9A6B
:103910003F9A81E080937C01809164008E7F809348
:10392000640080917A00806480937A0080917A00AC
:1039300086FDFCCF00917800109179000E94980AD2
:10394000AB01BC01C801B0E0A0E0DC0199278827E9
:103950008C019D01040F151F261F371FC901B801D7
:103960002091640021602093640061157105810538
:10397000910511F00E94D72982E390E00E94C10DC9
:103980000E94C60D8111F8CF0E94D10FAAE58A2EA0
:10399000A9E09A2E22242394312CFF24F394F3E0FF
:1039A000EF2E8FB7F89440917D0150917E01609188
:1039B0007F01709180018FBF80917509942F981BB2
:1039C00080917609882359F09093770910927609AF
:1039D00080E090E0892B29F30E940000DECF209147
:1039E0007409921738F49F5F921790F7F3BE889589
:1039F00013BEEECFF09276094093750920917009BD
:103A0000309171092F5F3F4F3093710920937009F6
:103A1000E5E9F1E081118FEF002481938193819397
:103A200081930394D1F780917209809373090E9466
:103A3000C60D8093720990918601913009F47BC084
:103A400050F0923009F425C1933009F461C681E049
:103A50000E94CB08BDCF909173099095892369F09E
:103A600080918501882319F08CE7809385018091EE
:103A70008501811106C0F09285018091850188231E
:103A800039F08F5F809385018D3711F4F0928601B4
:103A900047E75FE061E170E08FE290E00E94900D07
:103AA00049E55FE06AE170E08BE290E00E94900DF2
:103AB00049E55FE06AE170E089E490E00E94900DE2
:103AC00010918501111111C049E55FE06AE170E0D4
:103AD0008AE390E00E94900D49E05FE06EE270E0C2
:103AE0008AE190E00E94900DB2CF4BEE5EE06AE179
:103AF00070E08AE390E00E94900D48EC5EE06EE298
:103B000070E08CE290E00E94900D812F6FE00E94A7
:103B1000592A8370C82ED12C0FE410E0CD1409F47B
:103B200096CF41E061E370E0C8010E94E60DD394B6
:103B30000E5F1F4FF3CF80918401882319F08150CD
:103B40008093840180918301882319F081508093B0
:103B5000830180E20E94DA08811171C080E40E9432
:103B6000DA0881116FC088E00E94DA08811105C06F
:103B700084E00E94DA08882351F08091820181302C
:103B800009F46EC082E0809386010E94D10F4AE55D
:103B90005DE068E070E088E090E00E94900D21E038
:103BA00040E470E060E085E490E00E94EF0D21E0E9
:103BB00040E470E060E087E490E00E94EF0D21E0D7
:103BC00040E470E060E088E490E00E94EF0D8091B6
:103BD0008401882309F447C08FE490E04CE45DE061
:103BE00065E170E00E94900D809183018823F1F1DE
:103BF00083E790E04EE35DE065E170E00E94900DA8
:103C000046E05DE061E170E08BE590E00E94900DA0
:103C10008091820120E0813061F144ED5CE062E15D
:103C200070E08CE590E00E94A10D20E041EB5CE0AB
:103C300069E270E084E590E00E94A10D08CF88E081
:103C40008093840180E40E94DA08882319F088E0D8
:103C500080938301809182018F258093820183CF9D
:103C6000E092860192CF80E590E0B8CF82E790E0C5
:103C7000C1CF4FE75CE062E170E08CE590E00E942C
:103C8000A10D20E049E65CE069E270E08AE590E0A1
:103C9000D3CF10915B0980915E09823308F094C202
:103CA000012F10E088E00E94DA08882309F4D3C0CD
:103CB000C801880F991F880F991F8D5F984F0E9428
:103CC000A90FF0925F090E94C60D83FF10925F0951
:103CD00084E00E94DA08882309F482C1F0925E0928
:103CE0000E94C60D82FF10925E090E94C60D83FDE0
:103CF00068C20E94C60D82FD64C280E20E94DA089A
:103D00008823C1F0E0915B09EE23A1F0E150E0933C
:103D10005B0924E0E29FF0011124EE5FF84F349735
:103D200085819681811530E89307C9F390935D09E9
:103D300080935C0980E40E94DA08882309F44AC071
:103D400020915B09211107C080910307909104071E
:103D50008115904821F48FEF820F833938F52F5F5A
:103D600020935B0930E0C901880F991F880F991FC4
:103D7000FC01EE5FF84F349745815681411560E8AC
:103D80005607C9F350935D0940935C09220F331F16
:103D9000220F331FF901EE5FF84F21813281211587
:103DA000304821F48D5F984F0E94A90F80915C09E3
:103DB00090915D09892B71F4E0916209BEE1EB9F5E
:103DC000F0011124E957F44F8591949190935D0986
:103DD00080935C0980E80E94DA08882309F49BC17B
:103DE000E0915B09E11180C1809103079091040784
:103DF0008115904869F404E0E09FD0011124AA5F86
:103E0000B84F11968D919C918115904809F06FC122
:103E1000EF5FE0935B0924E0E29FF0011124EE5F85
:103E2000F84F349765817681611530E87307C9F3DF
:103E3000809162090E944B1090935D0980935C0908
:103E400080915B0944E0849FC00111248D5F984FED
:103E50000E94A90F4CC10E94C60D83FF34CF8091F0
:103E60005F09882319F08F5F80935F0980E20E94C9
:103E7000DA088823C1F010925F09000F111F000FAC
:103E8000111FF801EE5FF84F838194812091600942
:103E9000309161092817390708F015CF821B930B61
:103EA0009483838310CF80E40E94DA088823E1F0B2
:103EB00010925F09000F111F000F111FF801EE5F34
:103EC000F84F838194812091600930916109A901A3
:103ED00063E0440F551F6A95E1F78417950708F0D2
:103EE000F2CE820F931FDCCF80E80E94DA0888238D
:103EF00069F180915C0990915D09892B09F4E3CE09
:103F0000000F111F000F111F0E5F184FD8011196DF
:103F10006D917C91809162090E944B10F80192830F
:103F2000818360915C0970915D09809162090E94B2
:103F30004B1090935D0980935C0910925F09D80142
:103F400011968D919C910E948B0FBDCE80E10E94B5
:103F5000DA08882359F180915C0990915D09892BD9
:103F600009F4B1CE000F111F000F111F0E5F184F83
:103F7000F80161817281809162090E941E10D8014E
:103F800012969C938E93119760915C0970915D09D4
:103F9000809162090E941E1090935D0980935C09D4
:103FA00010925F09F80181819281CDCF80915F09E4
:103FB0008A3108F488CE000F111F000F111FF8017D
:103FC000EE5FF84F81819281813000E8900730F0F8
:103FD0009F779283818310925F0975CE9068F9CFA5
:103FE0000E94C60D82FF7CCE80E40E94DA088823FE
:103FF00089F110925E09E3E5F9E024E930E080916F
:104000005B0990E02817390760F080819181A281D7
:10401000B38184839583A683B78321503109349774
:10402000EECFFC01EE0FFF1FEE0FFF1FEA5FF84F10
:1040300021813281880F991F880F991FFC01EE5F43
:10404000F84F3283218380916009909161099483B4
:10405000838346CE80E20E94DA088823F1F0E09163
:104060005B09EE23D1F010925E098E2F90E0DC0107
:10407000AA0FBB1FAA0FBB1FAD5FB84F85399105B3
:10408000D8F4019614964D915D916D917C9117979E
:104090004D935D936D937D93F1CF80915E09823353
:1040A00008F01ECE0E94C60D82FF1ACE80915E09D6
:1040B0008F5F80935E0914CE8091600990916109B1
:1040C00090935E0980935D09E150E0935B0914E0F1
:1040D000E19FF0011124EE5FF84F8181928190936E
:1040E0005D0980935C09FCCDE43908F484CE8091AD
:1040F0005C0990915D09892B71F4E09162095EE1A0
:10410000E59FF0011124E957F44F85919491909324
:104110005D0980935C0980E10E94DA08882309F434
:1041200050C0E0915B09E11136C080910307909186
:1041300004078115904861F484E0E89FD0011124C0
:10414000AA5FB84F11968D919C918115904829F5E1
:10415000EF5FE0935B09B4E0EB9FF0011124EE5FA9
:10416000F84F349765817681611500E87007C9F3CF
:10417000809162090E941E1090935D0980935C09F2
:1041800080915B0914E0819FC00111248D5F984FDD
:104190000E94A90F02C0E43978F280915C099091E5
:1041A0005D09892B71F4E09162092EE1E29FF00133
:1041B0001124E957F44F8591949190935D09809370
:1041C0005C090E94DD1243CC80910C01813009F41E
:1041D000DAC0B0F0823009F486C2833091F780E211
:1041E0000E94DA08882319F082E080930C0180E4B1
:1041F0000E94DA08882309F482C210920C017FC25F
:1042000080E20E94DA088111E0920C0180E40E94B1
:10421000DA088111F0920C0180E80E94DA08882304
:1042200039F080910D01882319F0815080930D01A0
:1042300080E10E94DA08882391F080910D0184309A
:1042400070F48230D9F5BE016F5F7F4F89E190E055
:104250000E94EC108981833611F4E0920D0184E014
:104260000E94DA08811110925E0988E00E94DA0843
:10427000882309F4A6CF80910D01823009F44CC047
:1042800008F58823A9F1813009F09BCF80915B0963
:1042900054E0859FC00111248D5F984F20917100DB
:1042A0002D7F20937100109299059093980580932B
:1042B000970590939605809395052BC08F5F80930B
:1042C0000D01CDCF833009F440C0843009F079CF9F
:1042D00089E190E09A83898364E6CE0101960E9489
:1042E000421780E28093020782E080930D0169CF3C
:1042F000809171008D7F809371001092990543E049
:1043000057E0509398054093970550939605409336
:1043100095050E94DD0E55CF83E68093020722E0CB
:10432000C22E27E0D22E09E110E01A830983D601BC
:104330006D916D01CE0101960E9442170F5F1F4FD4
:104340000A37B2E01B0789F73CCFBE016F5F7F4F92
:1043500089E190E00E94EC108981833609F031CF29
:1043600092E0C92E97E0D92E09E110E0C8010E9421
:10437000E029F60181936F010F5F1F4F0A37F2E0CA
:104380001F07A1F71ECF80E20E94DA0800910F01FB
:10439000882321F0043011F410920C0180E40E9473
:1043A000DA08882329F0043019F482E080930C01A4
:1043B00080E80E94DA08882349F080910E01882362
:1043C00029F0043019F4815080930E0180E10E949D
:1043D000DA08882359F180910E01843038F50430D1
:1043E00039F58F5F80930E0188E00E94DA088823F8
:1043F00089F084E0043009F073C180910E018230AD
:1044000009F45BC108F46CC1833009F459C18430EC
:1044100009F459C184E00E94DA08882309F4D1CE56
:1044200010925E0984E080930F01CBCE0430E1F25C
:1044300080E20E94DA08882341F080910E018823EF
:1044400009F465C0813009F49EC080E40E94DA0856
:10445000882351F280910E01882309F4EFC0813046
:1044600019F620916209273008F0BECF81E0820F53
:1044700080936209EFE02E9F900111246901FFE013
:10448000CF0ED11CA2E0B7E044E0149FC00111247C
:104490008E5F984F11966D917C9112977F77611581
:1044A000710571F150E040E0142FFA01E20FF31FA3
:1044B000EE0FFF1FE758F44FA590B490A616B7066D
:1044C00031F04F5F5F4F4F30510571F710E0F6014B
:1044D000E10FF11DEE0FFF1FE758F44F4591549186
:1044E00012965C934E931197FC0134974581568147
:1044F000411560E85607C9F350935D0940935C0984
:104500001496E9E0AA35BE0709F0C4CF6DCFC0907C
:104510006009D0906109E9E6FBE090E080E0349129
:104520003C151D0451F5863029F0FC01EE0FFF1FEC
:10453000E559F44FE491F0E0CE16DF0609F485CF9B
:10454000F0936109E093600922E037E0D901139606
:104550008D919C91B6010E94652A6E9FC0016F9F4C
:10456000900D1124D90114969C938E9313972C5F70
:104570003F4F8216930651F768CF019632968730E7
:10458000910569F662CF80916209282F30E02115EC
:10459000310509F45ACF9FEF980F909362094FE0CD
:1045A000849FC001112421503109429F6001439F23
:1045B000D00C1124A2E0B7E0E4E01E9FB00111246A
:1045C0006E5F784F11964D915C9112975F77411510
:1045D000510571F130E020E0722EF901E80FF91F6A
:1045E000EE0FFF1FE758F44FA590B490A416B50640
:1045F00031F02F5F3F4F2F30310571F7712CF601ED
:10460000E70DF11DEE0FFF1FE758F44F2591349190
:1046100012963C932E931197FB0134972581368196
:10462000211540E83407C9F330935D0920935C09F4
:1046300014968A169B0609F0C5CF07CF2091600912
:1046400030916109E9E6FBE090E080E05491521777
:10465000130669F5882329F0FC01EE0FFF1FE959C5
:10466000F44FE491F0E02E173F0709F4BDCEF0932C
:104670006109E093600982E0C82E87E0D82ED60158
:1046800013968D919C91B9010E94652A6E9FC0017D
:104690006F9F900D1124D60114969C938E931397BF
:1046A000B4E0CB0ED11C8C149D0449F79DCE01962D
:1046B00032968730910551F697CE0E94D10FAACE3F
:1046C0000E94BC11A7CE00930F0110920C01109212
:1046D0000D0110920E0110925E09F09286019ACEA1
:1046E00080930F0197CE80E20E94DA088111F09248
:1046F0000C0180E40E94DA088111E0920C0184E050
:104700000E94DA08882309F45CCD10925E0959CD25
:1047100080910007823308F01BC288E00E94DA080B
:10472000882399F18091010790E02091FC06309157
:10473000FD06A90173E0569547957A95E1F7E0915A
:10474000FB06880F991F840F951FA4E0880F991FFF
:10475000AA95E1F786509A4FE80FF92FF11D818154
:1047600027703327810102C0000F111F2A95E2F73D
:104770009801482F50E040235323452B09F48CC166
:10478000209528232183109281010E94C60D82FD6D
:1047900056C00E94C60D83FF84C180E80E94DA08DB
:1047A000882379F08091FC069091FD06009749F0EE
:1047B00001979093FD068093FC06809181010E94F1
:1047C000BD1080E10E94DA088823A1F08091FC06E8
:1047D0009091FD062091FF062150330B821793071D
:1047E00048F401969093FD068093FC068091810128
:1047F0000E94BD1080E20E94DA08882359F080915F
:10480000FB06882339F081508093FB06809181015B
:104810000E94BD1080E40E94DA08882381F0809114
:10482000FB062091FE062150330B821713063CF441
:104830008F5F8093FB06809181010E94BD1084E010
:104840000E94DA088111F09200070E94C60D82FFD3
:1048500013C010910007123378F480E80E94DA0840
:10486000882309F463C1109200078091010788230F
:1048700019F08150809301070E94C60D82FF1092AB
:10488000000746E05DE063E070E087E090E00E94B2
:10489000900D20E04FE75CE064E070E088E090E09D
:1048A0000E94A10D01E027E04FE16AE170E090E095
:1048B00080E00E94180E21E040E470E060E080E2B9
:1048C00090E00E94EF0D2091FB068091FC069091F4
:1048D000FD062A3008F010C30A9708F412C391E0CD
:1048E00082E0890F80936809809367091AE1109329
:1048F000690910926A0967E571E083E699E00E9410
:1049000072114AE050E06091FB0683E699E00E9454
:104910006B116AE571E083E699E00E9472114091A3
:10492000FC065091FD0670E060E02AE083E699E025
:104930000E94181101E027E04FE16AE170E086E68D
:1049400090E00E94180E21E040E470E060E084E610
:1049500090E00E94EF0D20E046E55BE060E170E052
:104960008BE690E00E94A10D86E680936809809313
:1049700067091093690910926A096EE571E083E690
:1049800099E00E9472116091010770E06F5F7F4FA4
:1049900083E699E00E94641120E04AE35BE064E270
:1049A00070E083E090E00E94A10D2091FF062C5F53
:1049B0004091FE064C5F6CE270E086E090E00E9461
:1049C0003A0E512C8091FF06581608F09FC2052D13
:1049D00010E05801AA0CBB1CAA0CBB1C350123E03B
:1049E000620E711C41E0B30182E290E00E94E60D8C
:1049F000852D869586958695482F50E05E834D835C
:104A0000852D8770D10102C0AA0FBB1F8A95E2F7DE
:104A1000BC83AB83412CF801BE96F887EF8380916D
:104A2000FE06481608F070C2042D10E06801CC0C98
:104A3000DD1CCC0CDD1CE0910107F0E0EE0FFF1F48
:104A40002D813E81E20FF31F34E0EE0FFF1F3A95F8
:104A5000E1F7E650FA4FE00FF11F818190E04B81C2
:104A60005C8184239523892B79F020E045E35BE08A
:104A7000B501C60183960E94A10D41E06F81788542
:104A8000C80108960E94E60D41E0B301C601869672
:104A90000E94E60D4394C3CF282B2183F09281011D
:104AA00074CE80E80E94DA08882359F08091FC06D1
:104AB0009091FD06009729F001979093FD06809351
:104AC000FC0680E10E94DA08882381F08091FC06D0
:104AD0009091FD062091FF062150330B821793071A
:104AE00028F401969093FD068093FC0680E20E94D4
:104AF000DA08882339F08091FB06882319F0815069
:104B00008093FB0680E40E94DA08882309F497CE9C
:104B10008091FB062091FE062150330B821713066D
:104B20000CF08DCE8F5F8093FB0689CE80E10E94D2
:104B3000DA08882349F01092000780910107873036
:104B400008F09ACE8F5F96CE1F5F1093000794CE29
:104B500080911001813009F41DC190F0823009F07C
:104B600090CE80E20E94DA088111F092100180E478
:104B70000E94DA08882309F484CE1092100181CEB5
:104B800080E20E94DA08882319F082E08093100105
:104B900080E40E94DA088111F092100180E80E94FE
:104BA000DA088823B9F080911101882399F08330C5
:104BB00009F05DC0BE016F5F7F4F8AE892E00E94FE
:104BC000EC108981833621F482E08093110102C0C8
:104BD0001092110180E10E94DA08882391F08091FF
:104BE0001101853070F4811147C0BE016F5F7F4FA6
:104BF0008AE892E00E94EC1089818336D1F5F09228
:104C0000110184E00E94DA0881111092000788E007
:104C10000E94DA08882309F434CE80911101823091
:104C200009F48CC068F5882309F46FC0813009F05D
:104C300028CEBE016F5F7F4F8AE892E00E94EC10A1
:104C40008981833609F01DCE5AEFC52E55E0D52E49
:104C50000AE812E0C8010E94E029F60181936F0181
:104C60000F5F1F4F0239F3E01F07A1F70ACE8150F3
:104C7000ACCFE0921101C5CF8F5F80931101C1CFFE
:104C8000843009F46AC010F1853009F0FACDE09162
:104C9000010710E2E19FF001112481E090E0DC01C6
:104CA000AE0FBF1FA650BA4F2C9120952C930196A2
:104CB00081319105A1F7E55FF94F80E19191DF0125
:104CC000119790959C938150C9F7DBCD8091010796
:104CD00020E2829FC001112486509A4F21E030E0EB
:104CE000FC01E20FF31F10822F5F3F4F213131058E
:104CF000B9F730E020E0FC01E20FF31F118A2F5FCB
:104D00003F4F20313105B9F7BCCD83E68093FA05DA
:104D10006AEFC62E65E0D62E0AE812E01A830983F0
:104D2000D6016D916D01CE0101960E9442170F5F71
:104D30001F4F0239B3E01B0789F7A3CD8AE892E041
:104D40009A83898364E6CE0101960E94421780E22D
:104D50008093FA051092110194CD4AEF55E028E0B6
:104D600081E090E0FA01E80FF91F1082019681318D
:104D70009105C1F790E080E0FA01E80FF91F118A70
:104D8000019680319105C1F72150405E5F4F21119E
:104D9000E7CF77CD80E20E94DA08109113018823D3
:104DA00021F0143011F41092100180E40E94DA080E
:104DB000882329F0143019F482E08093100180E8F0
:104DC0000E94DA08882349F080911201882329F093
:104DD000143019F481508093120180E10E94DA08A6
:104DE000882341F180911201833020F5143021F5A0
:104DF0008F5F8093120188E00E94DA08882371F0A7
:104E000084E0143009F067C080911201823009F407
:104E100065C008F45FC0833009F463C084E00E9479
:104E2000DA08882309F42DCD1092000784E08093DE
:104E3000130127CD1430F9F280E20E94DA088823AA
:104E400031F0809112018823A9F0813021F180E4B2
:104E50000E94DA08882379F280911201882389F16F
:104E6000813049F68091FF06803128F68F5F80936C
:104E7000FF06C1CF8091FE06823018F081508093EA
:104E8000FE068091FB069091FE068913E0CF8150CB
:104E90008093FB06DCCF8091FF06823018F08150B2
:104EA0008093FF068091FC069091FD062091FF06FD
:104EB0002817190661F601979093FD068093FC066A
:104EC000C6CF8091FE06803108F095CF8F5F80932A
:104ED000FE0691CF8E5F80931301A0CF0E94BC117C
:104EE0009DCF109313011092100110921201109295
:104EF0000007F092860192CF0A9708F4F0CC91E077
:104F000001C094E080E0EDCC53945CCD6091FC0650
:104F10007091FD06660F771F660F771F615071094C
:104F20008091FB0654E0859FC00111248296209158
:104F30007009309171092F733327213208F4A7C00B
:104F400025E045E00E943A0E48EF5AE063E370E046
:104F500086E690E00E94900D80910007823311F068
:104F60000C94271D00E020E44BE470E060E084E353
:104F700090E00E94180E01E028E04AE470E060E052
:104F800085E390E00E94180E20E44AE470E060E0BF
:104F900085E390E00E943A0E20E043EF5AE062E0A1
:104FA00070E085E790E00E94B10D20E04EEE5AE0FF
:104FB00062E070E089E790E00E94B10D87E38093A2
:104FC000680980936709F092690910926A0966EE90
:104FD0007AE083E699E00E94C6098BE38093680932
:104FE000809367091BE010936909F0926A09809128
:104FF0001001813009F498C008F44FC0823011F0DC
:105000000C94271D89E380936809809367096AE2FD
:105010007AE083E699E00E94C60963E17AE083E6DC
:1050200099E00E94C6096CEF79E083E699E00E945E
:10503000C6096AEE79E083E699E00E94C60966ED4A
:1050400079E083E699E00E94C6094FEC59E063E1FC
:1050500070E083E490E00E94FD0746EC59E06CE1CB
:1050600070E082E490E00E94FD074FEC59E063E2BB
:1050700070E083E490E00E94FD0746EC59E06CE2AA
:1050800070E082E490E00E94FD070C94271D20E070
:105090004EE25BE00E94A10D57CF66ED7AE083E619
:1050A00099E00E94C609BE016F5F7F4F8AE892E0D7
:1050B0000E94EC10898163EB7AE0833641F464EC62
:1050C0007AE083E699E00E94C60966EB7AE083E61F
:1050D00099E00E94C6098BE3809368098093670971
:1050E00087E28093690966EA7AE083E699E00E94A4
:1050F000C60964E97AE083E699E00E94C60966E899
:105100007AE083E699E00E94C609E0911101F0E09F
:10511000E058F54F649170E021E045E088E390E0CD
:105120000E94EF0D0C94271D67E77AE083E699E073
:105130000E94C60980911301823009F07FC043EFBD
:105140005AE06CE070E086E590E00E94900D4EEE33
:105150005AE06CE070E081E790E00E94900D01E081
:1051600027E044E16BE070E08BE590E00E94180ED0
:105170008FE58093680980936709109369091092FD
:105180006A094AE050E06091FE0683E699E00E94D9
:105190006B11F0926A098BE3809368098093670929
:1051A00013E1109369096AE67AE083E699E00E94C8
:1051B000C60980911301833009F04FC043EF5AE0D4
:1051C00064E170E086E590E00E94900D4EEE5AE0BA
:1051D00064E170E081E790E00E94900D01E027E03B
:1051E00044E163E170E08BE590E00E94180E8FE5EA
:1051F00080936809809367091093690910926A097E
:105200004AE050E06091FF0683E699E00E946B114E
:10521000F0926A098BE380936809809367098FE1B4
:105220008093690966E47AE083E699E00E94C60902
:10523000E0911201F0E0EF5BF54F6CCF4AE050E0F7
:105240006091FE0683E699E00E946B1163E77AE0C5
:1052500083E699E00E94C6099CCF4AE050E0609145
:10526000FF0683E699E00E946B1166E67AE083E62A
:1052700099E00E94C609CCCF8F929F92AF92BF92C5
:10528000CF92DF92EF92FF92CF93DF93EC01688190
:1052900079818A819B81611571058105910521F4D0
:1052A00064E279ED8BE597E02DE133EF41E050E0EA
:1052B0000E94F62949015A019B01AC01A7EAB1E419
:1052C0000E94152A6B017C01ACEEB4EFA50194019C
:1052D0000E94232AC60ED71EE81EF91EF7FE06C03E
:1052E00081E0C81AD108E10880E8F80AC882D982AA
:1052F000EA82FB82C701B6019F77DF91CF91FF90D1
:10530000EF90DF90CF90BF90AF909F908F900895D7
:105310008F929F92AF92BF92CF92DF92EF92FF92C5
:1053200060911401709115018091160190911701FF
:10533000611571058105910521F464E279ED8BE534
:1053400097E02DE133EF41E050E00E94F62949015A
:105350005A019B01AC01A7EAB1E40E94152A6B0136
:105360007C01ACEEB4EFA50194010E94232AC60E85
:10537000D71EE81EF91EF7FE06C081E0C81AD10844
:10538000E10880E8F80AC0921401D0921501E09279
:105390001601F0921701C701B6019F77FF90EF90B9
:1053A000DF90CF90BF90AF909F908F9008956093C3
:1053B00014017093150180931601909317010895BD
:1053C000F999FECF92BD81BDF89A992780B50895CD
:1053D000262FF999FECF1FBA92BD81BD20BD0FB611
:1053E000F894FA9AF99A0FBE01960895052E97FB44
:1053F0001EF400940E940D2A57FD07D00E94282A0F
:1054000007FC03D04EF40C940D2A5095409530952E
:1054100021953F4F4F4F5F4F089590958095709520
:1054200061957F4F8F4F9F4F08950E944A2AA59FF5
:10543000900DB49F900DA49F800D911D112408958F
:10544000B7FF0C94152A0E94152A821B930B08950E
:10545000A1E21A2EAA1BBB1BFD010DC0AA1FBB1F78
:10546000EE1FFF1FA217B307E407F50720F0A21BEA
:10547000B30BE40BF50B661F771F881F991F1A9457
:1054800069F760957095809590959B01AC01BD0181
:10549000CF010895A29FB001B39FC001A39F700DDB
:1054A000811D1124911DB29F700D811D1124911D2C
:1054B0000895991B79E004C0991F961708F0961B70
:1054C000881F7A95C9F780950895AA1BBB1B51E1E7
:1054D00007C0AA1FBB1FA617B70710F0A61BB70B64
:1054E000881F991F5A95A9F780959095BC01CD0109
:1054F0000895EE0FFF1F0590F491E02D0994F894A4
:02550000FFCFDB
:10550200FFFFFFFF00E100000000000000000004B8
:105512000000000401000000000103070F1F3F7F8D
:1055220000C1808100000000000000170AF00A3864
:105532000A2D0A7E0A3C0A5A0A000000006B0EEA93
:1055420009C60EC50E000000006A0E0D0A00307872
:10555200003000206D7300587E003A597E00496D7C
:06556200616765200000F6
:00000001FF
